{
  "_format": "hh-sol-artifact-1",
  "contractName": "Crowdfunding",
  "sourceName": "contracts/Crowdfunding.sol",
  "abi": [
    {
      "anonymous": false,
      "inputs": [
        {
          "indexed": true,
          "internalType": "uint256",
          "name": "campaignId",
          "type": "uint256"
        },
        {
          "indexed": true,
          "internalType": "address",
          "name": "owner",
          "type": "address"
        },
        {
          "indexed": false,
          "internalType": "string",
          "name": "title",
          "type": "string"
        },
        {
          "indexed": false,
          "internalType": "uint256",
          "name": "target",
          "type": "uint256"
        },
        {
          "indexed": false,
          "internalType": "uint256",
          "name": "deadline",
          "type": "uint256"
        },
        {
          "indexed": false,
          "internalType": "uint8",
          "name": "category",
          "type": "uint8"
        },
        {
          "indexed": false,
          "internalType": "enum Crowdfunding.CampaignType",
          "name": "campaignType",
          "type": "uint8"
        }
      ],
      "name": "CampaignCreated",
      "type": "event"
    },
    {
      "anonymous": false,
      "inputs": [
        {
          "indexed": true,
          "internalType": "uint256",
          "name": "campaignId",
          "type": "uint256"
        },
        {
          "indexed": false,
          "internalType": "bool",
          "name": "goalReached",
          "type": "bool"
        }
      ],
      "name": "CampaignEnded",
      "type": "event"
    },
    {
      "anonymous": false,
      "inputs": [
        {
          "indexed": true,
          "internalType": "uint256",
          "name": "campaignId",
          "type": "uint256"
        },
        {
          "indexed": true,
          "internalType": "address",
          "name": "donor",
          "type": "address"
        },
        {
          "indexed": false,
          "internalType": "uint256",
          "name": "amount",
          "type": "uint256"
        }
      ],
      "name": "DonationMade",
      "type": "event"
    },
    {
      "anonymous": false,
      "inputs": [
        {
          "indexed": true,
          "internalType": "uint256",
          "name": "campaignId",
          "type": "uint256"
        },
        {
          "indexed": true,
          "internalType": "address",
          "name": "user",
          "type": "address"
        },
        {
          "indexed": false,
          "internalType": "string",
          "name": "message",
          "type": "string"
        }
      ],
      "name": "FeedbackAdded",
      "type": "event"
    },
    {
      "anonymous": false,
      "inputs": [
        {
          "indexed": true,
          "internalType": "uint256",
          "name": "campaignId",
          "type": "uint256"
        },
        {
          "indexed": true,
          "internalType": "address",
          "name": "recipient",
          "type": "address"
        },
        {
          "indexed": false,
          "internalType": "uint256",
          "name": "amount",
          "type": "uint256"
        }
      ],
      "name": "LoanRepaid",
      "type": "event"
    },
    {
      "anonymous": false,
      "inputs": [
        {
          "indexed": true,
          "internalType": "uint256",
          "name": "campaignId",
          "type": "uint256"
        },
        {
          "indexed": true,
          "internalType": "address",
          "name": "recipient",
          "type": "address"
        },
        {
          "indexed": false,
          "internalType": "uint256",
          "name": "amount",
          "type": "uint256"
        }
      ],
      "name": "RewardPaid",
      "type": "event"
    },
    {
      "anonymous": false,
      "inputs": [
        {
          "indexed": true,
          "internalType": "uint256",
          "name": "campaignId",
          "type": "uint256"
        },
        {
          "indexed": true,
          "internalType": "address",
          "name": "owner",
          "type": "address"
        },
        {
          "indexed": false,
          "internalType": "uint256",
          "name": "amount",
          "type": "uint256"
        }
      ],
      "name": "Withdrawal",
      "type": "event"
    },
    {
      "inputs": [
        {
          "internalType": "uint256",
          "name": "_id",
          "type": "uint256"
        },
        {
          "internalType": "string",
          "name": "_message",
          "type": "string"
        }
      ],
      "name": "addFeedback",
      "outputs": [],
      "stateMutability": "nonpayable",
      "type": "function"
    },
    {
      "inputs": [
        {
          "internalType": "uint256",
          "name": "",
          "type": "uint256"
        },
        {
          "internalType": "uint256",
          "name": "",
          "type": "uint256"
        }
      ],
      "name": "campaignDonors",
      "outputs": [
        {
          "internalType": "address",
          "name": "",
          "type": "address"
        }
      ],
      "stateMutability": "view",
      "type": "function"
    },
    {
      "inputs": [
        {
          "internalType": "uint256",
          "name": "",
          "type": "uint256"
        },
        {
          "internalType": "uint256",
          "name": "",
          "type": "uint256"
        }
      ],
      "name": "campaignFeedback",
      "outputs": [
        {
          "internalType": "address",
          "name": "user",
          "type": "address"
        },
        {
          "internalType": "string",
          "name": "message",
          "type": "string"
        },
        {
          "internalType": "uint256",
          "name": "timestamp",
          "type": "uint256"
        }
      ],
      "stateMutability": "view",
      "type": "function"
    },
    {
      "inputs": [
        {
          "internalType": "uint256",
          "name": "",
          "type": "uint256"
        }
      ],
      "name": "campaigns",
      "outputs": [
        {
          "internalType": "address",
          "name": "owner",
          "type": "address"
        },
        {
          "internalType": "string",
          "name": "title",
          "type": "string"
        },
        {
          "internalType": "string",
          "name": "description",
          "type": "string"
        },
        {
          "internalType": "uint256",
          "name": "target",
          "type": "uint256"
        },
        {
          "internalType": "uint256",
          "name": "deadline",
          "type": "uint256"
        },
        {
          "internalType": "uint256",
          "name": "amountCollected",
          "type": "uint256"
        },
        {
          "internalType": "bool",
          "name": "ended",
          "type": "bool"
        },
        {
          "internalType": "bool",
          "name": "fundsWithdrawn",
          "type": "bool"
        },
        {
          "internalType": "uint8",
          "name": "category",
          "type": "uint8"
        },
        {
          "internalType": "enum Crowdfunding.CampaignType",
          "name": "campaignType",
          "type": "uint8"
        },
        {
          "internalType": "uint256",
          "name": "rewardPercentage",
          "type": "uint256"
        }
      ],
      "stateMutability": "view",
      "type": "function"
    },
    {
      "inputs": [
        {
          "internalType": "string",
          "name": "_title",
          "type": "string"
        },
        {
          "internalType": "string",
          "name": "_description",
          "type": "string"
        },
        {
          "internalType": "uint256",
          "name": "_target",
          "type": "uint256"
        },
        {
          "internalType": "uint256",
          "name": "_deadline",
          "type": "uint256"
        },
        {
          "internalType": "uint8",
          "name": "_category",
          "type": "uint8"
        },
        {
          "internalType": "enum Crowdfunding.CampaignType",
          "name": "_campaignType",
          "type": "uint8"
        },
        {
          "internalType": "uint256",
          "name": "_rewardPercentage",
          "type": "uint256"
        }
      ],
      "name": "createCampaign",
      "outputs": [
        {
          "internalType": "uint256",
          "name": "",
          "type": "uint256"
        }
      ],
      "stateMutability": "nonpayable",
      "type": "function"
    },
    {
      "inputs": [
        {
          "internalType": "uint256",
          "name": "_id",
          "type": "uint256"
        }
      ],
      "name": "donateToCampaign",
      "outputs": [],
      "stateMutability": "payable",
      "type": "function"
    },
    {
      "inputs": [
        {
          "internalType": "uint256",
          "name": "",
          "type": "uint256"
        },
        {
          "internalType": "address",
          "name": "",
          "type": "address"
        }
      ],
      "name": "donations",
      "outputs": [
        {
          "internalType": "uint256",
          "name": "",
          "type": "uint256"
        }
      ],
      "stateMutability": "view",
      "type": "function"
    },
    {
      "inputs": [
        {
          "internalType": "uint256",
          "name": "_id",
          "type": "uint256"
        }
      ],
      "name": "getAllDonors",
      "outputs": [
        {
          "internalType": "address[]",
          "name": "",
          "type": "address[]"
        },
        {
          "internalType": "uint256[]",
          "name": "",
          "type": "uint256[]"
        }
      ],
      "stateMutability": "view",
      "type": "function"
    },
    {
      "inputs": [
        {
          "internalType": "uint256",
          "name": "_id",
          "type": "uint256"
        }
      ],
      "name": "getCampaignDetails",
      "outputs": [
        {
          "internalType": "address",
          "name": "owner",
          "type": "address"
        },
        {
          "internalType": "string",
          "name": "title",
          "type": "string"
        },
        {
          "internalType": "string",
          "name": "description",
          "type": "string"
        },
        {
          "internalType": "uint256",
          "name": "target",
          "type": "uint256"
        },
        {
          "internalType": "uint256",
          "name": "deadline",
          "type": "uint256"
        },
        {
          "internalType": "uint256",
          "name": "amountCollected",
          "type": "uint256"
        },
        {
          "internalType": "bool",
          "name": "ended",
          "type": "bool"
        },
        {
          "internalType": "bool",
          "name": "fundsWithdrawn",
          "type": "bool"
        },
        {
          "internalType": "uint8",
          "name": "category",
          "type": "uint8"
        },
        {
          "internalType": "enum Crowdfunding.CampaignType",
          "name": "campaignType",
          "type": "uint8"
        },
        {
          "internalType": "uint256",
          "name": "rewardPercentage",
          "type": "uint256"
        }
      ],
      "stateMutability": "view",
      "type": "function"
    },
    {
      "inputs": [
        {
          "internalType": "uint256",
          "name": "_id",
          "type": "uint256"
        }
      ],
      "name": "getCampaignDonors",
      "outputs": [
        {
          "internalType": "address[]",
          "name": "",
          "type": "address[]"
        }
      ],
      "stateMutability": "view",
      "type": "function"
    },
    {
      "inputs": [
        {
          "internalType": "uint256",
          "name": "_id",
          "type": "uint256"
        },
        {
          "internalType": "address",
          "name": "_donor",
          "type": "address"
        }
      ],
      "name": "getDonationAmount",
      "outputs": [
        {
          "internalType": "uint256",
          "name": "",
          "type": "uint256"
        }
      ],
      "stateMutability": "view",
      "type": "function"
    },
    {
      "inputs": [
        {
          "internalType": "uint256",
          "name": "_id",
          "type": "uint256"
        }
      ],
      "name": "getDonorCount",
      "outputs": [
        {
          "internalType": "uint256",
          "name": "",
          "type": "uint256"
        }
      ],
      "stateMutability": "view",
      "type": "function"
    },
    {
      "inputs": [
        {
          "internalType": "uint256",
          "name": "_id",
          "type": "uint256"
        },
        {
          "internalType": "uint256",
          "name": "_index",
          "type": "uint256"
        }
      ],
      "name": "getDonorDetails",
      "outputs": [
        {
          "internalType": "address",
          "name": "donor",
          "type": "address"
        },
        {
          "internalType": "uint256",
          "name": "amount",
          "type": "uint256"
        }
      ],
      "stateMutability": "view",
      "type": "function"
    },
    {
      "inputs": [
        {
          "internalType": "uint256",
          "name": "_id",
          "type": "uint256"
        }
      ],
      "name": "getFeedback",
      "outputs": [
        {
          "components": [
            {
              "internalType": "address",
              "name": "user",
              "type": "address"
            },
            {
              "internalType": "string",
              "name": "message",
              "type": "string"
            },
            {
              "internalType": "uint256",
              "name": "timestamp",
              "type": "uint256"
            }
          ],
          "internalType": "struct Crowdfunding.Feedback[]",
          "name": "",
          "type": "tuple[]"
        }
      ],
      "stateMutability": "view",
      "type": "function"
    },
    {
      "inputs": [
        {
          "internalType": "uint256",
          "name": "",
          "type": "uint256"
        },
        {
          "internalType": "address",
          "name": "",
          "type": "address"
        }
      ],
      "name": "hasUserDonated",
      "outputs": [
        {
          "internalType": "bool",
          "name": "",
          "type": "bool"
        }
      ],
      "stateMutability": "view",
      "type": "function"
    },
    {
      "inputs": [
        {
          "internalType": "uint256",
          "name": "_id",
          "type": "uint256"
        }
      ],
      "name": "isCampaignEnded",
      "outputs": [
        {
          "internalType": "bool",
          "name": "",
          "type": "bool"
        }
      ],
      "stateMutability": "view",
      "type": "function"
    },
    {
      "inputs": [],
      "name": "numberOfCampaigns",
      "outputs": [
        {
          "internalType": "uint256",
          "name": "",
          "type": "uint256"
        }
      ],
      "stateMutability": "view",
      "type": "function"
    },
    {
      "inputs": [
        {
          "internalType": "uint256",
          "name": "_id",
          "type": "uint256"
        },
        {
          "internalType": "address",
          "name": "_donor",
          "type": "address"
        }
      ],
      "name": "payReward",
      "outputs": [],
      "stateMutability": "payable",
      "type": "function"
    },
    {
      "inputs": [
        {
          "internalType": "uint256",
          "name": "_id",
          "type": "uint256"
        },
        {
          "internalType": "address",
          "name": "_donor",
          "type": "address"
        }
      ],
      "name": "repayLoan",
      "outputs": [],
      "stateMutability": "payable",
      "type": "function"
    },
    {
      "inputs": [
        {
          "internalType": "uint256",
          "name": "_id",
          "type": "uint256"
        }
      ],
      "name": "withdrawFunds",
      "outputs": [],
      "stateMutability": "nonpayable",
      "type": "function"
    }
  ],
  "bytecode": "0x6080604052600060055534801561001557600080fd5b506143da806100256000396000f3fe60806040526004361061011f5760003560e01c80636fad502b116100a0578063927110ba11610064578063927110ba14610427578063d993de6214610465578063e43826d8146104ac578063ee1554a3146104e9578063f25e1e93146105265761011f565b80636fad502b1461032b578063736b215c14610368578063870afaba146103a5578063902d6c53146103e2578063918344d31461040b5761011f565b8063209b7d5f116100e7578063209b7d5f1461023b5780632495efb81461027857806342a4fda8146102b65780635943c705146102d25780636515d6c11461030f5761011f565b806301aa80fc1461012457806307ca140d146101635780631106a3821461018e578063141961bc146101cb578063155dd5ee14610212575b600080fd5b34801561013057600080fd5b5061014b600480360381019061014691906126f2565b610563565b60405161015a93929190612812565b60405180910390f35b34801561016f57600080fd5b50610178610652565b6040516101859190612850565b60405180910390f35b34801561019a57600080fd5b506101b560048036038101906101b0919061286b565b610658565b6040516101c29190612a12565b60405180910390f35b3480156101d757600080fd5b506101f260048036038101906101ed919061286b565b610800565b6040516102099b9a99989796959493929190612ae2565b60405180910390f35b34801561021e57600080fd5b506102396004803603810190610234919061286b565b6109be565b005b34801561024757600080fd5b50610262600480360381019061025d919061286b565b610d07565b60405161026f9190612c4a565b60405180910390f35b34801561028457600080fd5b5061029f600480360381019061029a919061286b565b610dee565b6040516102ad929190612d1b565b60405180910390f35b6102d060048036038101906102cb919061286b565b610f8c565b005b3480156102de57600080fd5b506102f960048036038101906102f4919061286b565b611373565b6040516103069190612850565b60405180910390f35b61032960048036038101906103249190612d7e565b6113d9565b005b34801561033757600080fd5b50610352600480360381019061034d919061286b565b611682565b60405161035f9190612dbe565b60405180910390f35b34801561037457600080fd5b5061038f600480360381019061038a9190612f5f565b611719565b60405161039c9190612850565b60405180910390f35b3480156103b157600080fd5b506103cc60048036038101906103c79190612d7e565b611add565b6040516103d99190612dbe565b60405180910390f35b3480156103ee57600080fd5b5061040960048036038101906104049190613039565b611b0c565b005b61042560048036038101906104209190612d7e565b611d6e565b005b34801561043357600080fd5b5061044e600480360381019061044991906126f2565b61203c565b60405161045c929190613095565b60405180910390f35b34801561047157600080fd5b5061048c6004803603810190610487919061286b565b612182565b6040516104a39b9a99989796959493929190612ae2565b60405180910390f35b3480156104b857600080fd5b506104d360048036038101906104ce9190612d7e565b6123b4565b6040516104e09190612850565b60405180910390f35b3480156104f557600080fd5b50610510600480360381019061050b9190612d7e565b612455565b60405161051d9190612850565b60405180910390f35b34801561053257600080fd5b5061054d600480360381019061054891906126f2565b61247a565b60405161055a91906130be565b60405180910390f35b6001602052816000526040600020818154811061057f57600080fd5b9060005260206000209060030201600091509150508060000160009054906101000a900473ffffffffffffffffffffffffffffffffffffffff16908060010180546105c990613108565b80601f01602080910402602001604051908101604052809291908181526020018280546105f590613108565b80156106425780601f1061061757610100808354040283529160200191610642565b820191906000526020600020905b81548152906001019060200180831161062557829003601f168201915b5050505050908060020154905083565b60055481565b6060600554821061069e576040517f08c379a000000000000000000000000000000000000000000000000000000000815260040161069590613185565b60405180910390fd5b60016000838152602001908152602001600020805480602002602001604051908101604052809291908181526020016000905b828210156107f557838290600052602060002090600302016040518060600160405290816000820160009054906101000a900473ffffffffffffffffffffffffffffffffffffffff1673ffffffffffffffffffffffffffffffffffffffff1673ffffffffffffffffffffffffffffffffffffffff16815260200160018201805461075a90613108565b80601f016020809104026020016040519081016040528092919081815260200182805461078690613108565b80156107d35780601f106107a8576101008083540402835291602001916107d3565b820191906000526020600020905b8154815290600101906020018083116107b657829003601f168201915b50505050508152602001600282015481525050815260200190600101906106d1565b505050509050919050565b60006020528060005260406000206000915090508060000160009054906101000a900473ffffffffffffffffffffffffffffffffffffffff169080600101805461084990613108565b80601f016020809104026020016040519081016040528092919081815260200182805461087590613108565b80156108c25780601f10610897576101008083540402835291602001916108c2565b820191906000526020600020905b8154815290600101906020018083116108a557829003601f168201915b5050505050908060020180546108d790613108565b80601f016020809104026020016040519081016040528092919081815260200182805461090390613108565b80156109505780601f1061092557610100808354040283529160200191610950565b820191906000526020600020905b81548152906001019060200180831161093357829003601f168201915b5050505050908060030154908060040154908060050154908060060160009054906101000a900460ff16908060060160019054906101000a900460ff16908060060160029054906101000a900460ff16908060060160039054906101000a900460ff1690806007015490508b565b600080600083815260200190815260200160002090508060000160009054906101000a900473ffffffffffffffffffffffffffffffffffffffff1673ffffffffffffffffffffffffffffffffffffffff163373ffffffffffffffffffffffffffffffffffffffff1614610a66576040517f08c379a0000000000000000000000000000000000000000000000000000000008152600401610a5d90613217565b60405180910390fd5b8060060160009054906101000a900460ff1680610a865750806004015442115b80610a9957508060030154816005015410155b610ad8576040517f08c379a0000000000000000000000000000000000000000000000000000000008152600401610acf906132a9565b60405180910390fd5b8060060160019054906101000a900460ff1615610b2a576040517f08c379a0000000000000000000000000000000000000000000000000000000008152600401610b219061333b565b60405180910390fd5b6000816005015411610b71576040517f08c379a0000000000000000000000000000000000000000000000000000000008152600401610b68906133a7565b60405180910390fd5b6000816005015490506000826005018190555060018260060160016101000a81548160ff02191690831515021790555060018260060160006101000a81548160ff02191690831515021790555060008260000160009054906101000a900473ffffffffffffffffffffffffffffffffffffffff1673ffffffffffffffffffffffffffffffffffffffff1682604051610c08906133f8565b60006040518083038185875af1925050503d8060008114610c45576040519150601f19603f3d011682016040523d82523d6000602084013e610c4a565b606091505b5050905080610c8e576040517f08c379a0000000000000000000000000000000000000000000000000000000008152600401610c8590613459565b60405180910390fd5b8260000160009054906101000a900473ffffffffffffffffffffffffffffffffffffffff1673ffffffffffffffffffffffffffffffffffffffff16847f37e8063b72a944a76de602f32b82fd8c2a1c6f99564c727ffaf913c7762cd42084604051610cf99190612850565b60405180910390a350505050565b60606005548210610d4d576040517f08c379a0000000000000000000000000000000000000000000000000000000008152600401610d4490613185565b60405180910390fd5b600080838152602001908152602001600020600901805480602002602001604051908101604052809291908181526020018280548015610de257602002820191906000526020600020905b8160009054906101000a900473ffffffffffffffffffffffffffffffffffffffff1673ffffffffffffffffffffffffffffffffffffffff1681526020019060010190808311610d98575b50505050509050919050565b606080600060046000858152602001908152602001600020805480602002602001604051908101604052809291908181526020018280548015610e8657602002820191906000526020600020905b8160009054906101000a900473ffffffffffffffffffffffffffffffffffffffff1673ffffffffffffffffffffffffffffffffffffffff1681526020019060010190808311610e3c575b505050505090506000815167ffffffffffffffff811115610eaa57610ea9612de3565b5b604051908082528060200260200182016040528015610ed85781602001602082028036833780820191505090505b50905060005b8251811015610f7e57600260008781526020019081526020016000206000848381518110610f0f57610f0e613479565b5b602002602001015173ffffffffffffffffffffffffffffffffffffffff1673ffffffffffffffffffffffffffffffffffffffff16815260200190815260200160002054828281518110610f6557610f64613479565b5b6020026020010181815250508080600101915050610ede565b508181935093505050915091565b6005548110610fd0576040517f08c379a0000000000000000000000000000000000000000000000000000000008152600401610fc790613185565b60405180910390fd5b6000806000838152602001908152602001600020905060008160080160003373ffffffffffffffffffffffffffffffffffffffff1673ffffffffffffffffffffffffffffffffffffffff16815260200190815260200160002054036110955780600901339080600181540180825580915050600190039060005260206000200160009091909190916101000a81548173ffffffffffffffffffffffffffffffffffffffff021916908373ffffffffffffffffffffffffffffffffffffffff1602179055505b8060060160009054906101000a900460ff16156110e7576040517f08c379a00000000000000000000000000000000000000000000000000000000081526004016110de906134f4565b60405180910390fd5b806004015442111561112e576040517f08c379a000000000000000000000000000000000000000000000000000000000815260040161112590613560565b60405180910390fd5b348160080160003373ffffffffffffffffffffffffffffffffffffffff1673ffffffffffffffffffffffffffffffffffffffff168152602001908152602001600020600082825461117f91906135af565b925050819055503481600501600082825461119a91906135af565b9250508190555060016003600084815260200190815260200160002060003373ffffffffffffffffffffffffffffffffffffffff1673ffffffffffffffffffffffffffffffffffffffff16815260200190815260200160002060006101000a81548160ff021916908315150217905550346002600084815260200190815260200160002060003373ffffffffffffffffffffffffffffffffffffffff1673ffffffffffffffffffffffffffffffffffffffff16815260200190815260200160002054036112d65760046000838152602001908152602001600020339080600181540180825580915050600190039060005260206000200160009091909190916101000a81548173ffffffffffffffffffffffffffffffffffffffff021916908373ffffffffffffffffffffffffffffffffffffffff1602179055505b80600301548160050154106112ef576112ee826124c8565b5b3373ffffffffffffffffffffffffffffffffffffffff16827fe555da28bdb778f65d22794d88927ebaeca03f7de9d1b7d39245bc8fb5ca078a346040516113369190612850565b60405180910390a361136f8261134b34612542565b60405160200161135b91906136b7565b604051602081830303815290604052611b0c565b5050565b600060055482106113b9576040517f08c379a00000000000000000000000000000000000000000000000000000000081526004016113b090613185565b60405180910390fd5b600080838152602001908152602001600020600901805490509050919050565b600080600084815260200190815260200160002090508060000160009054906101000a900473ffffffffffffffffffffffffffffffffffffffff1673ffffffffffffffffffffffffffffffffffffffff163373ffffffffffffffffffffffffffffffffffffffff1614611481576040517f08c379a000000000000000000000000000000000000000000000000000000000815260040161147890613756565b60405180910390fd5b6000600281111561149557611494612a6b565b5b8160060160039054906101000a900460ff1660028111156114b9576114b8612a6b565b5b146114f9576040517f08c379a00000000000000000000000000000000000000000000000000000000081526004016114f0906137e8565b60405180910390fd5b60008160080160008473ffffffffffffffffffffffffffffffffffffffff1673ffffffffffffffffffffffffffffffffffffffff16815260200190815260200160002054905060008111611582576040517f08c379a00000000000000000000000000000000000000000000000000000000081526004016115799061387a565b60405180910390fd5b60006064836007015483611596919061389a565b6115a0919061390b565b9050803410156115e5576040517f08c379a00000000000000000000000000000000000000000000000000000000081526004016115dc90613988565b60405180910390fd5b8373ffffffffffffffffffffffffffffffffffffffff166108fc829081150290604051600060405180830381858888f1935050505015801561162b573d6000803e3d6000fd5b508373ffffffffffffffffffffffffffffffffffffffff16857f04492fab062412e7e4e5f46c9e919f1640652946a5e163ad6e6c1c03d87954d2836040516116739190612850565b60405180910390a35050505050565b600060055482106116c8576040517f08c379a00000000000000000000000000000000000000000000000000000000081526004016116bf90613185565b60405180910390fd5b600080600084815260200190815260200160002090508060060160009054906101000a900460ff16806116fe5750806004015442115b8061171157508060030154816005015410155b915050919050565b60008088511161175e576040517f08c379a0000000000000000000000000000000000000000000000000000000008152600401611755906139f4565b60405180910390fd5b60008751116117a2576040517f08c379a000000000000000000000000000000000000000000000000000000000815260040161179990613a60565b60405180910390fd5b600086116117e5576040517f08c379a00000000000000000000000000000000000000000000000000000000081526004016117dc90613af2565b60405180910390fd5b428511611827576040517f08c379a000000000000000000000000000000000000000000000000000000000815260040161181e90613b5e565b60405180910390fd5b600a8460ff161061186d576040517f08c379a000000000000000000000000000000000000000000000000000000000815260040161186490613bca565b60405180910390fd5b6000600281111561188157611880612a6b565b5b83600281111561189457611893612a6b565b5b036118ee576000821180156118aa575060648211155b6118e9576040517f08c379a00000000000000000000000000000000000000000000000000000000081526004016118e090613c36565b60405180910390fd5b611932565b60008214611931576040517f08c379a000000000000000000000000000000000000000000000000000000000815260040161192890613cc8565b60405180910390fd5b5b6000600554905060008060008381526020019081526020016000209050338160000160006101000a81548173ffffffffffffffffffffffffffffffffffffffff021916908373ffffffffffffffffffffffffffffffffffffffff160217905550898160010190816119a39190613e94565b50888160020190816119b59190613e94565b508781600301819055508681600401819055506000816005018190555060008160060160006101000a81548160ff02191690831515021790555060008160060160016101000a81548160ff021916908315150217905550858160060160026101000a81548160ff021916908360ff160217905550848160060160036101000a81548160ff02191690836002811115611a5057611a4f612a6b565b5b021790555083816007018190555060056000815480929190611a7190613f66565b91905055503373ffffffffffffffffffffffffffffffffffffffff16827f979b6411053bbc538dcc37ebd7d23d64ccafec71036d37f87a612e8a96953ca08c8b8b8b8b604051611ac5959493929190613fae565b60405180910390a38192505050979650505050505050565b60036020528160005260406000206020528060005260406000206000915091509054906101000a900460ff1681565b6005548210611b50576040517f08c379a0000000000000000000000000000000000000000000000000000000008152600401611b4790613185565b60405180910390fd5b600080600084815260200190815260200160002090508060000160009054906101000a900473ffffffffffffffffffffffffffffffffffffffff1673ffffffffffffffffffffffffffffffffffffffff163373ffffffffffffffffffffffffffffffffffffffff161480611c05575060008160080160003373ffffffffffffffffffffffffffffffffffffffff1673ffffffffffffffffffffffffffffffffffffffff16815260200190815260200160002054115b611c44576040517f08c379a0000000000000000000000000000000000000000000000000000000008152600401611c3b9061407a565b60405180910390fd5b6001600084815260200190815260200160002060405180606001604052803373ffffffffffffffffffffffffffffffffffffffff16815260200184815260200142815250908060018154018082558091505060019003906000526020600020906003020160009091909190915060008201518160000160006101000a81548173ffffffffffffffffffffffffffffffffffffffff021916908373ffffffffffffffffffffffffffffffffffffffff1602179055506020820151816001019081611d0d9190613e94565b506040820151816002015550503373ffffffffffffffffffffffffffffffffffffffff16837f97b617f6eaf950a8896a69b65f40680caf5d58db9727b74fb8fbb56a67249c4884604051611d61919061409a565b60405180910390a3505050565b600080600084815260200190815260200160002090508060000160009054906101000a900473ffffffffffffffffffffffffffffffffffffffff1673ffffffffffffffffffffffffffffffffffffffff163373ffffffffffffffffffffffffffffffffffffffff1614611e16576040517f08c379a0000000000000000000000000000000000000000000000000000000008152600401611e0d9061412e565b60405180910390fd5b600280811115611e2957611e28612a6b565b5b8160060160039054906101000a900460ff166002811115611e4d57611e4c612a6b565b5b14611e8d576040517f08c379a0000000000000000000000000000000000000000000000000000000008152600401611e84906141c0565b60405180910390fd5b60008160080160008473ffffffffffffffffffffffffffffffffffffffff1673ffffffffffffffffffffffffffffffffffffffff16815260200190815260200160002054905060008111611f16576040517f08c379a0000000000000000000000000000000000000000000000000000000008152600401611f0d90614252565b60405180910390fd5b80341015611f59576040517f08c379a0000000000000000000000000000000000000000000000000000000008152600401611f50906142be565b60405180910390fd5b8273ffffffffffffffffffffffffffffffffffffffff166108fc829081150290604051600060405180830381858888f19350505050158015611f9f573d6000803e3d6000fd5b5060008260080160008573ffffffffffffffffffffffffffffffffffffffff1673ffffffffffffffffffffffffffffffffffffffff168152602001908152602001600020819055508273ffffffffffffffffffffffffffffffffffffffff16847f512d3e65b3e58c2187bb1872aa435dba5bd09c1c03823ba56ab70aac411e4a218360405161202e9190612850565b60405180910390a350505050565b6000806005548410612083576040517f08c379a000000000000000000000000000000000000000000000000000000000815260040161207a90613185565b60405180910390fd5b6000808581526020019081526020016000206009018054905083106120dd576040517f08c379a00000000000000000000000000000000000000000000000000000000081526004016120d49061432a565b60405180910390fd5b6000806000868152602001908152602001600020905080600901848154811061210957612108613479565b5b9060005260206000200160009054906101000a900473ffffffffffffffffffffffffffffffffffffffff1692508060080160008473ffffffffffffffffffffffffffffffffffffffff1673ffffffffffffffffffffffffffffffffffffffff168152602001908152602001600020549150509250929050565b60006060806000806000806000806000806005548c106121d7576040517f08c379a00000000000000000000000000000000000000000000000000000000081526004016121ce90613185565b60405180910390fd5b60008060008e815260200190815260200160002090508060000160009054906101000a900473ffffffffffffffffffffffffffffffffffffffff1681600101826002018360030154846004015485600501548660060160009054906101000a900460ff168760060160019054906101000a900460ff168860060160029054906101000a900460ff168960060160039054906101000a900460ff168a6007015489805461228290613108565b80601f01602080910402602001604051908101604052809291908181526020018280546122ae90613108565b80156122fb5780601f106122d0576101008083540402835291602001916122fb565b820191906000526020600020905b8154815290600101906020018083116122de57829003601f168201915b5050505050995088805461230e90613108565b80601f016020809104026020016040519081016040528092919081815260200182805461233a90613108565b80156123875780601f1061235c57610100808354040283529160200191612387565b820191906000526020600020905b81548152906001019060200180831161236a57829003601f168201915b505050505098509b509b509b509b509b509b509b509b509b509b509b505091939597999b90929496989a50565b600060055483106123fa576040517f08c379a00000000000000000000000000000000000000000000000000000000081526004016123f190613185565b60405180910390fd5b60008084815260200190815260200160002060080160008373ffffffffffffffffffffffffffffffffffffffff1673ffffffffffffffffffffffffffffffffffffffff16815260200190815260200160002054905092915050565b6002602052816000526040600020602052806000526040600020600091509150505481565b6004602052816000526040600020818154811061249657600080fd5b906000526020600020016000915091509054906101000a900473ffffffffffffffffffffffffffffffffffffffff1681565b6000806000838152602001908152602001600020905060018160060160006101000a81548160ff021916908315150217905550817f75d9b4c220529dda63dce075aa4c186e8f24151ecc185e707577fbfb5ab5b3738260030154836005015410156040516125369190612dbe565b60405180910390a25050565b606060008203612589576040518060400160405280600181526020017f300000000000000000000000000000000000000000000000000000000000000081525090506126a3565b600082905060005b600082146125bb5780806125a490613f66565b915050600a826125b4919061390b565b9150612591565b60008167ffffffffffffffff8111156125d7576125d6612de3565b5b6040519080825280601f01601f1916602001820160405280156126095781602001600182028036833780820191505090505b50905060008290508593505b6000841461269b57600a8461262a919061434a565b603061263691906135af565b60f81b82826126449061437b565b9250828151811061265857612657613479565b5b60200101907effffffffffffffffffffffffffffffffffffffffffffffffffffffffffffff1916908160001a905350600a84612694919061390b565b9350612615565b819450505050505b919050565b6000604051905090565b600080fd5b600080fd5b6000819050919050565b6126cf816126bc565b81146126da57600080fd5b50565b6000813590506126ec816126c6565b92915050565b60008060408385031215612709576127086126b2565b5b6000612717858286016126dd565b9250506020612728858286016126dd565b9150509250929050565b600073ffffffffffffffffffffffffffffffffffffffff82169050919050565b600061275d82612732565b9050919050565b61276d81612752565b82525050565b600081519050919050565b600082825260208201905092915050565b60005b838110156127ad578082015181840152602081019050612792565b60008484015250505050565b6000601f19601f8301169050919050565b60006127d582612773565b6127df818561277e565b93506127ef81856020860161278f565b6127f8816127b9565b840191505092915050565b61280c816126bc565b82525050565b60006060820190506128276000830186612764565b818103602083015261283981856127ca565b90506128486040830184612803565b949350505050565b60006020820190506128656000830184612803565b92915050565b600060208284031215612881576128806126b2565b5b600061288f848285016126dd565b91505092915050565b600081519050919050565b600082825260208201905092915050565b6000819050602082019050919050565b6128cd81612752565b82525050565b600082825260208201905092915050565b60006128ef82612773565b6128f981856128d3565b935061290981856020860161278f565b612912816127b9565b840191505092915050565b612926816126bc565b82525050565b600060608301600083015161294460008601826128c4565b506020830151848203602086015261295c82826128e4565b9150506040830151612971604086018261291d565b508091505092915050565b6000612988838361292c565b905092915050565b6000602082019050919050565b60006129a882612898565b6129b281856128a3565b9350836020820285016129c4856128b4565b8060005b85811015612a0057848403895281516129e1858261297c565b94506129ec83612990565b925060208a019950506001810190506129c8565b50829750879550505050505092915050565b60006020820190508181036000830152612a2c818461299d565b905092915050565b60008115159050919050565b612a4981612a34565b82525050565b600060ff82169050919050565b612a6581612a4f565b82525050565b7f4e487b7100000000000000000000000000000000000000000000000000000000600052602160045260246000fd5b60038110612aab57612aaa612a6b565b5b50565b6000819050612abc82612a9a565b919050565b6000612acc82612aae565b9050919050565b612adc81612ac1565b82525050565b600061016082019050612af8600083018e612764565b8181036020830152612b0a818d6127ca565b90508181036040830152612b1e818c6127ca565b9050612b2d606083018b612803565b612b3a608083018a612803565b612b4760a0830189612803565b612b5460c0830188612a40565b612b6160e0830187612a40565b612b6f610100830186612a5c565b612b7d610120830185612ad3565b612b8b610140830184612803565b9c9b505050505050505050505050565b600081519050919050565b600082825260208201905092915050565b6000819050602082019050919050565b6000612bd383836128c4565b60208301905092915050565b6000602082019050919050565b6000612bf782612b9b565b612c018185612ba6565b9350612c0c83612bb7565b8060005b83811015612c3d578151612c248882612bc7565b9750612c2f83612bdf565b925050600181019050612c10565b5085935050505092915050565b60006020820190508181036000830152612c648184612bec565b905092915050565b600081519050919050565b600082825260208201905092915050565b6000819050602082019050919050565b6000612ca4838361291d565b60208301905092915050565b6000602082019050919050565b6000612cc882612c6c565b612cd28185612c77565b9350612cdd83612c88565b8060005b83811015612d0e578151612cf58882612c98565b9750612d0083612cb0565b925050600181019050612ce1565b5085935050505092915050565b60006040820190508181036000830152612d358185612bec565b90508181036020830152612d498184612cbd565b90509392505050565b612d5b81612752565b8114612d6657600080fd5b50565b600081359050612d7881612d52565b92915050565b60008060408385031215612d9557612d946126b2565b5b6000612da3858286016126dd565b9250506020612db485828601612d69565b9150509250929050565b6000602082019050612dd36000830184612a40565b92915050565b600080fd5b600080fd5b7f4e487b7100000000000000000000000000000000000000000000000000000000600052604160045260246000fd5b612e1b826127b9565b810181811067ffffffffffffffff82111715612e3a57612e39612de3565b5b80604052505050565b6000612e4d6126a8565b9050612e598282612e12565b919050565b600067ffffffffffffffff821115612e7957612e78612de3565b5b612e82826127b9565b9050602081019050919050565b82818337600083830152505050565b6000612eb1612eac84612e5e565b612e43565b905082815260208101848484011115612ecd57612ecc612dde565b5b612ed8848285612e8f565b509392505050565b600082601f830112612ef557612ef4612dd9565b5b8135612f05848260208601612e9e565b91505092915050565b612f1781612a4f565b8114612f2257600080fd5b50565b600081359050612f3481612f0e565b92915050565b60038110612f4757600080fd5b50565b600081359050612f5981612f3a565b92915050565b600080600080600080600060e0888a031215612f7e57612f7d6126b2565b5b600088013567ffffffffffffffff811115612f9c57612f9b6126b7565b5b612fa88a828b01612ee0565b975050602088013567ffffffffffffffff811115612fc957612fc86126b7565b5b612fd58a828b01612ee0565b9650506040612fe68a828b016126dd565b9550506060612ff78a828b016126dd565b94505060806130088a828b01612f25565b93505060a06130198a828b01612f4a565b92505060c061302a8a828b016126dd565b91505092959891949750929550565b600080604083850312156130505761304f6126b2565b5b600061305e858286016126dd565b925050602083013567ffffffffffffffff81111561307f5761307e6126b7565b5b61308b85828601612ee0565b9150509250929050565b60006040820190506130aa6000830185612764565b6130b76020830184612803565b9392505050565b60006020820190506130d36000830184612764565b92915050565b7f4e487b7100000000000000000000000000000000000000000000000000000000600052602260045260246000fd5b6000600282049050600182168061312057607f821691505b602082108103613133576131326130d9565b5b50919050565b7f43616d706169676e20646f6573206e6f74206578697374000000000000000000600082015250565b600061316f60178361277e565b915061317a82613139565b602082019050919050565b6000602082019050818103600083015261319e81613162565b9050919050565b7f4f6e6c79207468652063616d706169676e206f776e65722063616e207769746860008201527f647261772066756e647300000000000000000000000000000000000000000000602082015250565b6000613201602a8361277e565b915061320c826131a5565b604082019050919050565b60006020820190508181036000830152613230816131f4565b9050919050565b7f43616e6e6f74207769746864726177206265666f726520646561646c696e652060008201527f756e6c65737320746172676574206973206d6574000000000000000000000000602082015250565b600061329360348361277e565b915061329e82613237565b604082019050919050565b600060208201905081810360008301526132c281613286565b9050919050565b7f46756e6473206861766520616c7265616479206265656e20776974686472617760008201527f6e00000000000000000000000000000000000000000000000000000000000000602082015250565b600061332560218361277e565b9150613330826132c9565b604082019050919050565b6000602082019050818103600083015261335481613318565b9050919050565b7f4e6f2066756e647320746f207769746864726177000000000000000000000000600082015250565b600061339160148361277e565b915061339c8261335b565b602082019050919050565b600060208201905081810360008301526133c081613384565b9050919050565b600081905092915050565b50565b60006133e26000836133c7565b91506133ed826133d2565b600082019050919050565b6000613403826133d5565b9150819050919050565b7f4661696c656420746f2073656e64204574686572000000000000000000000000600082015250565b600061344360148361277e565b915061344e8261340d565b602082019050919050565b6000602082019050818103600083015261347281613436565b9050919050565b7f4e487b7100000000000000000000000000000000000000000000000000000000600052603260045260246000fd5b7f43616d706169676e2068617320656e6465640000000000000000000000000000600082015250565b60006134de60128361277e565b91506134e9826134a8565b602082019050919050565b6000602082019050818103600083015261350d816134d1565b9050919050565b7f43616d706169676e20646561646c696e65206861732070617373656400000000600082015250565b600061354a601c8361277e565b915061355582613514565b602082019050919050565b600060208201905081810360008301526135798161353d565b9050919050565b7f4e487b7100000000000000000000000000000000000000000000000000000000600052601160045260246000fd5b60006135ba826126bc565b91506135c5836126bc565b92508282019050808211156135dd576135dc613580565b5b92915050565b600081905092915050565b7f446f6e6174696f6e206f66200000000000000000000000000000000000000000600082015250565b6000613624600c836135e3565b915061362f826135ee565b600c82019050919050565b600061364582612773565b61364f81856135e3565b935061365f81856020860161278f565b80840191505092915050565b7f20776569206d6164650000000000000000000000000000000000000000000000600082015250565b60006136a16009836135e3565b91506136ac8261366b565b600982019050919050565b60006136c282613617565b91506136ce828461363a565b91506136d982613694565b915081905092915050565b7f4f6e6c79207468652063616d706169676e206f776e65722063616e207061792060008201527f7265776172647300000000000000000000000000000000000000000000000000602082015250565b600061374060278361277e565b915061374b826136e4565b604082019050919050565b6000602082019050818103600083015261376f81613733565b9050919050565b7f54686973206973206e6f742061207265776172642d62617365642063616d706160008201527f69676e0000000000000000000000000000000000000000000000000000000000602082015250565b60006137d260238361277e565b91506137dd82613776565b604082019050919050565b60006020820190508181036000830152613801816137c5565b9050919050565b7f54686973206164647265737320686173206e6f7420646f6e6174656420746f2060008201527f7468652063616d706169676e0000000000000000000000000000000000000000602082015250565b6000613864602c8361277e565b915061386f82613808565b604082019050919050565b6000602082019050818103600083015261389381613857565b9050919050565b60006138a5826126bc565b91506138b0836126bc565b92508282026138be816126bc565b915082820484148315176138d5576138d4613580565b5b5092915050565b7f4e487b7100000000000000000000000000000000000000000000000000000000600052601260045260246000fd5b6000613916826126bc565b9150613921836126bc565b925082613931576139306138dc565b5b828204905092915050565b7f496e73756666696369656e742072657761726420616d6f756e74000000000000600082015250565b6000613972601a8361277e565b915061397d8261393c565b602082019050919050565b600060208201905081810360008301526139a181613965565b9050919050565b7f5469746c652063616e6e6f7420626520656d7074790000000000000000000000600082015250565b60006139de60158361277e565b91506139e9826139a8565b602082019050919050565b60006020820190508181036000830152613a0d816139d1565b9050919050565b7f4465736372697074696f6e2063616e6e6f7420626520656d7074790000000000600082015250565b6000613a4a601b8361277e565b9150613a5582613a14565b602082019050919050565b60006020820190508181036000830152613a7981613a3d565b9050919050565b7f54617267657420616d6f756e74206d757374206265206772656174657220746860008201527f616e203000000000000000000000000000000000000000000000000000000000602082015250565b6000613adc60248361277e565b9150613ae782613a80565b604082019050919050565b60006020820190508181036000830152613b0b81613acf565b9050919050565b7f446561646c696e65206d75737420626520696e20746865206675747572650000600082015250565b6000613b48601e8361277e565b9150613b5382613b12565b602082019050919050565b60006020820190508181036000830152613b7781613b3b565b9050919050565b7f496e76616c69642063617465676f727900000000000000000000000000000000600082015250565b6000613bb460108361277e565b9150613bbf82613b7e565b602082019050919050565b60006020820190508181036000830152613be381613ba7565b9050919050565b7f496e76616c6964207265776172642070657263656e7461676500000000000000600082015250565b6000613c2060198361277e565b9150613c2b82613bea565b602082019050919050565b60006020820190508181036000830152613c4f81613c13565b9050919050565b7f5265776172642070657263656e746167652073686f756c64206265203020666f60008201527f72206e6f6e2d7265776172642063616d706169676e7300000000000000000000602082015250565b6000613cb260368361277e565b9150613cbd82613c56565b604082019050919050565b60006020820190508181036000830152613ce181613ca5565b9050919050565b60008190508160005260206000209050919050565b60006020601f8301049050919050565b600082821b905092915050565b600060088302613d4a7fffffffffffffffffffffffffffffffffffffffffffffffffffffffffffffffff82613d0d565b613d548683613d0d565b95508019841693508086168417925050509392505050565b6000819050919050565b6000613d91613d8c613d87846126bc565b613d6c565b6126bc565b9050919050565b6000819050919050565b613dab83613d76565b613dbf613db782613d98565b848454613d1a565b825550505050565b600090565b613dd4613dc7565b613ddf818484613da2565b505050565b5b81811015613e0357613df8600082613dcc565b600181019050613de5565b5050565b601f821115613e4857613e1981613ce8565b613e2284613cfd565b81016020851015613e31578190505b613e45613e3d85613cfd565b830182613de4565b50505b505050565b600082821c905092915050565b6000613e6b60001984600802613e4d565b1980831691505092915050565b6000613e848383613e5a565b9150826002028217905092915050565b613e9d82612773565b67ffffffffffffffff811115613eb657613eb5612de3565b5b613ec08254613108565b613ecb828285613e07565b600060209050601f831160018114613efe5760008415613eec578287015190505b613ef68582613e78565b865550613f5e565b601f198416613f0c86613ce8565b60005b82811015613f3457848901518255600182019150602085019450602081019050613f0f565b86831015613f515784890151613f4d601f891682613e5a565b8355505b6001600288020188555050505b505050505050565b6000613f71826126bc565b91507fffffffffffffffffffffffffffffffffffffffffffffffffffffffffffffffff8203613fa357613fa2613580565b5b600182019050919050565b600060a0820190508181036000830152613fc881886127ca565b9050613fd76020830187612803565b613fe46040830186612803565b613ff16060830185612a5c565b613ffe6080830184612ad3565b9695505050505050565b7f4f6e6c7920746865206f776e6572206f7220646f6e6f72732063616e2061646460008201527f20666565646261636b0000000000000000000000000000000000000000000000602082015250565b600061406460298361277e565b915061406f82614008565b604082019050919050565b6000602082019050818103600083015261409381614057565b9050919050565b600060208201905081810360008301526140b481846127ca565b905092915050565b7f4f6e6c79207468652063616d706169676e206f776e65722063616e207265706160008201527f79206c6f616e7300000000000000000000000000000000000000000000000000602082015250565b600061411860278361277e565b9150614123826140bc565b604082019050919050565b600060208201905081810360008301526141478161410b565b9050919050565b7f54686973206973206e6f742061206c656e64696e672d62617365642063616d7060008201527f6169676e00000000000000000000000000000000000000000000000000000000602082015250565b60006141aa60248361277e565b91506141b58261414e565b604082019050919050565b600060208201905081810360008301526141d98161419d565b9050919050565b7f54686973206164647265737320686173206e6f74206c656e7420746f2074686560008201527f2063616d706169676e0000000000000000000000000000000000000000000000602082015250565b600061423c60298361277e565b9150614247826141e0565b604082019050919050565b6000602082019050818103600083015261426b8161422f565b9050919050565b7f496e73756666696369656e742072657061796d656e7420616d6f756e74000000600082015250565b60006142a8601d8361277e565b91506142b382614272565b602082019050919050565b600060208201905081810360008301526142d78161429b565b9050919050565b7f446f6e6f7220696e646578206f7574206f6620626f756e647300000000000000600082015250565b600061431460198361277e565b915061431f826142de565b602082019050919050565b6000602082019050818103600083015261434381614307565b9050919050565b6000614355826126bc565b9150614360836126bc565b9250826143705761436f6138dc565b5b828206905092915050565b6000614386826126bc565b91506000820361439957614398613580565b5b60018203905091905056fea2646970667358221220defab120968392b90c5ffbde0375aea70f5d8a240f1bae444e64403f72e51b4864736f6c63430008180033",
  "linkReferences": {},
  "deployedLinkReferences": {}
}