{
  "_format": "hh-sol-artifact-1",
  "contractName": "Crowdfunding",
  "sourceName": "contracts/Crowdfunding.sol",
  "abi": [
    {
      "anonymous": false,
      "inputs": [
        {
          "indexed": true,
          "internalType": "uint256",
          "name": "campaignId",
          "type": "uint256"
        },
        {
          "indexed": true,
          "internalType": "address",
          "name": "owner",
          "type": "address"
        },
        {
          "indexed": false,
          "internalType": "string",
          "name": "title",
          "type": "string"
        },
        {
          "indexed": false,
          "internalType": "uint256",
          "name": "target",
          "type": "uint256"
        },
        {
          "indexed": false,
          "internalType": "uint256",
          "name": "deadline",
          "type": "uint256"
        },
        {
          "indexed": false,
          "internalType": "uint8",
          "name": "category",
          "type": "uint8"
        }
      ],
      "name": "CampaignCreated",
      "type": "event"
    },
    {
      "anonymous": false,
      "inputs": [
        {
          "indexed": true,
          "internalType": "uint256",
          "name": "campaignId",
          "type": "uint256"
        },
        {
          "indexed": false,
          "internalType": "bool",
          "name": "goalReached",
          "type": "bool"
        }
      ],
      "name": "CampaignEnded",
      "type": "event"
    },
    {
      "anonymous": false,
      "inputs": [
        {
          "indexed": true,
          "internalType": "uint256",
          "name": "campaignId",
          "type": "uint256"
        },
        {
          "indexed": true,
          "internalType": "address",
          "name": "donor",
          "type": "address"
        },
        {
          "indexed": false,
          "internalType": "uint256",
          "name": "amount",
          "type": "uint256"
        }
      ],
      "name": "DonationMade",
      "type": "event"
    },
    {
      "anonymous": false,
      "inputs": [
        {
          "indexed": true,
          "internalType": "uint256",
          "name": "campaignId",
          "type": "uint256"
        },
        {
          "indexed": true,
          "internalType": "address",
          "name": "owner",
          "type": "address"
        },
        {
          "indexed": false,
          "internalType": "uint256",
          "name": "amount",
          "type": "uint256"
        }
      ],
      "name": "Withdrawal",
      "type": "event"
    },
    {
      "inputs": [
        {
          "internalType": "uint256",
          "name": "",
          "type": "uint256"
        }
      ],
      "name": "campaigns",
      "outputs": [
        {
          "internalType": "address",
          "name": "owner",
          "type": "address"
        },
        {
          "internalType": "string",
          "name": "title",
          "type": "string"
        },
        {
          "internalType": "string",
          "name": "description",
          "type": "string"
        },
        {
          "internalType": "uint256",
          "name": "target",
          "type": "uint256"
        },
        {
          "internalType": "uint256",
          "name": "deadline",
          "type": "uint256"
        },
        {
          "internalType": "uint256",
          "name": "amountCollected",
          "type": "uint256"
        },
        {
          "internalType": "bool",
          "name": "ended",
          "type": "bool"
        },
        {
          "internalType": "bool",
          "name": "fundsWithdrawn",
          "type": "bool"
        },
        {
          "internalType": "uint8",
          "name": "category",
          "type": "uint8"
        }
      ],
      "stateMutability": "view",
      "type": "function"
    },
    {
      "inputs": [
        {
          "internalType": "string",
          "name": "_title",
          "type": "string"
        },
        {
          "internalType": "string",
          "name": "_description",
          "type": "string"
        },
        {
          "internalType": "uint256",
          "name": "_target",
          "type": "uint256"
        },
        {
          "internalType": "uint256",
          "name": "_deadline",
          "type": "uint256"
        },
        {
          "internalType": "uint8",
          "name": "_category",
          "type": "uint8"
        }
      ],
      "name": "createCampaign",
      "outputs": [
        {
          "internalType": "uint256",
          "name": "",
          "type": "uint256"
        }
      ],
      "stateMutability": "nonpayable",
      "type": "function"
    },
    {
      "inputs": [
        {
          "internalType": "uint256",
          "name": "_id",
          "type": "uint256"
        }
      ],
      "name": "donateToCampaign",
      "outputs": [],
      "stateMutability": "payable",
      "type": "function"
    },
    {
      "inputs": [
        {
          "internalType": "uint256",
          "name": "_id",
          "type": "uint256"
        }
      ],
      "name": "getCampaignDetails",
      "outputs": [
        {
          "internalType": "address",
          "name": "owner",
          "type": "address"
        },
        {
          "internalType": "string",
          "name": "title",
          "type": "string"
        },
        {
          "internalType": "string",
          "name": "description",
          "type": "string"
        },
        {
          "internalType": "uint256",
          "name": "target",
          "type": "uint256"
        },
        {
          "internalType": "uint256",
          "name": "deadline",
          "type": "uint256"
        },
        {
          "internalType": "uint256",
          "name": "amountCollected",
          "type": "uint256"
        },
        {
          "internalType": "bool",
          "name": "ended",
          "type": "bool"
        },
        {
          "internalType": "bool",
          "name": "fundsWithdrawn",
          "type": "bool"
        },
        {
          "internalType": "uint8",
          "name": "category",
          "type": "uint8"
        }
      ],
      "stateMutability": "view",
      "type": "function"
    },
    {
      "inputs": [
        {
          "internalType": "uint256",
          "name": "_id",
          "type": "uint256"
        }
      ],
      "name": "getCampaignDonors",
      "outputs": [
        {
          "internalType": "address[]",
          "name": "",
          "type": "address[]"
        }
      ],
      "stateMutability": "view",
      "type": "function"
    },
    {
      "inputs": [
        {
          "internalType": "uint256",
          "name": "_id",
          "type": "uint256"
        },
        {
          "internalType": "address",
          "name": "_donor",
          "type": "address"
        }
      ],
      "name": "getDonationAmount",
      "outputs": [
        {
          "internalType": "uint256",
          "name": "",
          "type": "uint256"
        }
      ],
      "stateMutability": "view",
      "type": "function"
    },
    {
      "inputs": [
        {
          "internalType": "uint256",
          "name": "_id",
          "type": "uint256"
        }
      ],
      "name": "getDonorCount",
      "outputs": [
        {
          "internalType": "uint256",
          "name": "",
          "type": "uint256"
        }
      ],
      "stateMutability": "view",
      "type": "function"
    },
    {
      "inputs": [
        {
          "internalType": "uint256",
          "name": "_id",
          "type": "uint256"
        },
        {
          "internalType": "uint256",
          "name": "_index",
          "type": "uint256"
        }
      ],
      "name": "getDonorDetails",
      "outputs": [
        {
          "internalType": "address",
          "name": "donor",
          "type": "address"
        },
        {
          "internalType": "uint256",
          "name": "amount",
          "type": "uint256"
        }
      ],
      "stateMutability": "view",
      "type": "function"
    },
    {
      "inputs": [
        {
          "internalType": "uint256",
          "name": "_id",
          "type": "uint256"
        }
      ],
      "name": "isCampaignEnded",
      "outputs": [
        {
          "internalType": "bool",
          "name": "",
          "type": "bool"
        }
      ],
      "stateMutability": "view",
      "type": "function"
    },
    {
      "inputs": [],
      "name": "numberOfCampaigns",
      "outputs": [
        {
          "internalType": "uint256",
          "name": "",
          "type": "uint256"
        }
      ],
      "stateMutability": "view",
      "type": "function"
    },
    {
      "inputs": [
        {
          "internalType": "uint256",
          "name": "_id",
          "type": "uint256"
        }
      ],
      "name": "withdrawFunds",
      "outputs": [],
      "stateMutability": "nonpayable",
      "type": "function"
    }
  ],
  "bytecode": "0x6080604052600060015534801561001557600080fd5b506124c4806100256000396000f3fe60806040526004361061009c5760003560e01c80635943c705116100645780635943c705146101935780636fad502b146101d0578063927110ba1461020d578063d993de621461024b578063deaacc1414610290578063e43826d8146102cd5761009c565b806307ca140d146100a1578063141961bc146100cc578063155dd5ee14610111578063209b7d5f1461013a57806342a4fda814610177575b600080fd5b3480156100ad57600080fd5b506100b661030a565b6040516100c391906113b5565b60405180910390f35b3480156100d857600080fd5b506100f360048036038101906100ee9190611410565b610310565b60405161010899989796959493929190611545565b60405180910390f35b34801561011d57600080fd5b5061013860048036038101906101339190611410565b6104b5565b005b34801561014657600080fd5b50610161600480360381019061015c9190611410565b6107fe565b60405161016e919061169e565b60405180910390f35b610191600480360381019061018c9190611410565b6108e5565b005b34801561019f57600080fd5b506101ba60048036038101906101b59190611410565b610b66565b6040516101c791906113b5565b60405180910390f35b3480156101dc57600080fd5b506101f760048036038101906101f29190611410565b610bcc565b60405161020491906116c0565b60405180910390f35b34801561021957600080fd5b50610234600480360381019061022f91906116db565b610c63565b60405161024292919061171b565b60405180910390f35b34801561025757600080fd5b50610272600480360381019061026d9190611410565b610da9565b60405161028799989796959493929190611545565b60405180910390f35b34801561029c57600080fd5b506102b760048036038101906102b291906118a5565b610fbb565b6040516102c491906113b5565b60405180910390f35b3480156102d957600080fd5b506102f460048036038101906102ef9190611984565b611281565b60405161030191906113b5565b60405180910390f35b60015481565b60006020528060005260406000206000915090508060000160009054906101000a900473ffffffffffffffffffffffffffffffffffffffff1690806001018054610359906119f3565b80601f0160208091040260200160405190810160405280929190818152602001828054610385906119f3565b80156103d25780601f106103a7576101008083540402835291602001916103d2565b820191906000526020600020905b8154815290600101906020018083116103b557829003601f168201915b5050505050908060020180546103e7906119f3565b80601f0160208091040260200160405190810160405280929190818152602001828054610413906119f3565b80156104605780601f1061043557610100808354040283529160200191610460565b820191906000526020600020905b81548152906001019060200180831161044357829003601f168201915b5050505050908060030154908060040154908060050154908060060160009054906101000a900460ff16908060060160019054906101000a900460ff16908060060160029054906101000a900460ff16905089565b600080600083815260200190815260200160002090508060000160009054906101000a900473ffffffffffffffffffffffffffffffffffffffff1673ffffffffffffffffffffffffffffffffffffffff163373ffffffffffffffffffffffffffffffffffffffff161461055d576040517f08c379a000000000000000000000000000000000000000000000000000000000815260040161055490611a96565b60405180910390fd5b8060060160009054906101000a900460ff168061057d5750806004015442115b8061059057508060030154816005015410155b6105cf576040517f08c379a00000000000000000000000000000000000000000000000000000000081526004016105c690611b28565b60405180910390fd5b8060060160019054906101000a900460ff1615610621576040517f08c379a000000000000000000000000000000000000000000000000000000000815260040161061890611bba565b60405180910390fd5b6000816005015411610668576040517f08c379a000000000000000000000000000000000000000000000000000000000815260040161065f90611c26565b60405180910390fd5b6000816005015490506000826005018190555060018260060160016101000a81548160ff02191690831515021790555060018260060160006101000a81548160ff02191690831515021790555060008260000160009054906101000a900473ffffffffffffffffffffffffffffffffffffffff1673ffffffffffffffffffffffffffffffffffffffff16826040516106ff90611c77565b60006040518083038185875af1925050503d806000811461073c576040519150601f19603f3d011682016040523d82523d6000602084013e610741565b606091505b5050905080610785576040517f08c379a000000000000000000000000000000000000000000000000000000000815260040161077c90611cd8565b60405180910390fd5b8260000160009054906101000a900473ffffffffffffffffffffffffffffffffffffffff1673ffffffffffffffffffffffffffffffffffffffff16847f37e8063b72a944a76de602f32b82fd8c2a1c6f99564c727ffaf913c7762cd420846040516107f091906113b5565b60405180910390a350505050565b60606001548210610844576040517f08c379a000000000000000000000000000000000000000000000000000000000815260040161083b90611d44565b60405180910390fd5b6000808381526020019081526020016000206008018054806020026020016040519081016040528092919081815260200182805480156108d957602002820191906000526020600020905b8160009054906101000a900473ffffffffffffffffffffffffffffffffffffffff1673ffffffffffffffffffffffffffffffffffffffff168152602001906001019080831161088f575b50505050509050919050565b6001548110610929576040517f08c379a000000000000000000000000000000000000000000000000000000000815260040161092090611d44565b60405180910390fd5b6000806000838152602001908152602001600020905060008160070160003373ffffffffffffffffffffffffffffffffffffffff1673ffffffffffffffffffffffffffffffffffffffff16815260200190815260200160002054036109ee5780600801339080600181540180825580915050600190039060005260206000200160009091909190916101000a81548173ffffffffffffffffffffffffffffffffffffffff021916908373ffffffffffffffffffffffffffffffffffffffff1602179055505b8060060160009054906101000a900460ff1615610a40576040517f08c379a0000000000000000000000000000000000000000000000000000000008152600401610a3790611db0565b60405180910390fd5b8060040154421115610a87576040517f08c379a0000000000000000000000000000000000000000000000000000000008152600401610a7e90611e1c565b60405180910390fd5b348160070160003373ffffffffffffffffffffffffffffffffffffffff1673ffffffffffffffffffffffffffffffffffffffff1681526020019081526020016000206000828254610ad89190611e6b565b9250508190555034816005016000828254610af39190611e6b565b925050819055503373ffffffffffffffffffffffffffffffffffffffff16827fe555da28bdb778f65d22794d88927ebaeca03f7de9d1b7d39245bc8fb5ca078a34604051610b4191906113b5565b60405180910390a38060030154816005015410610b6257610b6182611322565b5b5050565b60006001548210610bac576040517f08c379a0000000000000000000000000000000000000000000000000000000008152600401610ba390611d44565b60405180910390fd5b600080838152602001908152602001600020600801805490509050919050565b60006001548210610c12576040517f08c379a0000000000000000000000000000000000000000000000000000000008152600401610c0990611d44565b60405180910390fd5b600080600084815260200190815260200160002090508060060160009054906101000a900460ff1680610c485750806004015442115b80610c5b57508060030154816005015410155b915050919050565b6000806001548410610caa576040517f08c379a0000000000000000000000000000000000000000000000000000000008152600401610ca190611d44565b60405180910390fd5b600080858152602001908152602001600020600801805490508310610d04576040517f08c379a0000000000000000000000000000000000000000000000000000000008152600401610cfb90611eeb565b60405180910390fd5b60008060008681526020019081526020016000209050806008018481548110610d3057610d2f611f0b565b5b9060005260206000200160009054906101000a900473ffffffffffffffffffffffffffffffffffffffff1692508060070160008473ffffffffffffffffffffffffffffffffffffffff1673ffffffffffffffffffffffffffffffffffffffff168152602001908152602001600020549150509250929050565b60006060806000806000806000806001548a10610dfb576040517f08c379a0000000000000000000000000000000000000000000000000000000008152600401610df290611d44565b60405180910390fd5b60008060008c815260200190815260200160002090508060000160009054906101000a900473ffffffffffffffffffffffffffffffffffffffff1681600101826002018360030154846004015485600501548660060160009054906101000a900460ff168760060160019054906101000a900460ff168860060160029054906101000a900460ff16878054610e8f906119f3565b80601f0160208091040260200160405190810160405280929190818152602001828054610ebb906119f3565b8015610f085780601f10610edd57610100808354040283529160200191610f08565b820191906000526020600020905b815481529060010190602001808311610eeb57829003601f168201915b50505050509750868054610f1b906119f3565b80601f0160208091040260200160405190810160405280929190818152602001828054610f47906119f3565b8015610f945780601f10610f6957610100808354040283529160200191610f94565b820191906000526020600020905b815481529060010190602001808311610f7757829003601f168201915b50505050509650995099509950995099509950995099509950509193959799909294969850565b600080865111611000576040517f08c379a0000000000000000000000000000000000000000000000000000000008152600401610ff790611f86565b60405180910390fd5b6000855111611044576040517f08c379a000000000000000000000000000000000000000000000000000000000815260040161103b90611ff2565b60405180910390fd5b60008411611087576040517f08c379a000000000000000000000000000000000000000000000000000000000815260040161107e90612084565b60405180910390fd5b4283116110c9576040517f08c379a00000000000000000000000000000000000000000000000000000000081526004016110c0906120f0565b60405180910390fd5b600a8260ff161061110f576040517f08c379a00000000000000000000000000000000000000000000000000000000081526004016111069061215c565b60405180910390fd5b6000600154905060008060008381526020019081526020016000209050338160000160006101000a81548173ffffffffffffffffffffffffffffffffffffffff021916908373ffffffffffffffffffffffffffffffffffffffff160217905550878160010190816111809190612328565b50868160020190816111929190612328565b508581600301819055508481600401819055506000816005018190555060008160060160006101000a81548160ff02191690831515021790555060008160060160016101000a81548160ff021916908315150217905550838160060160026101000a81548160ff021916908360ff16021790555060016000815480929190611219906123fa565b91905055503373ffffffffffffffffffffffffffffffffffffffff16827fedf7acc766086eb7115234d49cc6c7dc174ac9db5fac309cde9fa65a8fd516bc8a89898960405161126b9493929190612442565b60405180910390a3819250505095945050505050565b600060015483106112c7576040517f08c379a00000000000000000000000000000000000000000000000000000000081526004016112be90611d44565b60405180910390fd5b60008084815260200190815260200160002060070160008373ffffffffffffffffffffffffffffffffffffffff1673ffffffffffffffffffffffffffffffffffffffff16815260200190815260200160002054905092915050565b6000806000838152602001908152602001600020905060018160060160006101000a81548160ff021916908315150217905550817f75d9b4c220529dda63dce075aa4c186e8f24151ecc185e707577fbfb5ab5b37382600301548360050154101560405161139091906116c0565b60405180910390a25050565b6000819050919050565b6113af8161139c565b82525050565b60006020820190506113ca60008301846113a6565b92915050565b6000604051905090565b600080fd5b600080fd5b6113ed8161139c565b81146113f857600080fd5b50565b60008135905061140a816113e4565b92915050565b600060208284031215611426576114256113da565b5b6000611434848285016113fb565b91505092915050565b600073ffffffffffffffffffffffffffffffffffffffff82169050919050565b60006114688261143d565b9050919050565b6114788161145d565b82525050565b600081519050919050565b600082825260208201905092915050565b60005b838110156114b857808201518184015260208101905061149d565b60008484015250505050565b6000601f19601f8301169050919050565b60006114e08261147e565b6114ea8185611489565b93506114fa81856020860161149a565b611503816114c4565b840191505092915050565b60008115159050919050565b6115238161150e565b82525050565b600060ff82169050919050565b61153f81611529565b82525050565b60006101208201905061155b600083018c61146f565b818103602083015261156d818b6114d5565b90508181036040830152611581818a6114d5565b905061159060608301896113a6565b61159d60808301886113a6565b6115aa60a08301876113a6565b6115b760c083018661151a565b6115c460e083018561151a565b6115d2610100830184611536565b9a9950505050505050505050565b600081519050919050565b600082825260208201905092915050565b6000819050602082019050919050565b6116158161145d565b82525050565b6000611627838361160c565b60208301905092915050565b6000602082019050919050565b600061164b826115e0565b61165581856115eb565b9350611660836115fc565b8060005b83811015611691578151611678888261161b565b975061168383611633565b925050600181019050611664565b5085935050505092915050565b600060208201905081810360008301526116b88184611640565b905092915050565b60006020820190506116d5600083018461151a565b92915050565b600080604083850312156116f2576116f16113da565b5b6000611700858286016113fb565b9250506020611711858286016113fb565b9150509250929050565b6000604082019050611730600083018561146f565b61173d60208301846113a6565b9392505050565b600080fd5b600080fd5b7f4e487b7100000000000000000000000000000000000000000000000000000000600052604160045260246000fd5b611786826114c4565b810181811067ffffffffffffffff821117156117a5576117a461174e565b5b80604052505050565b60006117b86113d0565b90506117c4828261177d565b919050565b600067ffffffffffffffff8211156117e4576117e361174e565b5b6117ed826114c4565b9050602081019050919050565b82818337600083830152505050565b600061181c611817846117c9565b6117ae565b90508281526020810184848401111561183857611837611749565b5b6118438482856117fa565b509392505050565b600082601f8301126118605761185f611744565b5b8135611870848260208601611809565b91505092915050565b61188281611529565b811461188d57600080fd5b50565b60008135905061189f81611879565b92915050565b600080600080600060a086880312156118c1576118c06113da565b5b600086013567ffffffffffffffff8111156118df576118de6113df565b5b6118eb8882890161184b565b955050602086013567ffffffffffffffff81111561190c5761190b6113df565b5b6119188882890161184b565b9450506040611929888289016113fb565b935050606061193a888289016113fb565b925050608061194b88828901611890565b9150509295509295909350565b6119618161145d565b811461196c57600080fd5b50565b60008135905061197e81611958565b92915050565b6000806040838503121561199b5761199a6113da565b5b60006119a9858286016113fb565b92505060206119ba8582860161196f565b9150509250929050565b7f4e487b7100000000000000000000000000000000000000000000000000000000600052602260045260246000fd5b60006002820490506001821680611a0b57607f821691505b602082108103611a1e57611a1d6119c4565b5b50919050565b7f4f6e6c79207468652063616d706169676e206f776e65722063616e207769746860008201527f647261772066756e647300000000000000000000000000000000000000000000602082015250565b6000611a80602a83611489565b9150611a8b82611a24565b604082019050919050565b60006020820190508181036000830152611aaf81611a73565b9050919050565b7f43616e6e6f74207769746864726177206265666f726520646561646c696e652060008201527f756e6c65737320746172676574206973206d6574000000000000000000000000602082015250565b6000611b12603483611489565b9150611b1d82611ab6565b604082019050919050565b60006020820190508181036000830152611b4181611b05565b9050919050565b7f46756e6473206861766520616c7265616479206265656e20776974686472617760008201527f6e00000000000000000000000000000000000000000000000000000000000000602082015250565b6000611ba4602183611489565b9150611baf82611b48565b604082019050919050565b60006020820190508181036000830152611bd381611b97565b9050919050565b7f4e6f2066756e647320746f207769746864726177000000000000000000000000600082015250565b6000611c10601483611489565b9150611c1b82611bda565b602082019050919050565b60006020820190508181036000830152611c3f81611c03565b9050919050565b600081905092915050565b50565b6000611c61600083611c46565b9150611c6c82611c51565b600082019050919050565b6000611c8282611c54565b9150819050919050565b7f4661696c656420746f2073656e64204574686572000000000000000000000000600082015250565b6000611cc2601483611489565b9150611ccd82611c8c565b602082019050919050565b60006020820190508181036000830152611cf181611cb5565b9050919050565b7f43616d706169676e20646f6573206e6f74206578697374000000000000000000600082015250565b6000611d2e601783611489565b9150611d3982611cf8565b602082019050919050565b60006020820190508181036000830152611d5d81611d21565b9050919050565b7f43616d706169676e2068617320656e6465640000000000000000000000000000600082015250565b6000611d9a601283611489565b9150611da582611d64565b602082019050919050565b60006020820190508181036000830152611dc981611d8d565b9050919050565b7f43616d706169676e20646561646c696e65206861732070617373656400000000600082015250565b6000611e06601c83611489565b9150611e1182611dd0565b602082019050919050565b60006020820190508181036000830152611e3581611df9565b9050919050565b7f4e487b7100000000000000000000000000000000000000000000000000000000600052601160045260246000fd5b6000611e768261139c565b9150611e818361139c565b9250828201905080821115611e9957611e98611e3c565b5b92915050565b7f446f6e6f7220696e646578206f7574206f6620626f756e647300000000000000600082015250565b6000611ed5601983611489565b9150611ee082611e9f565b602082019050919050565b60006020820190508181036000830152611f0481611ec8565b9050919050565b7f4e487b7100000000000000000000000000000000000000000000000000000000600052603260045260246000fd5b7f5469746c652063616e6e6f7420626520656d7074790000000000000000000000600082015250565b6000611f70601583611489565b9150611f7b82611f3a565b602082019050919050565b60006020820190508181036000830152611f9f81611f63565b9050919050565b7f4465736372697074696f6e2063616e6e6f7420626520656d7074790000000000600082015250565b6000611fdc601b83611489565b9150611fe782611fa6565b602082019050919050565b6000602082019050818103600083015261200b81611fcf565b9050919050565b7f54617267657420616d6f756e74206d757374206265206772656174657220746860008201527f616e203000000000000000000000000000000000000000000000000000000000602082015250565b600061206e602483611489565b915061207982612012565b604082019050919050565b6000602082019050818103600083015261209d81612061565b9050919050565b7f446561646c696e65206d75737420626520696e20746865206675747572650000600082015250565b60006120da601e83611489565b91506120e5826120a4565b602082019050919050565b60006020820190508181036000830152612109816120cd565b9050919050565b7f496e76616c69642063617465676f727900000000000000000000000000000000600082015250565b6000612146601083611489565b915061215182612110565b602082019050919050565b6000602082019050818103600083015261217581612139565b9050919050565b60008190508160005260206000209050919050565b60006020601f8301049050919050565b600082821b905092915050565b6000600883026121de7fffffffffffffffffffffffffffffffffffffffffffffffffffffffffffffffff826121a1565b6121e886836121a1565b95508019841693508086168417925050509392505050565b6000819050919050565b600061222561222061221b8461139c565b612200565b61139c565b9050919050565b6000819050919050565b61223f8361220a565b61225361224b8261222c565b8484546121ae565b825550505050565b600090565b61226861225b565b612273818484612236565b505050565b5b818110156122975761228c600082612260565b600181019050612279565b5050565b601f8211156122dc576122ad8161217c565b6122b684612191565b810160208510156122c5578190505b6122d96122d185612191565b830182612278565b50505b505050565b600082821c905092915050565b60006122ff600019846008026122e1565b1980831691505092915050565b600061231883836122ee565b9150826002028217905092915050565b6123318261147e565b67ffffffffffffffff81111561234a5761234961174e565b5b61235482546119f3565b61235f82828561229b565b600060209050601f8311600181146123925760008415612380578287015190505b61238a858261230c565b8655506123f2565b601f1984166123a08661217c565b60005b828110156123c8578489015182556001820191506020850194506020810190506123a3565b868310156123e557848901516123e1601f8916826122ee565b8355505b6001600288020188555050505b505050505050565b60006124058261139c565b91507fffffffffffffffffffffffffffffffffffffffffffffffffffffffffffffffff820361243757612436611e3c565b5b600182019050919050565b6000608082019050818103600083015261245c81876114d5565b905061246b60208301866113a6565b61247860408301856113a6565b6124856060830184611536565b9594505050505056fea26469706673582212209a75a689c6090d65b606ae8861abe8777f3b7fd00e745bc2910a8b6f59af2b3564736f6c63430008180033",
  "linkReferences": {},
  "deployedLinkReferences": {}
}