{
  "_format": "hh-sol-artifact-1",
  "contractName": "Crowdfunding",
  "sourceName": "contracts/Crowdfunding.sol",
  "abi": [
    {
      "anonymous": false,
      "inputs": [
        {
          "indexed": true,
          "internalType": "uint256",
          "name": "campaignId",
          "type": "uint256"
        },
        {
          "indexed": true,
          "internalType": "address",
          "name": "owner",
          "type": "address"
        },
        {
          "indexed": false,
          "internalType": "string",
          "name": "title",
          "type": "string"
        },
        {
          "indexed": false,
          "internalType": "uint256",
          "name": "target",
          "type": "uint256"
        },
        {
          "indexed": false,
          "internalType": "uint256",
          "name": "deadline",
          "type": "uint256"
        },
        {
          "indexed": false,
          "internalType": "uint8",
          "name": "category",
          "type": "uint8"
        }
      ],
      "name": "CampaignCreated",
      "type": "event"
    },
    {
      "anonymous": false,
      "inputs": [
        {
          "indexed": true,
          "internalType": "uint256",
          "name": "campaignId",
          "type": "uint256"
        },
        {
          "indexed": false,
          "internalType": "bool",
          "name": "goalReached",
          "type": "bool"
        }
      ],
      "name": "CampaignEnded",
      "type": "event"
    },
    {
      "anonymous": false,
      "inputs": [
        {
          "indexed": true,
          "internalType": "uint256",
          "name": "campaignId",
          "type": "uint256"
        },
        {
          "indexed": true,
          "internalType": "address",
          "name": "donor",
          "type": "address"
        },
        {
          "indexed": false,
          "internalType": "uint256",
          "name": "amount",
          "type": "uint256"
        }
      ],
      "name": "DonationMade",
      "type": "event"
    },
    {
      "anonymous": false,
      "inputs": [
        {
          "indexed": true,
          "internalType": "uint256",
          "name": "campaignId",
          "type": "uint256"
        },
        {
          "indexed": true,
          "internalType": "address",
          "name": "owner",
          "type": "address"
        },
        {
          "indexed": false,
          "internalType": "uint256",
          "name": "amount",
          "type": "uint256"
        }
      ],
      "name": "Withdrawal",
      "type": "event"
    },
    {
      "inputs": [
        {
          "internalType": "uint256",
          "name": "",
          "type": "uint256"
        }
      ],
      "name": "campaigns",
      "outputs": [
        {
          "internalType": "address",
          "name": "owner",
          "type": "address"
        },
        {
          "internalType": "string",
          "name": "title",
          "type": "string"
        },
        {
          "internalType": "string",
          "name": "description",
          "type": "string"
        },
        {
          "internalType": "uint256",
          "name": "target",
          "type": "uint256"
        },
        {
          "internalType": "uint256",
          "name": "deadline",
          "type": "uint256"
        },
        {
          "internalType": "uint256",
          "name": "amountCollected",
          "type": "uint256"
        },
        {
          "internalType": "bool",
          "name": "ended",
          "type": "bool"
        },
        {
          "internalType": "bool",
          "name": "fundsWithdrawn",
          "type": "bool"
        },
        {
          "internalType": "uint8",
          "name": "category",
          "type": "uint8"
        }
      ],
      "stateMutability": "view",
      "type": "function"
    },
    {
      "inputs": [
        {
          "internalType": "string",
          "name": "_title",
          "type": "string"
        },
        {
          "internalType": "string",
          "name": "_description",
          "type": "string"
        },
        {
          "internalType": "uint256",
          "name": "_target",
          "type": "uint256"
        },
        {
          "internalType": "uint256",
          "name": "_deadline",
          "type": "uint256"
        },
        {
          "internalType": "uint8",
          "name": "_category",
          "type": "uint8"
        }
      ],
      "name": "createCampaign",
      "outputs": [
        {
          "internalType": "uint256",
          "name": "",
          "type": "uint256"
        }
      ],
      "stateMutability": "nonpayable",
      "type": "function"
    },
    {
      "inputs": [
        {
          "internalType": "uint256",
          "name": "_id",
          "type": "uint256"
        }
      ],
      "name": "donateToCampaign",
      "outputs": [],
      "stateMutability": "payable",
      "type": "function"
    },
    {
      "inputs": [
        {
          "internalType": "uint256",
          "name": "_id",
          "type": "uint256"
        }
      ],
      "name": "getCampaignDetails",
      "outputs": [
        {
          "internalType": "address",
          "name": "owner",
          "type": "address"
        },
        {
          "internalType": "string",
          "name": "title",
          "type": "string"
        },
        {
          "internalType": "string",
          "name": "description",
          "type": "string"
        },
        {
          "internalType": "uint256",
          "name": "target",
          "type": "uint256"
        },
        {
          "internalType": "uint256",
          "name": "deadline",
          "type": "uint256"
        },
        {
          "internalType": "uint256",
          "name": "amountCollected",
          "type": "uint256"
        },
        {
          "internalType": "bool",
          "name": "ended",
          "type": "bool"
        },
        {
          "internalType": "bool",
          "name": "fundsWithdrawn",
          "type": "bool"
        },
        {
          "internalType": "uint8",
          "name": "category",
          "type": "uint8"
        }
      ],
      "stateMutability": "view",
      "type": "function"
    },
    {
      "inputs": [
        {
          "internalType": "uint256",
          "name": "_id",
          "type": "uint256"
        },
        {
          "internalType": "address",
          "name": "_donor",
          "type": "address"
        }
      ],
      "name": "getDonationAmount",
      "outputs": [
        {
          "internalType": "uint256",
          "name": "",
          "type": "uint256"
        }
      ],
      "stateMutability": "view",
      "type": "function"
    },
    {
      "inputs": [
        {
          "internalType": "uint256",
          "name": "_id",
          "type": "uint256"
        }
      ],
      "name": "isCampaignEnded",
      "outputs": [
        {
          "internalType": "bool",
          "name": "",
          "type": "bool"
        }
      ],
      "stateMutability": "view",
      "type": "function"
    },
    {
      "inputs": [],
      "name": "numberOfCampaigns",
      "outputs": [
        {
          "internalType": "uint256",
          "name": "",
          "type": "uint256"
        }
      ],
      "stateMutability": "view",
      "type": "function"
    },
    {
      "inputs": [
        {
          "internalType": "uint256",
          "name": "_id",
          "type": "uint256"
        }
      ],
      "name": "withdrawFunds",
      "outputs": [],
      "stateMutability": "nonpayable",
      "type": "function"
    }
  ],
  "bytecode": "0x6080604052600060015534801561001557600080fd5b50611ec5806100256000396000f3fe60806040526004361061007b5760003560e01c80636fad502b1161004e5780636fad502b14610135578063d993de6214610172578063deaacc14146101b7578063e43826d8146101f45761007b565b806307ca140d14610080578063141961bc146100ab578063155dd5ee146100f057806342a4fda814610119575b600080fd5b34801561008c57600080fd5b50610095610231565b6040516100a29190610f9a565b60405180910390f35b3480156100b757600080fd5b506100d260048036038101906100cd9190610ff5565b610237565b6040516100e79998979695949392919061112a565b60405180910390f35b3480156100fc57600080fd5b5061011760048036038101906101129190610ff5565b6103dc565b005b610133600480360381019061012e9190610ff5565b610725565b005b34801561014157600080fd5b5061015c60048036038101906101579190610ff5565b6108f7565b60405161016991906111c5565b60405180910390f35b34801561017e57600080fd5b5061019960048036038101906101949190610ff5565b61098e565b6040516101ae9998979695949392919061112a565b60405180910390f35b3480156101c357600080fd5b506101de60048036038101906101d99190611341565b610ba0565b6040516101eb9190610f9a565b60405180910390f35b34801561020057600080fd5b5061021b60048036038101906102169190611420565b610e66565b6040516102289190610f9a565b60405180910390f35b60015481565b60006020528060005260406000206000915090508060000160009054906101000a900473ffffffffffffffffffffffffffffffffffffffff16908060010180546102809061148f565b80601f01602080910402602001604051908101604052809291908181526020018280546102ac9061148f565b80156102f95780601f106102ce576101008083540402835291602001916102f9565b820191906000526020600020905b8154815290600101906020018083116102dc57829003601f168201915b50505050509080600201805461030e9061148f565b80601f016020809104026020016040519081016040528092919081815260200182805461033a9061148f565b80156103875780601f1061035c57610100808354040283529160200191610387565b820191906000526020600020905b81548152906001019060200180831161036a57829003601f168201915b5050505050908060030154908060040154908060050154908060060160009054906101000a900460ff16908060060160019054906101000a900460ff16908060060160029054906101000a900460ff16905089565b600080600083815260200190815260200160002090508060000160009054906101000a900473ffffffffffffffffffffffffffffffffffffffff1673ffffffffffffffffffffffffffffffffffffffff163373ffffffffffffffffffffffffffffffffffffffff1614610484576040517f08c379a000000000000000000000000000000000000000000000000000000000815260040161047b90611532565b60405180910390fd5b8060060160009054906101000a900460ff16806104a45750806004015442115b806104b757508060030154816005015410155b6104f6576040517f08c379a00000000000000000000000000000000000000000000000000000000081526004016104ed906115c4565b60405180910390fd5b8060060160019054906101000a900460ff1615610548576040517f08c379a000000000000000000000000000000000000000000000000000000000815260040161053f90611656565b60405180910390fd5b600081600501541161058f576040517f08c379a0000000000000000000000000000000000000000000000000000000008152600401610586906116c2565b60405180910390fd5b6000816005015490506000826005018190555060018260060160016101000a81548160ff02191690831515021790555060018260060160006101000a81548160ff02191690831515021790555060008260000160009054906101000a900473ffffffffffffffffffffffffffffffffffffffff1673ffffffffffffffffffffffffffffffffffffffff168260405161062690611713565b60006040518083038185875af1925050503d8060008114610663576040519150601f19603f3d011682016040523d82523d6000602084013e610668565b606091505b50509050806106ac576040517f08c379a00000000000000000000000000000000000000000000000000000000081526004016106a390611774565b60405180910390fd5b8260000160009054906101000a900473ffffffffffffffffffffffffffffffffffffffff1673ffffffffffffffffffffffffffffffffffffffff16847f37e8063b72a944a76de602f32b82fd8c2a1c6f99564c727ffaf913c7762cd420846040516107179190610f9a565b60405180910390a350505050565b6001548110610769576040517f08c379a0000000000000000000000000000000000000000000000000000000008152600401610760906117e0565b60405180910390fd5b600080600083815260200190815260200160002090508060060160009054906101000a900460ff16156107d1576040517f08c379a00000000000000000000000000000000000000000000000000000000081526004016107c89061184c565b60405180910390fd5b8060040154421115610818576040517f08c379a000000000000000000000000000000000000000000000000000000000815260040161080f906118b8565b60405180910390fd5b348160070160003373ffffffffffffffffffffffffffffffffffffffff1673ffffffffffffffffffffffffffffffffffffffff16815260200190815260200160002060008282546108699190611907565b92505081905550348160050160008282546108849190611907565b925050819055503373ffffffffffffffffffffffffffffffffffffffff16827fe555da28bdb778f65d22794d88927ebaeca03f7de9d1b7d39245bc8fb5ca078a346040516108d29190610f9a565b60405180910390a380600301548160050154106108f3576108f282610f07565b5b5050565b6000600154821061093d576040517f08c379a0000000000000000000000000000000000000000000000000000000008152600401610934906117e0565b60405180910390fd5b600080600084815260200190815260200160002090508060060160009054906101000a900460ff16806109735750806004015442115b8061098657508060030154816005015410155b915050919050565b60006060806000806000806000806001548a106109e0576040517f08c379a00000000000000000000000000000000000000000000000000000000081526004016109d7906117e0565b60405180910390fd5b60008060008c815260200190815260200160002090508060000160009054906101000a900473ffffffffffffffffffffffffffffffffffffffff1681600101826002018360030154846004015485600501548660060160009054906101000a900460ff168760060160019054906101000a900460ff168860060160029054906101000a900460ff16878054610a749061148f565b80601f0160208091040260200160405190810160405280929190818152602001828054610aa09061148f565b8015610aed5780601f10610ac257610100808354040283529160200191610aed565b820191906000526020600020905b815481529060010190602001808311610ad057829003601f168201915b50505050509750868054610b009061148f565b80601f0160208091040260200160405190810160405280929190818152602001828054610b2c9061148f565b8015610b795780601f10610b4e57610100808354040283529160200191610b79565b820191906000526020600020905b815481529060010190602001808311610b5c57829003601f168201915b50505050509650995099509950995099509950995099509950509193959799909294969850565b600080865111610be5576040517f08c379a0000000000000000000000000000000000000000000000000000000008152600401610bdc90611987565b60405180910390fd5b6000855111610c29576040517f08c379a0000000000000000000000000000000000000000000000000000000008152600401610c20906119f3565b60405180910390fd5b60008411610c6c576040517f08c379a0000000000000000000000000000000000000000000000000000000008152600401610c6390611a85565b60405180910390fd5b428311610cae576040517f08c379a0000000000000000000000000000000000000000000000000000000008152600401610ca590611af1565b60405180910390fd5b600a8260ff1610610cf4576040517f08c379a0000000000000000000000000000000000000000000000000000000008152600401610ceb90611b5d565b60405180910390fd5b6000600154905060008060008381526020019081526020016000209050338160000160006101000a81548173ffffffffffffffffffffffffffffffffffffffff021916908373ffffffffffffffffffffffffffffffffffffffff16021790555087816001019081610d659190611d29565b5086816002019081610d779190611d29565b508581600301819055508481600401819055506000816005018190555060008160060160006101000a81548160ff02191690831515021790555060008160060160016101000a81548160ff021916908315150217905550838160060160026101000a81548160ff021916908360ff16021790555060016000815480929190610dfe90611dfb565b91905055503373ffffffffffffffffffffffffffffffffffffffff16827fedf7acc766086eb7115234d49cc6c7dc174ac9db5fac309cde9fa65a8fd516bc8a898989604051610e509493929190611e43565b60405180910390a3819250505095945050505050565b60006001548310610eac576040517f08c379a0000000000000000000000000000000000000000000000000000000008152600401610ea3906117e0565b60405180910390fd5b60008084815260200190815260200160002060070160008373ffffffffffffffffffffffffffffffffffffffff1673ffffffffffffffffffffffffffffffffffffffff16815260200190815260200160002054905092915050565b6000806000838152602001908152602001600020905060018160060160006101000a81548160ff021916908315150217905550817f75d9b4c220529dda63dce075aa4c186e8f24151ecc185e707577fbfb5ab5b373826003015483600501541015604051610f7591906111c5565b60405180910390a25050565b6000819050919050565b610f9481610f81565b82525050565b6000602082019050610faf6000830184610f8b565b92915050565b6000604051905090565b600080fd5b600080fd5b610fd281610f81565b8114610fdd57600080fd5b50565b600081359050610fef81610fc9565b92915050565b60006020828403121561100b5761100a610fbf565b5b600061101984828501610fe0565b91505092915050565b600073ffffffffffffffffffffffffffffffffffffffff82169050919050565b600061104d82611022565b9050919050565b61105d81611042565b82525050565b600081519050919050565b600082825260208201905092915050565b60005b8381101561109d578082015181840152602081019050611082565b60008484015250505050565b6000601f19601f8301169050919050565b60006110c582611063565b6110cf818561106e565b93506110df81856020860161107f565b6110e8816110a9565b840191505092915050565b60008115159050919050565b611108816110f3565b82525050565b600060ff82169050919050565b6111248161110e565b82525050565b600061012082019050611140600083018c611054565b8181036020830152611152818b6110ba565b90508181036040830152611166818a6110ba565b90506111756060830189610f8b565b6111826080830188610f8b565b61118f60a0830187610f8b565b61119c60c08301866110ff565b6111a960e08301856110ff565b6111b761010083018461111b565b9a9950505050505050505050565b60006020820190506111da60008301846110ff565b92915050565b600080fd5b600080fd5b7f4e487b7100000000000000000000000000000000000000000000000000000000600052604160045260246000fd5b611222826110a9565b810181811067ffffffffffffffff82111715611241576112406111ea565b5b80604052505050565b6000611254610fb5565b90506112608282611219565b919050565b600067ffffffffffffffff8211156112805761127f6111ea565b5b611289826110a9565b9050602081019050919050565b82818337600083830152505050565b60006112b86112b384611265565b61124a565b9050828152602081018484840111156112d4576112d36111e5565b5b6112df848285611296565b509392505050565b600082601f8301126112fc576112fb6111e0565b5b813561130c8482602086016112a5565b91505092915050565b61131e8161110e565b811461132957600080fd5b50565b60008135905061133b81611315565b92915050565b600080600080600060a0868803121561135d5761135c610fbf565b5b600086013567ffffffffffffffff81111561137b5761137a610fc4565b5b611387888289016112e7565b955050602086013567ffffffffffffffff8111156113a8576113a7610fc4565b5b6113b4888289016112e7565b94505060406113c588828901610fe0565b93505060606113d688828901610fe0565b92505060806113e78882890161132c565b9150509295509295909350565b6113fd81611042565b811461140857600080fd5b50565b60008135905061141a816113f4565b92915050565b6000806040838503121561143757611436610fbf565b5b600061144585828601610fe0565b92505060206114568582860161140b565b9150509250929050565b7f4e487b7100000000000000000000000000000000000000000000000000000000600052602260045260246000fd5b600060028204905060018216806114a757607f821691505b6020821081036114ba576114b9611460565b5b50919050565b7f4f6e6c79207468652063616d706169676e206f776e65722063616e207769746860008201527f647261772066756e647300000000000000000000000000000000000000000000602082015250565b600061151c602a8361106e565b9150611527826114c0565b604082019050919050565b6000602082019050818103600083015261154b8161150f565b9050919050565b7f43616e6e6f74207769746864726177206265666f726520646561646c696e652060008201527f756e6c65737320746172676574206973206d6574000000000000000000000000602082015250565b60006115ae60348361106e565b91506115b982611552565b604082019050919050565b600060208201905081810360008301526115dd816115a1565b9050919050565b7f46756e6473206861766520616c7265616479206265656e20776974686472617760008201527f6e00000000000000000000000000000000000000000000000000000000000000602082015250565b600061164060218361106e565b915061164b826115e4565b604082019050919050565b6000602082019050818103600083015261166f81611633565b9050919050565b7f4e6f2066756e647320746f207769746864726177000000000000000000000000600082015250565b60006116ac60148361106e565b91506116b782611676565b602082019050919050565b600060208201905081810360008301526116db8161169f565b9050919050565b600081905092915050565b50565b60006116fd6000836116e2565b9150611708826116ed565b600082019050919050565b600061171e826116f0565b9150819050919050565b7f4661696c656420746f2073656e64204574686572000000000000000000000000600082015250565b600061175e60148361106e565b915061176982611728565b602082019050919050565b6000602082019050818103600083015261178d81611751565b9050919050565b7f43616d706169676e20646f6573206e6f74206578697374000000000000000000600082015250565b60006117ca60178361106e565b91506117d582611794565b602082019050919050565b600060208201905081810360008301526117f9816117bd565b9050919050565b7f43616d706169676e2068617320656e6465640000000000000000000000000000600082015250565b600061183660128361106e565b915061184182611800565b602082019050919050565b6000602082019050818103600083015261186581611829565b9050919050565b7f43616d706169676e20646561646c696e65206861732070617373656400000000600082015250565b60006118a2601c8361106e565b91506118ad8261186c565b602082019050919050565b600060208201905081810360008301526118d181611895565b9050919050565b7f4e487b7100000000000000000000000000000000000000000000000000000000600052601160045260246000fd5b600061191282610f81565b915061191d83610f81565b9250828201905080821115611935576119346118d8565b5b92915050565b7f5469746c652063616e6e6f7420626520656d7074790000000000000000000000600082015250565b600061197160158361106e565b915061197c8261193b565b602082019050919050565b600060208201905081810360008301526119a081611964565b9050919050565b7f4465736372697074696f6e2063616e6e6f7420626520656d7074790000000000600082015250565b60006119dd601b8361106e565b91506119e8826119a7565b602082019050919050565b60006020820190508181036000830152611a0c816119d0565b9050919050565b7f54617267657420616d6f756e74206d757374206265206772656174657220746860008201527f616e203000000000000000000000000000000000000000000000000000000000602082015250565b6000611a6f60248361106e565b9150611a7a82611a13565b604082019050919050565b60006020820190508181036000830152611a9e81611a62565b9050919050565b7f446561646c696e65206d75737420626520696e20746865206675747572650000600082015250565b6000611adb601e8361106e565b9150611ae682611aa5565b602082019050919050565b60006020820190508181036000830152611b0a81611ace565b9050919050565b7f496e76616c69642063617465676f727900000000000000000000000000000000600082015250565b6000611b4760108361106e565b9150611b5282611b11565b602082019050919050565b60006020820190508181036000830152611b7681611b3a565b9050919050565b60008190508160005260206000209050919050565b60006020601f8301049050919050565b600082821b905092915050565b600060088302611bdf7fffffffffffffffffffffffffffffffffffffffffffffffffffffffffffffffff82611ba2565b611be98683611ba2565b95508019841693508086168417925050509392505050565b6000819050919050565b6000611c26611c21611c1c84610f81565b611c01565b610f81565b9050919050565b6000819050919050565b611c4083611c0b565b611c54611c4c82611c2d565b848454611baf565b825550505050565b600090565b611c69611c5c565b611c74818484611c37565b505050565b5b81811015611c9857611c8d600082611c61565b600181019050611c7a565b5050565b601f821115611cdd57611cae81611b7d565b611cb784611b92565b81016020851015611cc6578190505b611cda611cd285611b92565b830182611c79565b50505b505050565b600082821c905092915050565b6000611d0060001984600802611ce2565b1980831691505092915050565b6000611d198383611cef565b9150826002028217905092915050565b611d3282611063565b67ffffffffffffffff811115611d4b57611d4a6111ea565b5b611d55825461148f565b611d60828285611c9c565b600060209050601f831160018114611d935760008415611d81578287015190505b611d8b8582611d0d565b865550611df3565b601f198416611da186611b7d565b60005b82811015611dc957848901518255600182019150602085019450602081019050611da4565b86831015611de65784890151611de2601f891682611cef565b8355505b6001600288020188555050505b505050505050565b6000611e0682610f81565b91507fffffffffffffffffffffffffffffffffffffffffffffffffffffffffffffffff8203611e3857611e376118d8565b5b600182019050919050565b60006080820190508181036000830152611e5d81876110ba565b9050611e6c6020830186610f8b565b611e796040830185610f8b565b611e86606083018461111b565b9594505050505056fea264697066735822122027409f7d8176088a19134c11b5acc9aeaa5908cbc3ea1f767c999dad4d320e6c64736f6c63430008180033",
  "linkReferences": {},
  "deployedLinkReferences": {}
}