{
  "_format": "hh-sol-artifact-1",
  "contractName": "Crowdfunding",
  "sourceName": "contracts/Crowdfunding.sol",
  "abi": [
    {
      "anonymous": false,
      "inputs": [
        {
          "indexed": true,
          "internalType": "uint256",
          "name": "campaignId",
          "type": "uint256"
        },
        {
          "indexed": true,
          "internalType": "address",
          "name": "owner",
          "type": "address"
        },
        {
          "indexed": false,
          "internalType": "string",
          "name": "title",
          "type": "string"
        },
        {
          "indexed": false,
          "internalType": "uint256",
          "name": "target",
          "type": "uint256"
        },
        {
          "indexed": false,
          "internalType": "uint256",
          "name": "deadline",
          "type": "uint256"
        }
      ],
      "name": "CampaignCreated",
      "type": "event"
    },
    {
      "anonymous": false,
      "inputs": [
        {
          "indexed": true,
          "internalType": "uint256",
          "name": "campaignId",
          "type": "uint256"
        },
        {
          "indexed": false,
          "internalType": "bool",
          "name": "goalReached",
          "type": "bool"
        }
      ],
      "name": "CampaignEnded",
      "type": "event"
    },
    {
      "anonymous": false,
      "inputs": [
        {
          "indexed": true,
          "internalType": "uint256",
          "name": "campaignId",
          "type": "uint256"
        },
        {
          "indexed": true,
          "internalType": "address",
          "name": "donor",
          "type": "address"
        },
        {
          "indexed": false,
          "internalType": "uint256",
          "name": "amount",
          "type": "uint256"
        }
      ],
      "name": "DonationMade",
      "type": "event"
    },
    {
      "anonymous": false,
      "inputs": [
        {
          "indexed": true,
          "internalType": "uint256",
          "name": "campaignId",
          "type": "uint256"
        },
        {
          "indexed": true,
          "internalType": "address",
          "name": "owner",
          "type": "address"
        },
        {
          "indexed": false,
          "internalType": "uint256",
          "name": "amount",
          "type": "uint256"
        }
      ],
      "name": "FundsWithdrawn",
      "type": "event"
    },
    {
      "inputs": [
        {
          "internalType": "uint256",
          "name": "",
          "type": "uint256"
        }
      ],
      "name": "campaigns",
      "outputs": [
        {
          "internalType": "address",
          "name": "owner",
          "type": "address"
        },
        {
          "internalType": "string",
          "name": "title",
          "type": "string"
        },
        {
          "internalType": "string",
          "name": "description",
          "type": "string"
        },
        {
          "internalType": "uint256",
          "name": "target",
          "type": "uint256"
        },
        {
          "internalType": "uint256",
          "name": "deadline",
          "type": "uint256"
        },
        {
          "internalType": "uint256",
          "name": "amountCollected",
          "type": "uint256"
        },
        {
          "internalType": "bool",
          "name": "ended",
          "type": "bool"
        }
      ],
      "stateMutability": "view",
      "type": "function"
    },
    {
      "inputs": [
        {
          "internalType": "string",
          "name": "_title",
          "type": "string"
        },
        {
          "internalType": "string",
          "name": "_description",
          "type": "string"
        },
        {
          "internalType": "uint256",
          "name": "_target",
          "type": "uint256"
        },
        {
          "internalType": "uint256",
          "name": "_deadline",
          "type": "uint256"
        }
      ],
      "name": "createCampaign",
      "outputs": [
        {
          "internalType": "uint256",
          "name": "",
          "type": "uint256"
        }
      ],
      "stateMutability": "nonpayable",
      "type": "function"
    },
    {
      "inputs": [
        {
          "internalType": "uint256",
          "name": "_id",
          "type": "uint256"
        }
      ],
      "name": "donateToCampaign",
      "outputs": [],
      "stateMutability": "payable",
      "type": "function"
    },
    {
      "inputs": [
        {
          "internalType": "uint256",
          "name": "_id",
          "type": "uint256"
        }
      ],
      "name": "getCampaignDetails",
      "outputs": [
        {
          "internalType": "address",
          "name": "owner",
          "type": "address"
        },
        {
          "internalType": "string",
          "name": "title",
          "type": "string"
        },
        {
          "internalType": "string",
          "name": "description",
          "type": "string"
        },
        {
          "internalType": "uint256",
          "name": "target",
          "type": "uint256"
        },
        {
          "internalType": "uint256",
          "name": "deadline",
          "type": "uint256"
        },
        {
          "internalType": "uint256",
          "name": "amountCollected",
          "type": "uint256"
        },
        {
          "internalType": "bool",
          "name": "ended",
          "type": "bool"
        }
      ],
      "stateMutability": "view",
      "type": "function"
    },
    {
      "inputs": [
        {
          "internalType": "uint256",
          "name": "_id",
          "type": "uint256"
        },
        {
          "internalType": "address",
          "name": "_donor",
          "type": "address"
        }
      ],
      "name": "getDonationAmount",
      "outputs": [
        {
          "internalType": "uint256",
          "name": "",
          "type": "uint256"
        }
      ],
      "stateMutability": "view",
      "type": "function"
    },
    {
      "inputs": [
        {
          "internalType": "uint256",
          "name": "_id",
          "type": "uint256"
        }
      ],
      "name": "isCampaignEnded",
      "outputs": [
        {
          "internalType": "bool",
          "name": "",
          "type": "bool"
        }
      ],
      "stateMutability": "view",
      "type": "function"
    },
    {
      "inputs": [],
      "name": "numberOfCampaigns",
      "outputs": [
        {
          "internalType": "uint256",
          "name": "",
          "type": "uint256"
        }
      ],
      "stateMutability": "view",
      "type": "function"
    },
    {
      "inputs": [
        {
          "internalType": "uint256",
          "name": "_id",
          "type": "uint256"
        }
      ],
      "name": "withdrawFunds",
      "outputs": [],
      "stateMutability": "nonpayable",
      "type": "function"
    }
  ],
  "bytecode": "0x6080604052600060015534801561001557600080fd5b50611b18806100256000396000f3fe60806040526004361061007b5760003560e01c80636fad502b1161004e5780636fad502b14610133578063a318f26914610170578063d993de62146101ad578063e43826d8146101f05761007b565b806307ca140d14610080578063141961bc146100ab578063155dd5ee146100ee57806342a4fda814610117575b600080fd5b34801561008c57600080fd5b5061009561022d565b6040516100a29190610db9565b60405180910390f35b3480156100b757600080fd5b506100d260048036038101906100cd9190610e14565b610233565b6040516100e59796959493929190610f2d565b60405180910390f35b3480156100fa57600080fd5b5061011560048036038101906101109190610e14565b6103b2565b005b610131600480360381019061012c9190610e14565b61068b565b005b34801561013f57600080fd5b5061015a60048036038101906101559190610e14565b61080b565b6040516101679190610faa565b60405180910390f35b34801561017c57600080fd5b50610197600480360381019061019291906110fa565b61085d565b6040516101a49190610db9565b60405180910390f35b3480156101b957600080fd5b506101d460048036038101906101cf9190610e14565b610aa0565b6040516101e79796959493929190610f2d565b60405180910390f35b3480156101fc57600080fd5b50610217600480360381019061021291906111c5565b610c85565b6040516102249190610db9565b60405180910390f35b60015481565b60006020528060005260406000206000915090508060000160009054906101000a900473ffffffffffffffffffffffffffffffffffffffff169080600101805461027c90611234565b80601f01602080910402602001604051908101604052809291908181526020018280546102a890611234565b80156102f55780601f106102ca576101008083540402835291602001916102f5565b820191906000526020600020905b8154815290600101906020018083116102d857829003601f168201915b50505050509080600201805461030a90611234565b80601f016020809104026020016040519081016040528092919081815260200182805461033690611234565b80156103835780601f1061035857610100808354040283529160200191610383565b820191906000526020600020905b81548152906001019060200180831161036657829003601f168201915b5050505050908060030154908060040154908060050154908060060160009054906101000a900460ff16905087565b60015481106103f6576040517f08c379a00000000000000000000000000000000000000000000000000000000081526004016103ed906112b1565b60405180910390fd5b600080600083815260200190815260200160002090503373ffffffffffffffffffffffffffffffffffffffff168160000160009054906101000a900473ffffffffffffffffffffffffffffffffffffffff1673ffffffffffffffffffffffffffffffffffffffff161461049e576040517f08c379a000000000000000000000000000000000000000000000000000000000815260040161049590611343565b60405180910390fd5b8060030154816005015410156104e9576040517f08c379a00000000000000000000000000000000000000000000000000000000081526004016104e0906113d5565b60405180910390fd5b8060040154421161052f576040517f08c379a000000000000000000000000000000000000000000000000000000000815260040161052690611467565b60405180910390fd5b6000816005015490506000826005018190555060008260000160009054906101000a900473ffffffffffffffffffffffffffffffffffffffff1673ffffffffffffffffffffffffffffffffffffffff168260405161058c906114b8565b60006040518083038185875af1925050503d80600081146105c9576040519150601f19603f3d011682016040523d82523d6000602084013e6105ce565b606091505b5050905080610612576040517f08c379a000000000000000000000000000000000000000000000000000000000815260040161060990611519565b60405180910390fd5b8260000160009054906101000a900473ffffffffffffffffffffffffffffffffffffffff1673ffffffffffffffffffffffffffffffffffffffff16847ff440aec6b52895984d061d622e6edeba6210f7c3e059be920663140c084560d78460405161067d9190610db9565b60405180910390a350505050565b60015481106106cf576040517f08c379a00000000000000000000000000000000000000000000000000000000081526004016106c6906112b1565b60405180910390fd5b60008060008381526020019081526020016000209050806004015442111561072c576040517f08c379a000000000000000000000000000000000000000000000000000000000815260040161072390611585565b60405180910390fd5b348160070160003373ffffffffffffffffffffffffffffffffffffffff1673ffffffffffffffffffffffffffffffffffffffff168152602001908152602001600020600082825461077d91906115d4565b925050819055503481600501600082825461079891906115d4565b925050819055503373ffffffffffffffffffffffffffffffffffffffff16827fe555da28bdb778f65d22794d88927ebaeca03f7de9d1b7d39245bc8fb5ca078a346040516107e69190610db9565b60405180910390a380600301548160050154106108075761080682610d26565b5b5050565b60008060008084815260200190815260200160002090508060060160009054906101000a900460ff16806108425750806004015442115b8061085557508060030154816005015410155b915050919050565b6000808551116108a2576040517f08c379a000000000000000000000000000000000000000000000000000000000815260040161089990611654565b60405180910390fd5b60008451116108e6576040517f08c379a00000000000000000000000000000000000000000000000000000000081526004016108dd906116c0565b60405180910390fd5b60008311610929576040517f08c379a000000000000000000000000000000000000000000000000000000000815260040161092090611752565b60405180910390fd5b42821161096b576040517f08c379a0000000000000000000000000000000000000000000000000000000008152600401610962906117be565b60405180910390fd5b6000600154905060008060008381526020019081526020016000209050338160000160006101000a81548173ffffffffffffffffffffffffffffffffffffffff021916908373ffffffffffffffffffffffffffffffffffffffff160217905550868160010190816109dc919061198a565b50858160020190816109ee919061198a565b508481600301819055508381600401819055506000816005018190555060008160060160006101000a81548160ff0219169083151502179055503373ffffffffffffffffffffffffffffffffffffffff16827fdc26653af5b99b2da33e2ad69ee6600d9aeccc82b034501db4338309615ca238898888604051610a7393929190611a5c565b60405180910390a360016000815480929190610a8e90611a9a565b91905055508192505050949350505050565b60006060806000806000806001548810610aef576040517f08c379a0000000000000000000000000000000000000000000000000000000008152600401610ae6906112b1565b60405180910390fd5b60008060008a815260200190815260200160002090508060000160009054906101000a900473ffffffffffffffffffffffffffffffffffffffff1681600101826002018360030154846004015485600501548660060160009054906101000a900460ff16858054610b5f90611234565b80601f0160208091040260200160405190810160405280929190818152602001828054610b8b90611234565b8015610bd85780601f10610bad57610100808354040283529160200191610bd8565b820191906000526020600020905b815481529060010190602001808311610bbb57829003601f168201915b50505050509550848054610beb90611234565b80601f0160208091040260200160405190810160405280929190818152602001828054610c1790611234565b8015610c645780601f10610c3957610100808354040283529160200191610c64565b820191906000526020600020905b815481529060010190602001808311610c4757829003601f168201915b50505050509450975097509750975097509750975050919395979092949650565b60006001548310610ccb576040517f08c379a0000000000000000000000000000000000000000000000000000000008152600401610cc2906112b1565b60405180910390fd5b60008084815260200190815260200160002060070160008373ffffffffffffffffffffffffffffffffffffffff1673ffffffffffffffffffffffffffffffffffffffff16815260200190815260200160002054905092915050565b6000806000838152602001908152602001600020905060018160060160006101000a81548160ff021916908315150217905550817f75d9b4c220529dda63dce075aa4c186e8f24151ecc185e707577fbfb5ab5b373826003015483600501541015604051610d949190610faa565b60405180910390a25050565b6000819050919050565b610db381610da0565b82525050565b6000602082019050610dce6000830184610daa565b92915050565b6000604051905090565b600080fd5b600080fd5b610df181610da0565b8114610dfc57600080fd5b50565b600081359050610e0e81610de8565b92915050565b600060208284031215610e2a57610e29610dde565b5b6000610e3884828501610dff565b91505092915050565b600073ffffffffffffffffffffffffffffffffffffffff82169050919050565b6000610e6c82610e41565b9050919050565b610e7c81610e61565b82525050565b600081519050919050565b600082825260208201905092915050565b60005b83811015610ebc578082015181840152602081019050610ea1565b60008484015250505050565b6000601f19601f8301169050919050565b6000610ee482610e82565b610eee8185610e8d565b9350610efe818560208601610e9e565b610f0781610ec8565b840191505092915050565b60008115159050919050565b610f2781610f12565b82525050565b600060e082019050610f42600083018a610e73565b8181036020830152610f548189610ed9565b90508181036040830152610f688188610ed9565b9050610f776060830187610daa565b610f846080830186610daa565b610f9160a0830185610daa565b610f9e60c0830184610f1e565b98975050505050505050565b6000602082019050610fbf6000830184610f1e565b92915050565b600080fd5b600080fd5b7f4e487b7100000000000000000000000000000000000000000000000000000000600052604160045260246000fd5b61100782610ec8565b810181811067ffffffffffffffff8211171561102657611025610fcf565b5b80604052505050565b6000611039610dd4565b90506110458282610ffe565b919050565b600067ffffffffffffffff82111561106557611064610fcf565b5b61106e82610ec8565b9050602081019050919050565b82818337600083830152505050565b600061109d6110988461104a565b61102f565b9050828152602081018484840111156110b9576110b8610fca565b5b6110c484828561107b565b509392505050565b600082601f8301126110e1576110e0610fc5565b5b81356110f184826020860161108a565b91505092915050565b6000806000806080858703121561111457611113610dde565b5b600085013567ffffffffffffffff81111561113257611131610de3565b5b61113e878288016110cc565b945050602085013567ffffffffffffffff81111561115f5761115e610de3565b5b61116b878288016110cc565b935050604061117c87828801610dff565b925050606061118d87828801610dff565b91505092959194509250565b6111a281610e61565b81146111ad57600080fd5b50565b6000813590506111bf81611199565b92915050565b600080604083850312156111dc576111db610dde565b5b60006111ea85828601610dff565b92505060206111fb858286016111b0565b9150509250929050565b7f4e487b7100000000000000000000000000000000000000000000000000000000600052602260045260246000fd5b6000600282049050600182168061124c57607f821691505b60208210810361125f5761125e611205565b5b50919050565b7f43616d706169676e20646f6573206e6f74206578697374000000000000000000600082015250565b600061129b601783610e8d565b91506112a682611265565b602082019050919050565b600060208201905081810360008301526112ca8161128e565b9050919050565b7f4f6e6c79207468652063616d706169676e206f776e65722063616e207769746860008201527f647261772066756e647300000000000000000000000000000000000000000000602082015250565b600061132d602a83610e8d565b9150611338826112d1565b604082019050919050565b6000602082019050818103600083015261135c81611320565b9050919050565b7f5468652063616d706169676e2074617267657420686173206e6f74206265656e60008201527f206d657400000000000000000000000000000000000000000000000000000000602082015250565b60006113bf602483610e8d565b91506113ca82611363565b604082019050919050565b600060208201905081810360008301526113ee816113b2565b9050919050565b7f5468652063616d706169676e20646561646c696e6520686173206e6f7420706160008201527f7373656400000000000000000000000000000000000000000000000000000000602082015250565b6000611451602483610e8d565b915061145c826113f5565b604082019050919050565b6000602082019050818103600083015261148081611444565b9050919050565b600081905092915050565b50565b60006114a2600083611487565b91506114ad82611492565b600082019050919050565b60006114c382611495565b9150819050919050565b7f4661696c656420746f2077697468647261772066756e64730000000000000000600082015250565b6000611503601883610e8d565b915061150e826114cd565b602082019050919050565b60006020820190508181036000830152611532816114f6565b9050919050565b7f43616d706169676e2068617320656e6465640000000000000000000000000000600082015250565b600061156f601283610e8d565b915061157a82611539565b602082019050919050565b6000602082019050818103600083015261159e81611562565b9050919050565b7f4e487b7100000000000000000000000000000000000000000000000000000000600052601160045260246000fd5b60006115df82610da0565b91506115ea83610da0565b9250828201905080821115611602576116016115a5565b5b92915050565b7f5469746c652063616e6e6f7420626520656d7074790000000000000000000000600082015250565b600061163e601583610e8d565b915061164982611608565b602082019050919050565b6000602082019050818103600083015261166d81611631565b9050919050565b7f4465736372697074696f6e2063616e6e6f7420626520656d7074790000000000600082015250565b60006116aa601b83610e8d565b91506116b582611674565b602082019050919050565b600060208201905081810360008301526116d98161169d565b9050919050565b7f54617267657420616d6f756e74206d757374206265206772656174657220746860008201527f616e203000000000000000000000000000000000000000000000000000000000602082015250565b600061173c602483610e8d565b9150611747826116e0565b604082019050919050565b6000602082019050818103600083015261176b8161172f565b9050919050565b7f446561646c696e65206d75737420626520696e20746865206675747572650000600082015250565b60006117a8601e83610e8d565b91506117b382611772565b602082019050919050565b600060208201905081810360008301526117d78161179b565b9050919050565b60008190508160005260206000209050919050565b60006020601f8301049050919050565b600082821b905092915050565b6000600883026118407fffffffffffffffffffffffffffffffffffffffffffffffffffffffffffffffff82611803565b61184a8683611803565b95508019841693508086168417925050509392505050565b6000819050919050565b600061188761188261187d84610da0565b611862565b610da0565b9050919050565b6000819050919050565b6118a18361186c565b6118b56118ad8261188e565b848454611810565b825550505050565b600090565b6118ca6118bd565b6118d5818484611898565b505050565b5b818110156118f9576118ee6000826118c2565b6001810190506118db565b5050565b601f82111561193e5761190f816117de565b611918846117f3565b81016020851015611927578190505b61193b611933856117f3565b8301826118da565b50505b505050565b600082821c905092915050565b600061196160001984600802611943565b1980831691505092915050565b600061197a8383611950565b9150826002028217905092915050565b61199382610e82565b67ffffffffffffffff8111156119ac576119ab610fcf565b5b6119b68254611234565b6119c18282856118fd565b600060209050601f8311600181146119f457600084156119e2578287015190505b6119ec858261196e565b865550611a54565b601f198416611a02866117de565b60005b82811015611a2a57848901518255600182019150602085019450602081019050611a05565b86831015611a475784890151611a43601f891682611950565b8355505b6001600288020188555050505b505050505050565b60006060820190508181036000830152611a768186610ed9565b9050611a856020830185610daa565b611a926040830184610daa565b949350505050565b6000611aa582610da0565b91507fffffffffffffffffffffffffffffffffffffffffffffffffffffffffffffffff8203611ad757611ad66115a5565b5b60018201905091905056fea2646970667358221220c2989c449c9746260da346fba02e8a41732e8018160b239eaaa63dac6f772e0164736f6c63430008180033",
  "linkReferences": {},
  "deployedLinkReferences": {}
}