{
  "_format": "hh-sol-artifact-1",
  "contractName": "Crowdfunding",
  "sourceName": "contracts/Crowdfunding.sol",
  "abi": [
    {
      "anonymous": false,
      "inputs": [
        {
          "indexed": true,
          "internalType": "uint256",
          "name": "campaignId",
          "type": "uint256"
        },
        {
          "indexed": true,
          "internalType": "address",
          "name": "owner",
          "type": "address"
        },
        {
          "indexed": false,
          "internalType": "string",
          "name": "title",
          "type": "string"
        },
        {
          "indexed": false,
          "internalType": "uint256",
          "name": "target",
          "type": "uint256"
        },
        {
          "indexed": false,
          "internalType": "uint256",
          "name": "deadline",
          "type": "uint256"
        }
      ],
      "name": "CampaignCreated",
      "type": "event"
    },
    {
      "anonymous": false,
      "inputs": [
        {
          "indexed": true,
          "internalType": "uint256",
          "name": "campaignId",
          "type": "uint256"
        },
        {
          "indexed": true,
          "internalType": "address",
          "name": "donor",
          "type": "address"
        },
        {
          "indexed": false,
          "internalType": "uint256",
          "name": "amount",
          "type": "uint256"
        }
      ],
      "name": "DonationMade",
      "type": "event"
    },
    {
      "inputs": [
        {
          "internalType": "uint256",
          "name": "",
          "type": "uint256"
        }
      ],
      "name": "campaigns",
      "outputs": [
        {
          "internalType": "address",
          "name": "owner",
          "type": "address"
        },
        {
          "internalType": "string",
          "name": "title",
          "type": "string"
        },
        {
          "internalType": "string",
          "name": "description",
          "type": "string"
        },
        {
          "internalType": "uint256",
          "name": "target",
          "type": "uint256"
        },
        {
          "internalType": "uint256",
          "name": "deadline",
          "type": "uint256"
        },
        {
          "internalType": "uint256",
          "name": "amountCollected",
          "type": "uint256"
        }
      ],
      "stateMutability": "view",
      "type": "function"
    },
    {
      "inputs": [
        {
          "internalType": "string",
          "name": "_title",
          "type": "string"
        },
        {
          "internalType": "string",
          "name": "_description",
          "type": "string"
        },
        {
          "internalType": "uint256",
          "name": "_target",
          "type": "uint256"
        },
        {
          "internalType": "uint256",
          "name": "_deadline",
          "type": "uint256"
        }
      ],
      "name": "createCampaign",
      "outputs": [
        {
          "internalType": "uint256",
          "name": "",
          "type": "uint256"
        }
      ],
      "stateMutability": "nonpayable",
      "type": "function"
    },
    {
      "inputs": [
        {
          "internalType": "uint256",
          "name": "_id",
          "type": "uint256"
        }
      ],
      "name": "donateToCampaign",
      "outputs": [],
      "stateMutability": "payable",
      "type": "function"
    },
    {
      "inputs": [
        {
          "internalType": "uint256",
          "name": "_id",
          "type": "uint256"
        }
      ],
      "name": "getCampaignDetails",
      "outputs": [
        {
          "internalType": "address",
          "name": "owner",
          "type": "address"
        },
        {
          "internalType": "string",
          "name": "title",
          "type": "string"
        },
        {
          "internalType": "string",
          "name": "description",
          "type": "string"
        },
        {
          "internalType": "uint256",
          "name": "target",
          "type": "uint256"
        },
        {
          "internalType": "uint256",
          "name": "deadline",
          "type": "uint256"
        },
        {
          "internalType": "uint256",
          "name": "amountCollected",
          "type": "uint256"
        }
      ],
      "stateMutability": "view",
      "type": "function"
    },
    {
      "inputs": [
        {
          "internalType": "uint256",
          "name": "_id",
          "type": "uint256"
        },
        {
          "internalType": "address",
          "name": "_donor",
          "type": "address"
        }
      ],
      "name": "getDonationAmount",
      "outputs": [
        {
          "internalType": "uint256",
          "name": "",
          "type": "uint256"
        }
      ],
      "stateMutability": "view",
      "type": "function"
    },
    {
      "inputs": [],
      "name": "numberOfCampaigns",
      "outputs": [
        {
          "internalType": "uint256",
          "name": "",
          "type": "uint256"
        }
      ],
      "stateMutability": "view",
      "type": "function"
    },
    {
      "inputs": [
        {
          "internalType": "uint256",
          "name": "_id",
          "type": "uint256"
        }
      ],
      "name": "withdrawFunds",
      "outputs": [],
      "stateMutability": "nonpayable",
      "type": "function"
    }
  ],
  "bytecode": "0x6080604052600060015534801561001557600080fd5b506116c1806100256000396000f3fe6080604052600436106100705760003560e01c806342a4fda81161004e57806342a4fda81461010b578063a318f26914610127578063d993de6214610164578063e43826d8146101a657610070565b806307ca140d14610075578063141961bc146100a0578063155dd5ee146100e2575b600080fd5b34801561008157600080fd5b5061008a6101e3565b6040516100979190610a7e565b60405180910390f35b3480156100ac57600080fd5b506100c760048036038101906100c29190610ad9565b6101e9565b6040516100d996959493929190610bd7565b60405180910390f35b3480156100ee57600080fd5b5061010960048036038101906101049190610ad9565b610355565b005b61012560048036038101906101209190610ad9565b610577565b005b34801561013357600080fd5b5061014e60048036038101906101499190610d7b565b610659565b60405161015b9190610a7e565b60405180910390f35b34801561017057600080fd5b5061018b60048036038101906101869190610ad9565b61087f565b60405161019d96959493929190610bd7565b60405180910390f35b3480156101b257600080fd5b506101cd60048036038101906101c89190610e46565b610a08565b6040516101da9190610a7e565b60405180910390f35b60015481565b60006020528060005260406000206000915090508060000160009054906101000a900473ffffffffffffffffffffffffffffffffffffffff169080600101805461023290610eb5565b80601f016020809104026020016040519081016040528092919081815260200182805461025e90610eb5565b80156102ab5780601f10610280576101008083540402835291602001916102ab565b820191906000526020600020905b81548152906001019060200180831161028e57829003601f168201915b5050505050908060020180546102c090610eb5565b80601f01602080910402602001604051908101604052809291908181526020018280546102ec90610eb5565b80156103395780601f1061030e57610100808354040283529160200191610339565b820191906000526020600020905b81548152906001019060200180831161031c57829003601f168201915b5050505050908060030154908060040154908060050154905086565b600080600083815260200190815260200160002090503373ffffffffffffffffffffffffffffffffffffffff168160000160009054906101000a900473ffffffffffffffffffffffffffffffffffffffff1673ffffffffffffffffffffffffffffffffffffffff16146103fd576040517f08c379a00000000000000000000000000000000000000000000000000000000081526004016103f490610f58565b60405180910390fd5b806003015481600501541015610448576040517f08c379a000000000000000000000000000000000000000000000000000000000815260040161043f90610fea565b60405180910390fd5b8060040154421161048e576040517f08c379a00000000000000000000000000000000000000000000000000000000081526004016104859061107c565b60405180910390fd5b6000816005015490506000826005018190555060008260000160009054906101000a900473ffffffffffffffffffffffffffffffffffffffff1673ffffffffffffffffffffffffffffffffffffffff16826040516104eb906110cd565b60006040518083038185875af1925050503d8060008114610528576040519150601f19603f3d011682016040523d82523d6000602084013e61052d565b606091505b5050905080610571576040517f08c379a00000000000000000000000000000000000000000000000000000000081526004016105689061112e565b60405180910390fd5b50505050565b600034905060008060008481526020019081526020016000209050818160060160003373ffffffffffffffffffffffffffffffffffffffff1673ffffffffffffffffffffffffffffffffffffffff16815260200190815260200160002060008282546105e3919061117d565b92505081905550818160050160008282546105fe919061117d565b925050819055503373ffffffffffffffffffffffffffffffffffffffff16837fe555da28bdb778f65d22794d88927ebaeca03f7de9d1b7d39245bc8fb5ca078a8460405161064c9190610a7e565b60405180910390a3505050565b60008085511161069e576040517f08c379a0000000000000000000000000000000000000000000000000000000008152600401610695906111fd565b60405180910390fd5b60008451116106e2576040517f08c379a00000000000000000000000000000000000000000000000000000000081526004016106d990611269565b60405180910390fd5b60008311610725576040517f08c379a000000000000000000000000000000000000000000000000000000000815260040161071c906112fb565b60405180910390fd5b428211610767576040517f08c379a000000000000000000000000000000000000000000000000000000000815260040161075e90611367565b60405180910390fd5b6000600154905060008060008381526020019081526020016000209050338160000160006101000a81548173ffffffffffffffffffffffffffffffffffffffff021916908373ffffffffffffffffffffffffffffffffffffffff160217905550868160010190816107d89190611533565b50858160020190816107ea9190611533565b50848160030181905550838160040181905550600081600501819055506001600081548092919061081a90611605565b91905055503373ffffffffffffffffffffffffffffffffffffffff16827fdc26653af5b99b2da33e2ad69ee6600d9aeccc82b034501db4338309615ca23889888860405161086a9392919061164d565b60405180910390a38192505050949350505050565b600060608060008060008060008089815260200190815260200160002090508060000160009054906101000a900473ffffffffffffffffffffffffffffffffffffffff1681600101826002018360030154846004015485600501548480546108e690610eb5565b80601f016020809104026020016040519081016040528092919081815260200182805461091290610eb5565b801561095f5780601f106109345761010080835404028352916020019161095f565b820191906000526020600020905b81548152906001019060200180831161094257829003601f168201915b5050505050945083805461097290610eb5565b80601f016020809104026020016040519081016040528092919081815260200182805461099e90610eb5565b80156109eb5780601f106109c0576101008083540402835291602001916109eb565b820191906000526020600020905b8154815290600101906020018083116109ce57829003601f168201915b505050505093509650965096509650965096505091939550919395565b600080600084815260200190815260200160002060060160008373ffffffffffffffffffffffffffffffffffffffff1673ffffffffffffffffffffffffffffffffffffffff16815260200190815260200160002054905092915050565b6000819050919050565b610a7881610a65565b82525050565b6000602082019050610a936000830184610a6f565b92915050565b6000604051905090565b600080fd5b600080fd5b610ab681610a65565b8114610ac157600080fd5b50565b600081359050610ad381610aad565b92915050565b600060208284031215610aef57610aee610aa3565b5b6000610afd84828501610ac4565b91505092915050565b600073ffffffffffffffffffffffffffffffffffffffff82169050919050565b6000610b3182610b06565b9050919050565b610b4181610b26565b82525050565b600081519050919050565b600082825260208201905092915050565b60005b83811015610b81578082015181840152602081019050610b66565b60008484015250505050565b6000601f19601f8301169050919050565b6000610ba982610b47565b610bb38185610b52565b9350610bc3818560208601610b63565b610bcc81610b8d565b840191505092915050565b600060c082019050610bec6000830189610b38565b8181036020830152610bfe8188610b9e565b90508181036040830152610c128187610b9e565b9050610c216060830186610a6f565b610c2e6080830185610a6f565b610c3b60a0830184610a6f565b979650505050505050565b600080fd5b600080fd5b7f4e487b7100000000000000000000000000000000000000000000000000000000600052604160045260246000fd5b610c8882610b8d565b810181811067ffffffffffffffff82111715610ca757610ca6610c50565b5b80604052505050565b6000610cba610a99565b9050610cc68282610c7f565b919050565b600067ffffffffffffffff821115610ce657610ce5610c50565b5b610cef82610b8d565b9050602081019050919050565b82818337600083830152505050565b6000610d1e610d1984610ccb565b610cb0565b905082815260208101848484011115610d3a57610d39610c4b565b5b610d45848285610cfc565b509392505050565b600082601f830112610d6257610d61610c46565b5b8135610d72848260208601610d0b565b91505092915050565b60008060008060808587031215610d9557610d94610aa3565b5b600085013567ffffffffffffffff811115610db357610db2610aa8565b5b610dbf87828801610d4d565b945050602085013567ffffffffffffffff811115610de057610ddf610aa8565b5b610dec87828801610d4d565b9350506040610dfd87828801610ac4565b9250506060610e0e87828801610ac4565b91505092959194509250565b610e2381610b26565b8114610e2e57600080fd5b50565b600081359050610e4081610e1a565b92915050565b60008060408385031215610e5d57610e5c610aa3565b5b6000610e6b85828601610ac4565b9250506020610e7c85828601610e31565b9150509250929050565b7f4e487b7100000000000000000000000000000000000000000000000000000000600052602260045260246000fd5b60006002820490506001821680610ecd57607f821691505b602082108103610ee057610edf610e86565b5b50919050565b7f4f6e6c79207468652063616d706169676e206f776e65722063616e207769746860008201527f647261772066756e647300000000000000000000000000000000000000000000602082015250565b6000610f42602a83610b52565b9150610f4d82610ee6565b604082019050919050565b60006020820190508181036000830152610f7181610f35565b9050919050565b7f5468652063616d706169676e2074617267657420686173206e6f74206265656e60008201527f206d657400000000000000000000000000000000000000000000000000000000602082015250565b6000610fd4602483610b52565b9150610fdf82610f78565b604082019050919050565b6000602082019050818103600083015261100381610fc7565b9050919050565b7f5468652063616d706169676e20646561646c696e6520686173206e6f7420706160008201527f7373656400000000000000000000000000000000000000000000000000000000602082015250565b6000611066602483610b52565b91506110718261100a565b604082019050919050565b6000602082019050818103600083015261109581611059565b9050919050565b600081905092915050565b50565b60006110b760008361109c565b91506110c2826110a7565b600082019050919050565b60006110d8826110aa565b9150819050919050565b7f4661696c656420746f2077697468647261772066756e64730000000000000000600082015250565b6000611118601883610b52565b9150611123826110e2565b602082019050919050565b600060208201905081810360008301526111478161110b565b9050919050565b7f4e487b7100000000000000000000000000000000000000000000000000000000600052601160045260246000fd5b600061118882610a65565b915061119383610a65565b92508282019050808211156111ab576111aa61114e565b5b92915050565b7f5469746c652063616e6e6f7420626520656d7074790000000000000000000000600082015250565b60006111e7601583610b52565b91506111f2826111b1565b602082019050919050565b60006020820190508181036000830152611216816111da565b9050919050565b7f4465736372697074696f6e2063616e6e6f7420626520656d7074790000000000600082015250565b6000611253601b83610b52565b915061125e8261121d565b602082019050919050565b6000602082019050818103600083015261128281611246565b9050919050565b7f54617267657420616d6f756e74206d757374206265206772656174657220746860008201527f616e203000000000000000000000000000000000000000000000000000000000602082015250565b60006112e5602483610b52565b91506112f082611289565b604082019050919050565b60006020820190508181036000830152611314816112d8565b9050919050565b7f446561646c696e65206d75737420626520696e20746865206675747572650000600082015250565b6000611351601e83610b52565b915061135c8261131b565b602082019050919050565b6000602082019050818103600083015261138081611344565b9050919050565b60008190508160005260206000209050919050565b60006020601f8301049050919050565b600082821b905092915050565b6000600883026113e97fffffffffffffffffffffffffffffffffffffffffffffffffffffffffffffffff826113ac565b6113f386836113ac565b95508019841693508086168417925050509392505050565b6000819050919050565b600061143061142b61142684610a65565b61140b565b610a65565b9050919050565b6000819050919050565b61144a83611415565b61145e61145682611437565b8484546113b9565b825550505050565b600090565b611473611466565b61147e818484611441565b505050565b5b818110156114a25761149760008261146b565b600181019050611484565b5050565b601f8211156114e7576114b881611387565b6114c18461139c565b810160208510156114d0578190505b6114e46114dc8561139c565b830182611483565b50505b505050565b600082821c905092915050565b600061150a600019846008026114ec565b1980831691505092915050565b600061152383836114f9565b9150826002028217905092915050565b61153c82610b47565b67ffffffffffffffff81111561155557611554610c50565b5b61155f8254610eb5565b61156a8282856114a6565b600060209050601f83116001811461159d576000841561158b578287015190505b6115958582611517565b8655506115fd565b601f1984166115ab86611387565b60005b828110156115d3578489015182556001820191506020850194506020810190506115ae565b868310156115f057848901516115ec601f8916826114f9565b8355505b6001600288020188555050505b505050505050565b600061161082610a65565b91507fffffffffffffffffffffffffffffffffffffffffffffffffffffffffffffffff82036116425761164161114e565b5b600182019050919050565b600060608201905081810360008301526116678186610b9e565b90506116766020830185610a6f565b6116836040830184610a6f565b94935050505056fea26469706673582212209f03e09a9f57a5b43186eab39a1d9a83e19a1f189549952fab8ecdfb37c34d2d64736f6c63430008180033",
  "linkReferences": {},
  "deployedLinkReferences": {}
}