{
  "_format": "hh-sol-artifact-1",
  "contractName": "Crowdfunding",
  "sourceName": "contracts/Crowdfunding.sol",
  "abi": [
    {
      "anonymous": false,
      "inputs": [
        {
          "indexed": true,
          "internalType": "uint256",
          "name": "campaignId",
          "type": "uint256"
        },
        {
          "indexed": true,
          "internalType": "address",
          "name": "owner",
          "type": "address"
        },
        {
          "indexed": false,
          "internalType": "string",
          "name": "title",
          "type": "string"
        },
        {
          "indexed": false,
          "internalType": "uint256",
          "name": "target",
          "type": "uint256"
        },
        {
          "indexed": false,
          "internalType": "uint256",
          "name": "deadline",
          "type": "uint256"
        },
        {
          "indexed": false,
          "internalType": "uint8",
          "name": "category",
          "type": "uint8"
        }
      ],
      "name": "CampaignCreated",
      "type": "event"
    },
    {
      "anonymous": false,
      "inputs": [
        {
          "indexed": true,
          "internalType": "uint256",
          "name": "campaignId",
          "type": "uint256"
        },
        {
          "indexed": false,
          "internalType": "bool",
          "name": "goalReached",
          "type": "bool"
        }
      ],
      "name": "CampaignEnded",
      "type": "event"
    },
    {
      "anonymous": false,
      "inputs": [
        {
          "indexed": true,
          "internalType": "uint256",
          "name": "campaignId",
          "type": "uint256"
        },
        {
          "indexed": true,
          "internalType": "address",
          "name": "donor",
          "type": "address"
        },
        {
          "indexed": false,
          "internalType": "uint256",
          "name": "amount",
          "type": "uint256"
        }
      ],
      "name": "DonationMade",
      "type": "event"
    },
    {
      "anonymous": false,
      "inputs": [
        {
          "indexed": true,
          "internalType": "uint256",
          "name": "campaignId",
          "type": "uint256"
        },
        {
          "indexed": true,
          "internalType": "address",
          "name": "owner",
          "type": "address"
        },
        {
          "indexed": false,
          "internalType": "uint256",
          "name": "amount",
          "type": "uint256"
        }
      ],
      "name": "Withdrawal",
      "type": "event"
    },
    {
      "inputs": [
        {
          "internalType": "uint256",
          "name": "",
          "type": "uint256"
        }
      ],
      "name": "campaigns",
      "outputs": [
        {
          "internalType": "address",
          "name": "owner",
          "type": "address"
        },
        {
          "internalType": "string",
          "name": "title",
          "type": "string"
        },
        {
          "internalType": "string",
          "name": "description",
          "type": "string"
        },
        {
          "internalType": "uint256",
          "name": "target",
          "type": "uint256"
        },
        {
          "internalType": "uint256",
          "name": "deadline",
          "type": "uint256"
        },
        {
          "internalType": "uint256",
          "name": "amountCollected",
          "type": "uint256"
        },
        {
          "internalType": "bool",
          "name": "ended",
          "type": "bool"
        },
        {
          "internalType": "uint8",
          "name": "category",
          "type": "uint8"
        }
      ],
      "stateMutability": "view",
      "type": "function"
    },
    {
      "inputs": [
        {
          "internalType": "string",
          "name": "_title",
          "type": "string"
        },
        {
          "internalType": "string",
          "name": "_description",
          "type": "string"
        },
        {
          "internalType": "uint256",
          "name": "_target",
          "type": "uint256"
        },
        {
          "internalType": "uint256",
          "name": "_deadline",
          "type": "uint256"
        },
        {
          "internalType": "uint8",
          "name": "_category",
          "type": "uint8"
        }
      ],
      "name": "createCampaign",
      "outputs": [
        {
          "internalType": "uint256",
          "name": "",
          "type": "uint256"
        }
      ],
      "stateMutability": "nonpayable",
      "type": "function"
    },
    {
      "inputs": [
        {
          "internalType": "uint256",
          "name": "_id",
          "type": "uint256"
        }
      ],
      "name": "donateToCampaign",
      "outputs": [],
      "stateMutability": "payable",
      "type": "function"
    },
    {
      "inputs": [
        {
          "internalType": "uint256",
          "name": "_id",
          "type": "uint256"
        }
      ],
      "name": "getCampaignDetails",
      "outputs": [
        {
          "internalType": "address",
          "name": "owner",
          "type": "address"
        },
        {
          "internalType": "string",
          "name": "title",
          "type": "string"
        },
        {
          "internalType": "string",
          "name": "description",
          "type": "string"
        },
        {
          "internalType": "uint256",
          "name": "target",
          "type": "uint256"
        },
        {
          "internalType": "uint256",
          "name": "deadline",
          "type": "uint256"
        },
        {
          "internalType": "uint256",
          "name": "amountCollected",
          "type": "uint256"
        },
        {
          "internalType": "bool",
          "name": "ended",
          "type": "bool"
        },
        {
          "internalType": "uint8",
          "name": "category",
          "type": "uint8"
        }
      ],
      "stateMutability": "view",
      "type": "function"
    },
    {
      "inputs": [
        {
          "internalType": "uint256",
          "name": "_id",
          "type": "uint256"
        },
        {
          "internalType": "address",
          "name": "_donor",
          "type": "address"
        }
      ],
      "name": "getDonationAmount",
      "outputs": [
        {
          "internalType": "uint256",
          "name": "",
          "type": "uint256"
        }
      ],
      "stateMutability": "view",
      "type": "function"
    },
    {
      "inputs": [
        {
          "internalType": "uint256",
          "name": "_id",
          "type": "uint256"
        }
      ],
      "name": "isCampaignEnded",
      "outputs": [
        {
          "internalType": "bool",
          "name": "",
          "type": "bool"
        }
      ],
      "stateMutability": "view",
      "type": "function"
    },
    {
      "inputs": [],
      "name": "numberOfCampaigns",
      "outputs": [
        {
          "internalType": "uint256",
          "name": "",
          "type": "uint256"
        }
      ],
      "stateMutability": "view",
      "type": "function"
    },
    {
      "inputs": [
        {
          "internalType": "uint256",
          "name": "_id",
          "type": "uint256"
        }
      ],
      "name": "withdrawFunds",
      "outputs": [],
      "stateMutability": "nonpayable",
      "type": "function"
    }
  ],
  "bytecode": "0x6080604052600060015534801561001557600080fd5b50611d34806100256000396000f3fe60806040526004361061007b5760003560e01c80636fad502b1161004e5780636fad502b14610134578063d993de6214610171578063deaacc14146101b5578063e43826d8146101f25761007b565b806307ca140d14610080578063141961bc146100ab578063155dd5ee146100ef57806342a4fda814610118575b600080fd5b34801561008c57600080fd5b5061009561022f565b6040516100a29190610e84565b60405180910390f35b3480156100b757600080fd5b506100d260048036038101906100cd9190610edf565b610235565b6040516100e6989796959493929190611014565b60405180910390f35b3480156100fb57600080fd5b5061011660048036038101906101119190610edf565b6103c7565b005b610132600480360381019061012d9190610edf565b6106da565b005b34801561014057600080fd5b5061015b60048036038101906101569190610edf565b61085a565b60405161016891906110a0565b60405180910390f35b34801561017d57600080fd5b5061019860048036038101906101939190610edf565b6108ac565b6040516101ac989796959493929190611014565b60405180910390f35b3480156101c157600080fd5b506101dc60048036038101906101d7919061121c565b610aa7565b6040516101e99190610e84565b60405180910390f35b3480156101fe57600080fd5b50610219600480360381019061021491906112fb565b610d50565b6040516102269190610e84565b60405180910390f35b60015481565b60006020528060005260406000206000915090508060000160009054906101000a900473ffffffffffffffffffffffffffffffffffffffff169080600101805461027e9061136a565b80601f01602080910402602001604051908101604052809291908181526020018280546102aa9061136a565b80156102f75780601f106102cc576101008083540402835291602001916102f7565b820191906000526020600020905b8154815290600101906020018083116102da57829003601f168201915b50505050509080600201805461030c9061136a565b80601f01602080910402602001604051908101604052809291908181526020018280546103389061136a565b80156103855780601f1061035a57610100808354040283529160200191610385565b820191906000526020600020905b81548152906001019060200180831161036857829003601f168201915b5050505050908060030154908060040154908060050154908060060160009054906101000a900460ff16908060060160019054906101000a900460ff16905088565b600080600083815260200190815260200160002090508060000160009054906101000a900473ffffffffffffffffffffffffffffffffffffffff1673ffffffffffffffffffffffffffffffffffffffff163373ffffffffffffffffffffffffffffffffffffffff161461046f576040517f08c379a00000000000000000000000000000000000000000000000000000000081526004016104669061140d565b60405180910390fd5b806004015442118061048957508060030154816005015410155b6104c8576040517f08c379a00000000000000000000000000000000000000000000000000000000081526004016104bf9061149f565b60405180910390fd5b8060060160009054906101000a900460ff161561051a576040517f08c379a000000000000000000000000000000000000000000000000000000000815260040161051190611531565b60405180910390fd5b6000816005015411610561576040517f08c379a00000000000000000000000000000000000000000000000000000000081526004016105589061159d565b60405180910390fd5b6000816005015490506000826005018190555060018260060160006101000a81548160ff02191690831515021790555060008260000160009054906101000a900473ffffffffffffffffffffffffffffffffffffffff1673ffffffffffffffffffffffffffffffffffffffff16826040516105db906115ee565b60006040518083038185875af1925050503d8060008114610618576040519150601f19603f3d011682016040523d82523d6000602084013e61061d565b606091505b5050905080610661576040517f08c379a00000000000000000000000000000000000000000000000000000000081526004016106589061164f565b60405180910390fd5b8260000160009054906101000a900473ffffffffffffffffffffffffffffffffffffffff1673ffffffffffffffffffffffffffffffffffffffff16847f37e8063b72a944a76de602f32b82fd8c2a1c6f99564c727ffaf913c7762cd420846040516106cc9190610e84565b60405180910390a350505050565b600154811061071e576040517f08c379a0000000000000000000000000000000000000000000000000000000008152600401610715906116bb565b60405180910390fd5b60008060008381526020019081526020016000209050806004015442111561077b576040517f08c379a000000000000000000000000000000000000000000000000000000000815260040161077290611727565b60405180910390fd5b348160070160003373ffffffffffffffffffffffffffffffffffffffff1673ffffffffffffffffffffffffffffffffffffffff16815260200190815260200160002060008282546107cc9190611776565b92505081905550348160050160008282546107e79190611776565b925050819055503373ffffffffffffffffffffffffffffffffffffffff16827fe555da28bdb778f65d22794d88927ebaeca03f7de9d1b7d39245bc8fb5ca078a346040516108359190610e84565b60405180910390a380600301548160050154106108565761085582610df1565b5b5050565b60008060008084815260200190815260200160002090508060060160009054906101000a900460ff16806108915750806004015442115b806108a457508060030154816005015410155b915050919050565b6000606080600080600080600060015489106108fd576040517f08c379a00000000000000000000000000000000000000000000000000000000081526004016108f4906116bb565b60405180910390fd5b60008060008b815260200190815260200160002090508060000160009054906101000a900473ffffffffffffffffffffffffffffffffffffffff1681600101826002018360030154846004015485600501548660060160009054906101000a900460ff168760060160019054906101000a900460ff1686805461097f9061136a565b80601f01602080910402602001604051908101604052809291908181526020018280546109ab9061136a565b80156109f85780601f106109cd576101008083540402835291602001916109f8565b820191906000526020600020905b8154815290600101906020018083116109db57829003601f168201915b50505050509650858054610a0b9061136a565b80601f0160208091040260200160405190810160405280929190818152602001828054610a379061136a565b8015610a845780601f10610a5957610100808354040283529160200191610a84565b820191906000526020600020905b815481529060010190602001808311610a6757829003601f168201915b505050505095509850985098509850985098509850985050919395975091939597565b600080865111610aec576040517f08c379a0000000000000000000000000000000000000000000000000000000008152600401610ae3906117f6565b60405180910390fd5b6000855111610b30576040517f08c379a0000000000000000000000000000000000000000000000000000000008152600401610b2790611862565b60405180910390fd5b60008411610b73576040517f08c379a0000000000000000000000000000000000000000000000000000000008152600401610b6a906118f4565b60405180910390fd5b428311610bb5576040517f08c379a0000000000000000000000000000000000000000000000000000000008152600401610bac90611960565b60405180910390fd5b600a8260ff1610610bfb576040517f08c379a0000000000000000000000000000000000000000000000000000000008152600401610bf2906119cc565b60405180910390fd5b6000600154905060008060008381526020019081526020016000209050338160000160006101000a81548173ffffffffffffffffffffffffffffffffffffffff021916908373ffffffffffffffffffffffffffffffffffffffff16021790555087816001019081610c6c9190611b98565b5086816002019081610c7e9190611b98565b508581600301819055508481600401819055506000816005018190555060008160060160006101000a81548160ff021916908315150217905550838160060160016101000a81548160ff021916908360ff16021790555060016000815480929190610ce890611c6a565b91905055503373ffffffffffffffffffffffffffffffffffffffff16827fedf7acc766086eb7115234d49cc6c7dc174ac9db5fac309cde9fa65a8fd516bc8a898989604051610d3a9493929190611cb2565b60405180910390a3819250505095945050505050565b60006001548310610d96576040517f08c379a0000000000000000000000000000000000000000000000000000000008152600401610d8d906116bb565b60405180910390fd5b60008084815260200190815260200160002060070160008373ffffffffffffffffffffffffffffffffffffffff1673ffffffffffffffffffffffffffffffffffffffff16815260200190815260200160002054905092915050565b6000806000838152602001908152602001600020905060018160060160006101000a81548160ff021916908315150217905550817f75d9b4c220529dda63dce075aa4c186e8f24151ecc185e707577fbfb5ab5b373826003015483600501541015604051610e5f91906110a0565b60405180910390a25050565b6000819050919050565b610e7e81610e6b565b82525050565b6000602082019050610e996000830184610e75565b92915050565b6000604051905090565b600080fd5b600080fd5b610ebc81610e6b565b8114610ec757600080fd5b50565b600081359050610ed981610eb3565b92915050565b600060208284031215610ef557610ef4610ea9565b5b6000610f0384828501610eca565b91505092915050565b600073ffffffffffffffffffffffffffffffffffffffff82169050919050565b6000610f3782610f0c565b9050919050565b610f4781610f2c565b82525050565b600081519050919050565b600082825260208201905092915050565b60005b83811015610f87578082015181840152602081019050610f6c565b60008484015250505050565b6000601f19601f8301169050919050565b6000610faf82610f4d565b610fb98185610f58565b9350610fc9818560208601610f69565b610fd281610f93565b840191505092915050565b60008115159050919050565b610ff281610fdd565b82525050565b600060ff82169050919050565b61100e81610ff8565b82525050565b60006101008201905061102a600083018b610f3e565b818103602083015261103c818a610fa4565b905081810360408301526110508189610fa4565b905061105f6060830188610e75565b61106c6080830187610e75565b61107960a0830186610e75565b61108660c0830185610fe9565b61109360e0830184611005565b9998505050505050505050565b60006020820190506110b56000830184610fe9565b92915050565b600080fd5b600080fd5b7f4e487b7100000000000000000000000000000000000000000000000000000000600052604160045260246000fd5b6110fd82610f93565b810181811067ffffffffffffffff8211171561111c5761111b6110c5565b5b80604052505050565b600061112f610e9f565b905061113b82826110f4565b919050565b600067ffffffffffffffff82111561115b5761115a6110c5565b5b61116482610f93565b9050602081019050919050565b82818337600083830152505050565b600061119361118e84611140565b611125565b9050828152602081018484840111156111af576111ae6110c0565b5b6111ba848285611171565b509392505050565b600082601f8301126111d7576111d66110bb565b5b81356111e7848260208601611180565b91505092915050565b6111f981610ff8565b811461120457600080fd5b50565b600081359050611216816111f0565b92915050565b600080600080600060a0868803121561123857611237610ea9565b5b600086013567ffffffffffffffff81111561125657611255610eae565b5b611262888289016111c2565b955050602086013567ffffffffffffffff81111561128357611282610eae565b5b61128f888289016111c2565b94505060406112a088828901610eca565b93505060606112b188828901610eca565b92505060806112c288828901611207565b9150509295509295909350565b6112d881610f2c565b81146112e357600080fd5b50565b6000813590506112f5816112cf565b92915050565b6000806040838503121561131257611311610ea9565b5b600061132085828601610eca565b9250506020611331858286016112e6565b9150509250929050565b7f4e487b7100000000000000000000000000000000000000000000000000000000600052602260045260246000fd5b6000600282049050600182168061138257607f821691505b6020821081036113955761139461133b565b5b50919050565b7f4f6e6c79207468652063616d706169676e206f776e65722063616e207769746860008201527f647261772066756e647300000000000000000000000000000000000000000000602082015250565b60006113f7602a83610f58565b91506114028261139b565b604082019050919050565b60006020820190508181036000830152611426816113ea565b9050919050565b7f43616e6e6f74207769746864726177206265666f726520646561646c696e652060008201527f756e6c65737320746172676574206973206d6574000000000000000000000000602082015250565b6000611489603483610f58565b91506114948261142d565b604082019050919050565b600060208201905081810360008301526114b88161147c565b9050919050565b7f46756e6473206861766520616c7265616479206265656e20776974686472617760008201527f6e00000000000000000000000000000000000000000000000000000000000000602082015250565b600061151b602183610f58565b9150611526826114bf565b604082019050919050565b6000602082019050818103600083015261154a8161150e565b9050919050565b7f4e6f2066756e647320746f207769746864726177000000000000000000000000600082015250565b6000611587601483610f58565b915061159282611551565b602082019050919050565b600060208201905081810360008301526115b68161157a565b9050919050565b600081905092915050565b50565b60006115d86000836115bd565b91506115e3826115c8565b600082019050919050565b60006115f9826115cb565b9150819050919050565b7f4661696c656420746f2073656e64204574686572000000000000000000000000600082015250565b6000611639601483610f58565b915061164482611603565b602082019050919050565b600060208201905081810360008301526116688161162c565b9050919050565b7f43616d706169676e20646f6573206e6f74206578697374000000000000000000600082015250565b60006116a5601783610f58565b91506116b08261166f565b602082019050919050565b600060208201905081810360008301526116d481611698565b9050919050565b7f43616d706169676e2068617320656e6465640000000000000000000000000000600082015250565b6000611711601283610f58565b915061171c826116db565b602082019050919050565b6000602082019050818103600083015261174081611704565b9050919050565b7f4e487b7100000000000000000000000000000000000000000000000000000000600052601160045260246000fd5b600061178182610e6b565b915061178c83610e6b565b92508282019050808211156117a4576117a3611747565b5b92915050565b7f5469746c652063616e6e6f7420626520656d7074790000000000000000000000600082015250565b60006117e0601583610f58565b91506117eb826117aa565b602082019050919050565b6000602082019050818103600083015261180f816117d3565b9050919050565b7f4465736372697074696f6e2063616e6e6f7420626520656d7074790000000000600082015250565b600061184c601b83610f58565b915061185782611816565b602082019050919050565b6000602082019050818103600083015261187b8161183f565b9050919050565b7f54617267657420616d6f756e74206d757374206265206772656174657220746860008201527f616e203000000000000000000000000000000000000000000000000000000000602082015250565b60006118de602483610f58565b91506118e982611882565b604082019050919050565b6000602082019050818103600083015261190d816118d1565b9050919050565b7f446561646c696e65206d75737420626520696e20746865206675747572650000600082015250565b600061194a601e83610f58565b915061195582611914565b602082019050919050565b600060208201905081810360008301526119798161193d565b9050919050565b7f496e76616c69642063617465676f727900000000000000000000000000000000600082015250565b60006119b6601083610f58565b91506119c182611980565b602082019050919050565b600060208201905081810360008301526119e5816119a9565b9050919050565b60008190508160005260206000209050919050565b60006020601f8301049050919050565b600082821b905092915050565b600060088302611a4e7fffffffffffffffffffffffffffffffffffffffffffffffffffffffffffffffff82611a11565b611a588683611a11565b95508019841693508086168417925050509392505050565b6000819050919050565b6000611a95611a90611a8b84610e6b565b611a70565b610e6b565b9050919050565b6000819050919050565b611aaf83611a7a565b611ac3611abb82611a9c565b848454611a1e565b825550505050565b600090565b611ad8611acb565b611ae3818484611aa6565b505050565b5b81811015611b0757611afc600082611ad0565b600181019050611ae9565b5050565b601f821115611b4c57611b1d816119ec565b611b2684611a01565b81016020851015611b35578190505b611b49611b4185611a01565b830182611ae8565b50505b505050565b600082821c905092915050565b6000611b6f60001984600802611b51565b1980831691505092915050565b6000611b888383611b5e565b9150826002028217905092915050565b611ba182610f4d565b67ffffffffffffffff811115611bba57611bb96110c5565b5b611bc4825461136a565b611bcf828285611b0b565b600060209050601f831160018114611c025760008415611bf0578287015190505b611bfa8582611b7c565b865550611c62565b601f198416611c10866119ec565b60005b82811015611c3857848901518255600182019150602085019450602081019050611c13565b86831015611c555784890151611c51601f891682611b5e565b8355505b6001600288020188555050505b505050505050565b6000611c7582610e6b565b91507fffffffffffffffffffffffffffffffffffffffffffffffffffffffffffffffff8203611ca757611ca6611747565b5b600182019050919050565b60006080820190508181036000830152611ccc8187610fa4565b9050611cdb6020830186610e75565b611ce86040830185610e75565b611cf56060830184611005565b9594505050505056fea26469706673582212200dfbec05bb643ee27c080d189222d0b22a3b062cecb5e7947f79ce3d01a0a40964736f6c63430008180033",
  "linkReferences": {},
  "deployedLinkReferences": {}
}