{
  "_format": "hh-sol-artifact-1",
  "contractName": "Crowdfunding",
  "sourceName": "contracts/Crowdfunding.sol",
  "abi": [
    {
      "anonymous": false,
      "inputs": [
        {
          "indexed": true,
          "internalType": "uint256",
          "name": "campaignId",
          "type": "uint256"
        },
        {
          "indexed": true,
          "internalType": "address",
          "name": "owner",
          "type": "address"
        },
        {
          "indexed": false,
          "internalType": "string",
          "name": "title",
          "type": "string"
        },
        {
          "indexed": false,
          "internalType": "uint256",
          "name": "target",
          "type": "uint256"
        },
        {
          "indexed": false,
          "internalType": "uint256",
          "name": "deadline",
          "type": "uint256"
        }
      ],
      "name": "CampaignCreated",
      "type": "event"
    },
    {
      "anonymous": false,
      "inputs": [
        {
          "indexed": true,
          "internalType": "uint256",
          "name": "campaignId",
          "type": "uint256"
        },
        {
          "indexed": true,
          "internalType": "address",
          "name": "donor",
          "type": "address"
        },
        {
          "indexed": false,
          "internalType": "uint256",
          "name": "amount",
          "type": "uint256"
        }
      ],
      "name": "DonationMade",
      "type": "event"
    },
    {
      "anonymous": false,
      "inputs": [
        {
          "indexed": true,
          "internalType": "uint256",
          "name": "campaignId",
          "type": "uint256"
        },
        {
          "indexed": true,
          "internalType": "address",
          "name": "owner",
          "type": "address"
        },
        {
          "indexed": false,
          "internalType": "uint256",
          "name": "amount",
          "type": "uint256"
        }
      ],
      "name": "FundsWithdrawn",
      "type": "event"
    },
    {
      "inputs": [
        {
          "internalType": "uint256",
          "name": "",
          "type": "uint256"
        }
      ],
      "name": "campaigns",
      "outputs": [
        {
          "internalType": "address",
          "name": "owner",
          "type": "address"
        },
        {
          "internalType": "string",
          "name": "title",
          "type": "string"
        },
        {
          "internalType": "string",
          "name": "description",
          "type": "string"
        },
        {
          "internalType": "uint256",
          "name": "target",
          "type": "uint256"
        },
        {
          "internalType": "uint256",
          "name": "deadline",
          "type": "uint256"
        },
        {
          "internalType": "uint256",
          "name": "amountCollected",
          "type": "uint256"
        }
      ],
      "stateMutability": "view",
      "type": "function"
    },
    {
      "inputs": [
        {
          "internalType": "string",
          "name": "_title",
          "type": "string"
        },
        {
          "internalType": "string",
          "name": "_description",
          "type": "string"
        },
        {
          "internalType": "uint256",
          "name": "_target",
          "type": "uint256"
        },
        {
          "internalType": "uint256",
          "name": "_deadline",
          "type": "uint256"
        }
      ],
      "name": "createCampaign",
      "outputs": [
        {
          "internalType": "uint256",
          "name": "",
          "type": "uint256"
        }
      ],
      "stateMutability": "nonpayable",
      "type": "function"
    },
    {
      "inputs": [
        {
          "internalType": "uint256",
          "name": "_id",
          "type": "uint256"
        }
      ],
      "name": "donateToCampaign",
      "outputs": [],
      "stateMutability": "payable",
      "type": "function"
    },
    {
      "inputs": [
        {
          "internalType": "uint256",
          "name": "_id",
          "type": "uint256"
        }
      ],
      "name": "getCampaignDetails",
      "outputs": [
        {
          "internalType": "address",
          "name": "owner",
          "type": "address"
        },
        {
          "internalType": "string",
          "name": "title",
          "type": "string"
        },
        {
          "internalType": "string",
          "name": "description",
          "type": "string"
        },
        {
          "internalType": "uint256",
          "name": "target",
          "type": "uint256"
        },
        {
          "internalType": "uint256",
          "name": "deadline",
          "type": "uint256"
        },
        {
          "internalType": "uint256",
          "name": "amountCollected",
          "type": "uint256"
        }
      ],
      "stateMutability": "view",
      "type": "function"
    },
    {
      "inputs": [
        {
          "internalType": "uint256",
          "name": "_id",
          "type": "uint256"
        },
        {
          "internalType": "address",
          "name": "_donor",
          "type": "address"
        }
      ],
      "name": "getDonationAmount",
      "outputs": [
        {
          "internalType": "uint256",
          "name": "",
          "type": "uint256"
        }
      ],
      "stateMutability": "view",
      "type": "function"
    },
    {
      "inputs": [],
      "name": "numberOfCampaigns",
      "outputs": [
        {
          "internalType": "uint256",
          "name": "",
          "type": "uint256"
        }
      ],
      "stateMutability": "view",
      "type": "function"
    },
    {
      "inputs": [
        {
          "internalType": "uint256",
          "name": "_id",
          "type": "uint256"
        }
      ],
      "name": "withdrawFunds",
      "outputs": [],
      "stateMutability": "nonpayable",
      "type": "function"
    }
  ],
  "bytecode": "0x6080604052600060015534801561001557600080fd5b5061195e806100256000396000f3fe6080604052600436106100705760003560e01c806342a4fda81161004e57806342a4fda81461010b578063a318f26914610127578063d993de6214610164578063e43826d8146101a657610070565b806307ca140d14610075578063141961bc146100a0578063155dd5ee146100e2575b600080fd5b34801561008157600080fd5b5061008a6101e3565b6040516100979190610c43565b60405180910390f35b3480156100ac57600080fd5b506100c760048036038101906100c29190610c9e565b6101e9565b6040516100d996959493929190610d9c565b60405180910390f35b3480156100ee57600080fd5b5061010960048036038101906101049190610c9e565b610355565b005b61012560048036038101906101209190610c9e565b61062e565b005b34801561013357600080fd5b5061014e60048036038101906101499190610f40565b610795565b60405161015b9190610c43565b60405180910390f35b34801561017057600080fd5b5061018b60048036038101906101869190610c9e565b6109bb565b60405161019d96959493929190610d9c565b60405180910390f35b3480156101b257600080fd5b506101cd60048036038101906101c8919061100b565b610b89565b6040516101da9190610c43565b60405180910390f35b60015481565b60006020528060005260406000206000915090508060000160009054906101000a900473ffffffffffffffffffffffffffffffffffffffff16908060010180546102329061107a565b80601f016020809104026020016040519081016040528092919081815260200182805461025e9061107a565b80156102ab5780601f10610280576101008083540402835291602001916102ab565b820191906000526020600020905b81548152906001019060200180831161028e57829003601f168201915b5050505050908060020180546102c09061107a565b80601f01602080910402602001604051908101604052809291908181526020018280546102ec9061107a565b80156103395780601f1061030e57610100808354040283529160200191610339565b820191906000526020600020905b81548152906001019060200180831161031c57829003601f168201915b5050505050908060030154908060040154908060050154905086565b6001548110610399576040517f08c379a0000000000000000000000000000000000000000000000000000000008152600401610390906110f7565b60405180910390fd5b600080600083815260200190815260200160002090503373ffffffffffffffffffffffffffffffffffffffff168160000160009054906101000a900473ffffffffffffffffffffffffffffffffffffffff1673ffffffffffffffffffffffffffffffffffffffff1614610441576040517f08c379a000000000000000000000000000000000000000000000000000000000815260040161043890611189565b60405180910390fd5b80600301548160050154101561048c576040517f08c379a00000000000000000000000000000000000000000000000000000000081526004016104839061121b565b60405180910390fd5b806004015442116104d2576040517f08c379a00000000000000000000000000000000000000000000000000000000081526004016104c9906112ad565b60405180910390fd5b6000816005015490506000826005018190555060008260000160009054906101000a900473ffffffffffffffffffffffffffffffffffffffff1673ffffffffffffffffffffffffffffffffffffffff168260405161052f906112fe565b60006040518083038185875af1925050503d806000811461056c576040519150601f19603f3d011682016040523d82523d6000602084013e610571565b606091505b50509050806105b5576040517f08c379a00000000000000000000000000000000000000000000000000000000081526004016105ac9061135f565b60405180910390fd5b8260000160009054906101000a900473ffffffffffffffffffffffffffffffffffffffff1673ffffffffffffffffffffffffffffffffffffffff16847ff440aec6b52895984d061d622e6edeba6210f7c3e059be920663140c084560d7846040516106209190610c43565b60405180910390a350505050565b6001548110610672576040517f08c379a0000000000000000000000000000000000000000000000000000000008152600401610669906110f7565b60405180910390fd5b6000806000838152602001908152602001600020905080600401544211156106cf576040517f08c379a00000000000000000000000000000000000000000000000000000000081526004016106c6906113cb565b60405180910390fd5b348160060160003373ffffffffffffffffffffffffffffffffffffffff1673ffffffffffffffffffffffffffffffffffffffff1681526020019081526020016000206000828254610720919061141a565b925050819055503481600501600082825461073b919061141a565b925050819055503373ffffffffffffffffffffffffffffffffffffffff16827fe555da28bdb778f65d22794d88927ebaeca03f7de9d1b7d39245bc8fb5ca078a346040516107899190610c43565b60405180910390a35050565b6000808551116107da576040517f08c379a00000000000000000000000000000000000000000000000000000000081526004016107d19061149a565b60405180910390fd5b600084511161081e576040517f08c379a000000000000000000000000000000000000000000000000000000000815260040161081590611506565b60405180910390fd5b60008311610861576040517f08c379a000000000000000000000000000000000000000000000000000000000815260040161085890611598565b60405180910390fd5b4282116108a3576040517f08c379a000000000000000000000000000000000000000000000000000000000815260040161089a90611604565b60405180910390fd5b6000600154905060008060008381526020019081526020016000209050338160000160006101000a81548173ffffffffffffffffffffffffffffffffffffffff021916908373ffffffffffffffffffffffffffffffffffffffff1602179055508681600101908161091491906117d0565b508581600201908161092691906117d0565b508481600301819055508381600401819055506000816005018190555060016000815480929190610956906118a2565b91905055503373ffffffffffffffffffffffffffffffffffffffff16827fdc26653af5b99b2da33e2ad69ee6600d9aeccc82b034501db4338309615ca2388988886040516109a6939291906118ea565b60405180910390a38192505050949350505050565b600060608060008060006001548710610a09576040517f08c379a0000000000000000000000000000000000000000000000000000000008152600401610a00906110f7565b60405180910390fd5b600080600089815260200190815260200160002090508060000160009054906101000a900473ffffffffffffffffffffffffffffffffffffffff168160010182600201836003015484600401548560050154848054610a679061107a565b80601f0160208091040260200160405190810160405280929190818152602001828054610a939061107a565b8015610ae05780601f10610ab557610100808354040283529160200191610ae0565b820191906000526020600020905b815481529060010190602001808311610ac357829003601f168201915b50505050509450838054610af39061107a565b80601f0160208091040260200160405190810160405280929190818152602001828054610b1f9061107a565b8015610b6c5780601f10610b4157610100808354040283529160200191610b6c565b820191906000526020600020905b815481529060010190602001808311610b4f57829003601f168201915b505050505093509650965096509650965096505091939550919395565b60006001548310610bcf576040517f08c379a0000000000000000000000000000000000000000000000000000000008152600401610bc6906110f7565b60405180910390fd5b60008084815260200190815260200160002060060160008373ffffffffffffffffffffffffffffffffffffffff1673ffffffffffffffffffffffffffffffffffffffff16815260200190815260200160002054905092915050565b6000819050919050565b610c3d81610c2a565b82525050565b6000602082019050610c586000830184610c34565b92915050565b6000604051905090565b600080fd5b600080fd5b610c7b81610c2a565b8114610c8657600080fd5b50565b600081359050610c9881610c72565b92915050565b600060208284031215610cb457610cb3610c68565b5b6000610cc284828501610c89565b91505092915050565b600073ffffffffffffffffffffffffffffffffffffffff82169050919050565b6000610cf682610ccb565b9050919050565b610d0681610ceb565b82525050565b600081519050919050565b600082825260208201905092915050565b60005b83811015610d46578082015181840152602081019050610d2b565b60008484015250505050565b6000601f19601f8301169050919050565b6000610d6e82610d0c565b610d788185610d17565b9350610d88818560208601610d28565b610d9181610d52565b840191505092915050565b600060c082019050610db16000830189610cfd565b8181036020830152610dc38188610d63565b90508181036040830152610dd78187610d63565b9050610de66060830186610c34565b610df36080830185610c34565b610e0060a0830184610c34565b979650505050505050565b600080fd5b600080fd5b7f4e487b7100000000000000000000000000000000000000000000000000000000600052604160045260246000fd5b610e4d82610d52565b810181811067ffffffffffffffff82111715610e6c57610e6b610e15565b5b80604052505050565b6000610e7f610c5e565b9050610e8b8282610e44565b919050565b600067ffffffffffffffff821115610eab57610eaa610e15565b5b610eb482610d52565b9050602081019050919050565b82818337600083830152505050565b6000610ee3610ede84610e90565b610e75565b905082815260208101848484011115610eff57610efe610e10565b5b610f0a848285610ec1565b509392505050565b600082601f830112610f2757610f26610e0b565b5b8135610f37848260208601610ed0565b91505092915050565b60008060008060808587031215610f5a57610f59610c68565b5b600085013567ffffffffffffffff811115610f7857610f77610c6d565b5b610f8487828801610f12565b945050602085013567ffffffffffffffff811115610fa557610fa4610c6d565b5b610fb187828801610f12565b9350506040610fc287828801610c89565b9250506060610fd387828801610c89565b91505092959194509250565b610fe881610ceb565b8114610ff357600080fd5b50565b60008135905061100581610fdf565b92915050565b6000806040838503121561102257611021610c68565b5b600061103085828601610c89565b925050602061104185828601610ff6565b9150509250929050565b7f4e487b7100000000000000000000000000000000000000000000000000000000600052602260045260246000fd5b6000600282049050600182168061109257607f821691505b6020821081036110a5576110a461104b565b5b50919050565b7f43616d706169676e20646f6573206e6f74206578697374000000000000000000600082015250565b60006110e1601783610d17565b91506110ec826110ab565b602082019050919050565b60006020820190508181036000830152611110816110d4565b9050919050565b7f4f6e6c79207468652063616d706169676e206f776e65722063616e207769746860008201527f647261772066756e647300000000000000000000000000000000000000000000602082015250565b6000611173602a83610d17565b915061117e82611117565b604082019050919050565b600060208201905081810360008301526111a281611166565b9050919050565b7f5468652063616d706169676e2074617267657420686173206e6f74206265656e60008201527f206d657400000000000000000000000000000000000000000000000000000000602082015250565b6000611205602483610d17565b9150611210826111a9565b604082019050919050565b60006020820190508181036000830152611234816111f8565b9050919050565b7f5468652063616d706169676e20646561646c696e6520686173206e6f7420706160008201527f7373656400000000000000000000000000000000000000000000000000000000602082015250565b6000611297602483610d17565b91506112a28261123b565b604082019050919050565b600060208201905081810360008301526112c68161128a565b9050919050565b600081905092915050565b50565b60006112e86000836112cd565b91506112f3826112d8565b600082019050919050565b6000611309826112db565b9150819050919050565b7f4661696c656420746f2077697468647261772066756e64730000000000000000600082015250565b6000611349601883610d17565b915061135482611313565b602082019050919050565b600060208201905081810360008301526113788161133c565b9050919050565b7f43616d706169676e2068617320656e6465640000000000000000000000000000600082015250565b60006113b5601283610d17565b91506113c08261137f565b602082019050919050565b600060208201905081810360008301526113e4816113a8565b9050919050565b7f4e487b7100000000000000000000000000000000000000000000000000000000600052601160045260246000fd5b600061142582610c2a565b915061143083610c2a565b9250828201905080821115611448576114476113eb565b5b92915050565b7f5469746c652063616e6e6f7420626520656d7074790000000000000000000000600082015250565b6000611484601583610d17565b915061148f8261144e565b602082019050919050565b600060208201905081810360008301526114b381611477565b9050919050565b7f4465736372697074696f6e2063616e6e6f7420626520656d7074790000000000600082015250565b60006114f0601b83610d17565b91506114fb826114ba565b602082019050919050565b6000602082019050818103600083015261151f816114e3565b9050919050565b7f54617267657420616d6f756e74206d757374206265206772656174657220746860008201527f616e203000000000000000000000000000000000000000000000000000000000602082015250565b6000611582602483610d17565b915061158d82611526565b604082019050919050565b600060208201905081810360008301526115b181611575565b9050919050565b7f446561646c696e65206d75737420626520696e20746865206675747572650000600082015250565b60006115ee601e83610d17565b91506115f9826115b8565b602082019050919050565b6000602082019050818103600083015261161d816115e1565b9050919050565b60008190508160005260206000209050919050565b60006020601f8301049050919050565b600082821b905092915050565b6000600883026116867fffffffffffffffffffffffffffffffffffffffffffffffffffffffffffffffff82611649565b6116908683611649565b95508019841693508086168417925050509392505050565b6000819050919050565b60006116cd6116c86116c384610c2a565b6116a8565b610c2a565b9050919050565b6000819050919050565b6116e7836116b2565b6116fb6116f3826116d4565b848454611656565b825550505050565b600090565b611710611703565b61171b8184846116de565b505050565b5b8181101561173f57611734600082611708565b600181019050611721565b5050565b601f8211156117845761175581611624565b61175e84611639565b8101602085101561176d578190505b61178161177985611639565b830182611720565b50505b505050565b600082821c905092915050565b60006117a760001984600802611789565b1980831691505092915050565b60006117c08383611796565b9150826002028217905092915050565b6117d982610d0c565b67ffffffffffffffff8111156117f2576117f1610e15565b5b6117fc825461107a565b611807828285611743565b600060209050601f83116001811461183a5760008415611828578287015190505b61183285826117b4565b86555061189a565b601f19841661184886611624565b60005b828110156118705784890151825560018201915060208501945060208101905061184b565b8683101561188d5784890151611889601f891682611796565b8355505b6001600288020188555050505b505050505050565b60006118ad82610c2a565b91507fffffffffffffffffffffffffffffffffffffffffffffffffffffffffffffffff82036118df576118de6113eb565b5b600182019050919050565b600060608201905081810360008301526119048186610d63565b90506119136020830185610c34565b6119206040830184610c34565b94935050505056fea264697066735822122049e23e48923d1b74745227b6168a0b84f7aefda0af9b9c814163d1e03964860964736f6c63430008180033",
  "linkReferences": {},
  "deployedLinkReferences": {}
}