{
  "_format": "hh-sol-artifact-1",
  "contractName": "Crowdfunding",
  "sourceName": "contracts/Crowdfunding.sol",
  "abi": [
    {
      "inputs": [],
      "name": "ReentrancyGuardReentrantCall",
      "type": "error"
    },
    {
      "anonymous": false,
      "inputs": [
        {
          "indexed": false,
          "internalType": "uint256",
          "name": "campaignId",
          "type": "uint256"
        },
        {
          "indexed": false,
          "internalType": "address",
          "name": "creator",
          "type": "address"
        },
        {
          "indexed": false,
          "internalType": "string",
          "name": "title",
          "type": "string"
        },
        {
          "indexed": false,
          "internalType": "uint256",
          "name": "goal",
          "type": "uint256"
        },
        {
          "indexed": false,
          "internalType": "uint256",
          "name": "deadline",
          "type": "uint256"
        }
      ],
      "name": "CampaignCreated",
      "type": "event"
    },
    {
      "anonymous": false,
      "inputs": [
        {
          "indexed": false,
          "internalType": "uint256",
          "name": "campaignId",
          "type": "uint256"
        },
        {
          "indexed": false,
          "internalType": "address",
          "name": "contributor",
          "type": "address"
        },
        {
          "indexed": false,
          "internalType": "uint256",
          "name": "amount",
          "type": "uint256"
        }
      ],
      "name": "ContributionMade",
      "type": "event"
    },
    {
      "anonymous": false,
      "inputs": [
        {
          "indexed": false,
          "internalType": "uint256",
          "name": "campaignId",
          "type": "uint256"
        },
        {
          "indexed": false,
          "internalType": "address",
          "name": "creator",
          "type": "address"
        },
        {
          "indexed": false,
          "internalType": "uint256",
          "name": "amount",
          "type": "uint256"
        }
      ],
      "name": "FundsClaimed",
      "type": "event"
    },
    {
      "anonymous": false,
      "inputs": [
        {
          "indexed": false,
          "internalType": "uint256",
          "name": "campaignId",
          "type": "uint256"
        },
        {
          "indexed": false,
          "internalType": "address",
          "name": "contributor",
          "type": "address"
        },
        {
          "indexed": false,
          "internalType": "uint256",
          "name": "amount",
          "type": "uint256"
        }
      ],
      "name": "FundsRefunded",
      "type": "event"
    },
    {
      "inputs": [],
      "name": "campaignCount",
      "outputs": [
        {
          "internalType": "uint256",
          "name": "",
          "type": "uint256"
        }
      ],
      "stateMutability": "view",
      "type": "function"
    },
    {
      "inputs": [
        {
          "internalType": "uint256",
          "name": "",
          "type": "uint256"
        }
      ],
      "name": "campaigns",
      "outputs": [
        {
          "internalType": "address payable",
          "name": "creator",
          "type": "address"
        },
        {
          "internalType": "string",
          "name": "title",
          "type": "string"
        },
        {
          "internalType": "string",
          "name": "description",
          "type": "string"
        },
        {
          "internalType": "uint256",
          "name": "goal",
          "type": "uint256"
        },
        {
          "internalType": "uint256",
          "name": "deadline",
          "type": "uint256"
        },
        {
          "internalType": "uint256",
          "name": "amountRaised",
          "type": "uint256"
        },
        {
          "internalType": "bool",
          "name": "claimed",
          "type": "bool"
        }
      ],
      "stateMutability": "view",
      "type": "function"
    },
    {
      "inputs": [
        {
          "internalType": "uint256",
          "name": "_campaignId",
          "type": "uint256"
        }
      ],
      "name": "claimFunds",
      "outputs": [],
      "stateMutability": "nonpayable",
      "type": "function"
    },
    {
      "inputs": [
        {
          "internalType": "uint256",
          "name": "_campaignId",
          "type": "uint256"
        }
      ],
      "name": "contribute",
      "outputs": [],
      "stateMutability": "payable",
      "type": "function"
    },
    {
      "inputs": [
        {
          "internalType": "string",
          "name": "_title",
          "type": "string"
        },
        {
          "internalType": "string",
          "name": "_description",
          "type": "string"
        },
        {
          "internalType": "uint256",
          "name": "_goal",
          "type": "uint256"
        },
        {
          "internalType": "uint256",
          "name": "_durationInDays",
          "type": "uint256"
        }
      ],
      "name": "createCampaign",
      "outputs": [],
      "stateMutability": "nonpayable",
      "type": "function"
    },
    {
      "inputs": [
        {
          "internalType": "uint256",
          "name": "_campaignId",
          "type": "uint256"
        }
      ],
      "name": "getCampaignDetails",
      "outputs": [
        {
          "internalType": "address",
          "name": "creator",
          "type": "address"
        },
        {
          "internalType": "string",
          "name": "title",
          "type": "string"
        },
        {
          "internalType": "string",
          "name": "description",
          "type": "string"
        },
        {
          "internalType": "uint256",
          "name": "goal",
          "type": "uint256"
        },
        {
          "internalType": "uint256",
          "name": "deadline",
          "type": "uint256"
        },
        {
          "internalType": "uint256",
          "name": "amountRaised",
          "type": "uint256"
        },
        {
          "internalType": "bool",
          "name": "claimed",
          "type": "bool"
        }
      ],
      "stateMutability": "view",
      "type": "function"
    },
    {
      "inputs": [
        {
          "internalType": "uint256",
          "name": "_campaignId",
          "type": "uint256"
        },
        {
          "internalType": "address",
          "name": "_contributor",
          "type": "address"
        }
      ],
      "name": "getContribution",
      "outputs": [
        {
          "internalType": "uint256",
          "name": "",
          "type": "uint256"
        }
      ],
      "stateMutability": "view",
      "type": "function"
    },
    {
      "inputs": [
        {
          "internalType": "uint256",
          "name": "_campaignId",
          "type": "uint256"
        }
      ],
      "name": "refund",
      "outputs": [],
      "stateMutability": "nonpayable",
      "type": "function"
    }
  ],
  "bytecode": "0x608060405234801561001057600080fd5b506001600081905550611e1d806100286000396000f3fe60806040526004361061007b5760003560e01c8063a318f2691161004e578063a318f26914610140578063c1cbbca714610169578063d993de6214610185578063e081dbf9146101c85761007b565b8063141961bc146100805780631b55e338146100c3578063278ecde1146100ec5780637274e30d14610115575b600080fd5b34801561008c57600080fd5b506100a760048036038101906100a29190610eb1565b610205565b6040516100ba9796959493929190610fd9565b60405180910390f35b3480156100cf57600080fd5b506100ea60048036038101906100e59190610eb1565b610384565b005b3480156100f857600080fd5b50610113600480360381019061010e9190610eb1565b610686565b005b34801561012157600080fd5b5061012a610916565b6040516101379190611056565b60405180910390f35b34801561014c57600080fd5b50610167600480360381019061016291906111a6565b61091c565b005b610183600480360381019061017e9190610eb1565b610ab5565b005b34801561019157600080fd5b506101ac60048036038101906101a79190610eb1565b610c17565b6040516101bf9796959493929190611266565b60405180910390f35b3480156101d457600080fd5b506101ef60048036038101906101ea919061130f565b610db9565b6040516101fc9190611056565b60405180910390f35b60026020528060005260406000206000915090508060000160009054906101000a900473ffffffffffffffffffffffffffffffffffffffff169080600101805461024e9061137e565b80601f016020809104026020016040519081016040528092919081815260200182805461027a9061137e565b80156102c75780601f1061029c576101008083540402835291602001916102c7565b820191906000526020600020905b8154815290600101906020018083116102aa57829003601f168201915b5050505050908060020180546102dc9061137e565b80601f01602080910402602001604051908101604052809291908181526020018280546103089061137e565b80156103555780601f1061032a57610100808354040283529160200191610355565b820191906000526020600020905b81548152906001019060200180831161033857829003601f168201915b5050505050908060030154908060040154908060050154908060060160009054906101000a900460ff16905087565b61038c610e17565b60006002600083815260200190815260200160002090508060000160009054906101000a900473ffffffffffffffffffffffffffffffffffffffff1673ffffffffffffffffffffffffffffffffffffffff163373ffffffffffffffffffffffffffffffffffffffff1614610435576040517f08c379a000000000000000000000000000000000000000000000000000000000815260040161042c906113fb565b60405180910390fd5b806004015442101561047c576040517f08c379a000000000000000000000000000000000000000000000000000000000815260040161047390611467565b60405180910390fd5b8060030154816005015410156104c7576040517f08c379a00000000000000000000000000000000000000000000000000000000081526004016104be906114d3565b60405180910390fd5b8060060160009054906101000a900460ff1615610519576040517f08c379a00000000000000000000000000000000000000000000000000000000081526004016105109061153f565b60405180910390fd5b60018160060160006101000a81548160ff0219169083151502179055506000816005015490506000826005018190555060008260000160009054906101000a900473ffffffffffffffffffffffffffffffffffffffff1673ffffffffffffffffffffffffffffffffffffffff168260405161059390611590565b60006040518083038185875af1925050503d80600081146105d0576040519150601f19603f3d011682016040523d82523d6000602084013e6105d5565b606091505b5050905080610619576040517f08c379a0000000000000000000000000000000000000000000000000000000008152600401610610906115f1565b60405180910390fd5b7fa4eb50103b0591feb0bc913f479d92af5eb7ea33e8c397b49bab52ce6af26cb5848460000160009054906101000a900473ffffffffffffffffffffffffffffffffffffffff168460405161067093929190611670565b60405180910390a1505050610683610e5d565b50565b61068e610e17565b600060026000838152602001908152602001600020905080600401544210156106ec576040517f08c379a00000000000000000000000000000000000000000000000000000000081526004016106e390611467565b60405180910390fd5b8060030154816005015410610736576040517f08c379a000000000000000000000000000000000000000000000000000000000815260040161072d906116f3565b60405180910390fd5b60008160070160003373ffffffffffffffffffffffffffffffffffffffff1673ffffffffffffffffffffffffffffffffffffffff168152602001908152602001600020549050600081116107bf576040517f08c379a00000000000000000000000000000000000000000000000000000000081526004016107b69061175f565b60405180910390fd5b60008260070160003373ffffffffffffffffffffffffffffffffffffffff1673ffffffffffffffffffffffffffffffffffffffff168152602001908152602001600020819055508082600501600082825461081a91906117ae565b9250508190555060003373ffffffffffffffffffffffffffffffffffffffff168260405161084790611590565b60006040518083038185875af1925050503d8060008114610884576040519150601f19603f3d011682016040523d82523d6000602084013e610889565b606091505b50509050806108cd576040517f08c379a00000000000000000000000000000000000000000000000000000000081526004016108c49061182e565b60405180910390fd5b7f80b577b4fc190ab86d963549e29f496afd079c5d81a2480d61217d4b5060a28c8433846040516109009392919061184e565b60405180910390a1505050610913610e5d565b50565b60015481565b6000821161095f576040517f08c379a0000000000000000000000000000000000000000000000000000000008152600401610956906118d1565b60405180910390fd5b600081116109a2576040517f08c379a00000000000000000000000000000000000000000000000000000000081526004016109999061193d565b60405180910390fd5b600160008154809291906109b59061195d565b9190505550600060015490506000600260008381526020019081526020016000209050338160000160006101000a81548173ffffffffffffffffffffffffffffffffffffffff021916908373ffffffffffffffffffffffffffffffffffffffff16021790555085816001019081610a2c9190611b47565b5084816002019081610a3e9190611b47565b508381600301819055506201518083610a579190611c19565b42610a629190611c5b565b81600401819055507fdc26653af5b99b2da33e2ad69ee6600d9aeccc82b034501db4338309615ca238823388878560040154604051610aa5959493929190611c8f565b60405180910390a1505050505050565b610abd610e17565b600060026000838152602001908152602001600020905080600401544210610b1a576040517f08c379a0000000000000000000000000000000000000000000000000000000008152600401610b1190611d35565b60405180910390fd5b60003411610b5d576040517f08c379a0000000000000000000000000000000000000000000000000000000008152600401610b5490611dc7565b60405180910390fd5b348160070160003373ffffffffffffffffffffffffffffffffffffffff1673ffffffffffffffffffffffffffffffffffffffff1681526020019081526020016000206000828254610bae9190611c5b565b9250508190555034816005016000828254610bc99190611c5b565b925050819055507f0a4a91237423e0a1766a761c7cb029311d8b95d6b1b81db1b949a70c98b4e08e823334604051610c039392919061184e565b60405180910390a150610c14610e5d565b50565b60006060806000806000806000600260008a815260200190815260200160002090508060000160009054906101000a900473ffffffffffffffffffffffffffffffffffffffff1681600101826002018360030154846004015485600501548660060160009054906101000a900460ff16858054610c939061137e565b80601f0160208091040260200160405190810160405280929190818152602001828054610cbf9061137e565b8015610d0c5780601f10610ce157610100808354040283529160200191610d0c565b820191906000526020600020905b815481529060010190602001808311610cef57829003601f168201915b50505050509550848054610d1f9061137e565b80601f0160208091040260200160405190810160405280929190818152602001828054610d4b9061137e565b8015610d985780601f10610d6d57610100808354040283529160200191610d98565b820191906000526020600020905b815481529060010190602001808311610d7b57829003601f168201915b50505050509450975097509750975097509750975050919395979092949650565b60006002600084815260200190815260200160002060070160008373ffffffffffffffffffffffffffffffffffffffff1673ffffffffffffffffffffffffffffffffffffffff16815260200190815260200160002054905092915050565b600260005403610e53576040517f3ee5aeb500000000000000000000000000000000000000000000000000000000815260040160405180910390fd5b6002600081905550565b6001600081905550565b6000604051905090565b600080fd5b600080fd5b6000819050919050565b610e8e81610e7b565b8114610e9957600080fd5b50565b600081359050610eab81610e85565b92915050565b600060208284031215610ec757610ec6610e71565b5b6000610ed584828501610e9c565b91505092915050565b600073ffffffffffffffffffffffffffffffffffffffff82169050919050565b6000610f0982610ede565b9050919050565b610f1981610efe565b82525050565b600081519050919050565b600082825260208201905092915050565b60005b83811015610f59578082015181840152602081019050610f3e565b60008484015250505050565b6000601f19601f8301169050919050565b6000610f8182610f1f565b610f8b8185610f2a565b9350610f9b818560208601610f3b565b610fa481610f65565b840191505092915050565b610fb881610e7b565b82525050565b60008115159050919050565b610fd381610fbe565b82525050565b600060e082019050610fee600083018a610f10565b81810360208301526110008189610f76565b905081810360408301526110148188610f76565b90506110236060830187610faf565b6110306080830186610faf565b61103d60a0830185610faf565b61104a60c0830184610fca565b98975050505050505050565b600060208201905061106b6000830184610faf565b92915050565b600080fd5b600080fd5b7f4e487b7100000000000000000000000000000000000000000000000000000000600052604160045260246000fd5b6110b382610f65565b810181811067ffffffffffffffff821117156110d2576110d161107b565b5b80604052505050565b60006110e5610e67565b90506110f182826110aa565b919050565b600067ffffffffffffffff8211156111115761111061107b565b5b61111a82610f65565b9050602081019050919050565b82818337600083830152505050565b6000611149611144846110f6565b6110db565b90508281526020810184848401111561116557611164611076565b5b611170848285611127565b509392505050565b600082601f83011261118d5761118c611071565b5b813561119d848260208601611136565b91505092915050565b600080600080608085870312156111c0576111bf610e71565b5b600085013567ffffffffffffffff8111156111de576111dd610e76565b5b6111ea87828801611178565b945050602085013567ffffffffffffffff81111561120b5761120a610e76565b5b61121787828801611178565b935050604061122887828801610e9c565b925050606061123987828801610e9c565b91505092959194509250565b600061125082610ede565b9050919050565b61126081611245565b82525050565b600060e08201905061127b600083018a611257565b818103602083015261128d8189610f76565b905081810360408301526112a18188610f76565b90506112b06060830187610faf565b6112bd6080830186610faf565b6112ca60a0830185610faf565b6112d760c0830184610fca565b98975050505050505050565b6112ec81611245565b81146112f757600080fd5b50565b600081359050611309816112e3565b92915050565b6000806040838503121561132657611325610e71565b5b600061133485828601610e9c565b9250506020611345858286016112fa565b9150509250929050565b7f4e487b7100000000000000000000000000000000000000000000000000000000600052602260045260246000fd5b6000600282049050600182168061139657607f821691505b6020821081036113a9576113a861134f565b5b50919050565b7f4f6e6c79207468652063726561746f722063616e20636c61696d2066756e6473600082015250565b60006113e5602083610f2a565b91506113f0826113af565b602082019050919050565b60006020820190508181036000830152611414816113d8565b9050919050565b7f43616d706169676e20686173206e6f7420656e64656420796574000000000000600082015250565b6000611451601a83610f2a565b915061145c8261141b565b602082019050919050565b6000602082019050818103600083015261148081611444565b9050919050565b7f46756e64696e6720676f616c206e6f7420726561636865640000000000000000600082015250565b60006114bd601883610f2a565b91506114c882611487565b602082019050919050565b600060208201905081810360008301526114ec816114b0565b9050919050565b7f46756e6473206861766520616c7265616479206265656e20636c61696d656400600082015250565b6000611529601f83610f2a565b9150611534826114f3565b602082019050919050565b600060208201905081810360008301526115588161151c565b9050919050565b600081905092915050565b50565b600061157a60008361155f565b91506115858261156a565b600082019050919050565b600061159b8261156d565b9150819050919050565b7f4661696c656420746f2073656e642066756e647320746f2063726561746f7200600082015250565b60006115db601f83610f2a565b91506115e6826115a5565b602082019050919050565b6000602082019050818103600083015261160a816115ce565b9050919050565b6000819050919050565b600061163661163161162c84610ede565b611611565b610ede565b9050919050565b60006116488261161b565b9050919050565b600061165a8261163d565b9050919050565b61166a8161164f565b82525050565b60006060820190506116856000830186610faf565b6116926020830185611661565b61169f6040830184610faf565b949350505050565b7f46756e64696e6720676f616c2077617320726561636865640000000000000000600082015250565b60006116dd601883610f2a565b91506116e8826116a7565b602082019050919050565b6000602082019050818103600083015261170c816116d0565b9050919050565b7f4e6f20636f6e747269627574696f6e20666f756e640000000000000000000000600082015250565b6000611749601583610f2a565b915061175482611713565b602082019050919050565b600060208201905081810360008301526117788161173c565b9050919050565b7f4e487b7100000000000000000000000000000000000000000000000000000000600052601160045260246000fd5b60006117b982610e7b565b91506117c483610e7b565b92508282039050818111156117dc576117db61177f565b5b92915050565b7f4661696c656420746f2073656e6420726566756e640000000000000000000000600082015250565b6000611818601583610f2a565b9150611823826117e2565b602082019050919050565b600060208201905081810360008301526118478161180b565b9050919050565b60006060820190506118636000830186610faf565b6118706020830185611257565b61187d6040830184610faf565b949350505050565b7f476f616c206d7573742062652067726561746572207468616e20300000000000600082015250565b60006118bb601b83610f2a565b91506118c682611885565b602082019050919050565b600060208201905081810360008301526118ea816118ae565b9050919050565b7f4475726174696f6e206d7573742062652067726561746572207468616e203000600082015250565b6000611927601f83610f2a565b9150611932826118f1565b602082019050919050565b600060208201905081810360008301526119568161191a565b9050919050565b600061196882610e7b565b91507fffffffffffffffffffffffffffffffffffffffffffffffffffffffffffffffff820361199a5761199961177f565b5b600182019050919050565b60008190508160005260206000209050919050565b60006020601f8301049050919050565b600082821b905092915050565b600060088302611a077fffffffffffffffffffffffffffffffffffffffffffffffffffffffffffffffff826119ca565b611a1186836119ca565b95508019841693508086168417925050509392505050565b6000611a44611a3f611a3a84610e7b565b611611565b610e7b565b9050919050565b6000819050919050565b611a5e83611a29565b611a72611a6a82611a4b565b8484546119d7565b825550505050565b600090565b611a87611a7a565b611a92818484611a55565b505050565b5b81811015611ab657611aab600082611a7f565b600181019050611a98565b5050565b601f821115611afb57611acc816119a5565b611ad5846119ba565b81016020851015611ae4578190505b611af8611af0856119ba565b830182611a97565b50505b505050565b600082821c905092915050565b6000611b1e60001984600802611b00565b1980831691505092915050565b6000611b378383611b0d565b9150826002028217905092915050565b611b5082610f1f565b67ffffffffffffffff811115611b6957611b6861107b565b5b611b73825461137e565b611b7e828285611aba565b600060209050601f831160018114611bb15760008415611b9f578287015190505b611ba98582611b2b565b865550611c11565b601f198416611bbf866119a5565b60005b82811015611be757848901518255600182019150602085019450602081019050611bc2565b86831015611c045784890151611c00601f891682611b0d565b8355505b6001600288020188555050505b505050505050565b6000611c2482610e7b565b9150611c2f83610e7b565b9250828202611c3d81610e7b565b91508282048414831517611c5457611c5361177f565b5b5092915050565b6000611c6682610e7b565b9150611c7183610e7b565b9250828201905080821115611c8957611c8861177f565b5b92915050565b600060a082019050611ca46000830188610faf565b611cb16020830187611257565b8181036040830152611cc38186610f76565b9050611cd26060830185610faf565b611cdf6080830184610faf565b9695505050505050565b7f43616d706169676e2068617320656e6465640000000000000000000000000000600082015250565b6000611d1f601283610f2a565b9150611d2a82611ce9565b602082019050919050565b60006020820190508181036000830152611d4e81611d12565b9050919050565b7f436f6e747269627574696f6e206d75737420626520677265617465722074686160008201527f6e20300000000000000000000000000000000000000000000000000000000000602082015250565b6000611db1602383610f2a565b9150611dbc82611d55565b604082019050919050565b60006020820190508181036000830152611de081611da4565b905091905056fea2646970667358221220d9fe40bbef6708d1912b1c5fbf0124765f9b2a48a8fa2e86cdff124a29cf582464736f6c63430008180033",
  "linkReferences": {},
  "deployedLinkReferences": {}
}