{
  "_format": "hh-sol-artifact-1",
  "contractName": "Crowdfunding",
  "sourceName": "contracts/Crowdfunding.sol",
  "abi": [
    {
      "inputs": [],
      "name": "ReentrancyGuardReentrantCall",
      "type": "error"
    },
    {
      "anonymous": false,
      "inputs": [
        {
          "indexed": false,
          "internalType": "uint256",
          "name": "campaignId",
          "type": "uint256"
        },
        {
          "indexed": false,
          "internalType": "address",
          "name": "creator",
          "type": "address"
        },
        {
          "indexed": false,
          "internalType": "string",
          "name": "title",
          "type": "string"
        },
        {
          "indexed": false,
          "internalType": "uint256",
          "name": "goal",
          "type": "uint256"
        },
        {
          "indexed": false,
          "internalType": "uint256",
          "name": "deadline",
          "type": "uint256"
        }
      ],
      "name": "CampaignCreated",
      "type": "event"
    },
    {
      "anonymous": false,
      "inputs": [
        {
          "indexed": false,
          "internalType": "uint256",
          "name": "campaignId",
          "type": "uint256"
        },
        {
          "indexed": false,
          "internalType": "address",
          "name": "contributor",
          "type": "address"
        },
        {
          "indexed": false,
          "internalType": "uint256",
          "name": "amount",
          "type": "uint256"
        }
      ],
      "name": "ContributionMade",
      "type": "event"
    },
    {
      "anonymous": false,
      "inputs": [
        {
          "indexed": false,
          "internalType": "uint256",
          "name": "campaignId",
          "type": "uint256"
        },
        {
          "indexed": false,
          "internalType": "address",
          "name": "creator",
          "type": "address"
        },
        {
          "indexed": false,
          "internalType": "uint256",
          "name": "amount",
          "type": "uint256"
        }
      ],
      "name": "FundsClaimed",
      "type": "event"
    },
    {
      "anonymous": false,
      "inputs": [
        {
          "indexed": false,
          "internalType": "uint256",
          "name": "campaignId",
          "type": "uint256"
        },
        {
          "indexed": false,
          "internalType": "address",
          "name": "contributor",
          "type": "address"
        },
        {
          "indexed": false,
          "internalType": "uint256",
          "name": "amount",
          "type": "uint256"
        }
      ],
      "name": "FundsRefunded",
      "type": "event"
    },
    {
      "inputs": [
        {
          "internalType": "uint256",
          "name": "",
          "type": "uint256"
        }
      ],
      "name": "campaigns",
      "outputs": [
        {
          "internalType": "address payable",
          "name": "creator",
          "type": "address"
        },
        {
          "internalType": "string",
          "name": "title",
          "type": "string"
        },
        {
          "internalType": "string",
          "name": "description",
          "type": "string"
        },
        {
          "internalType": "uint256",
          "name": "goal",
          "type": "uint256"
        },
        {
          "internalType": "uint256",
          "name": "deadline",
          "type": "uint256"
        },
        {
          "internalType": "uint256",
          "name": "amountRaised",
          "type": "uint256"
        },
        {
          "internalType": "bool",
          "name": "claimed",
          "type": "bool"
        }
      ],
      "stateMutability": "view",
      "type": "function"
    },
    {
      "inputs": [
        {
          "internalType": "uint256",
          "name": "_campaignId",
          "type": "uint256"
        }
      ],
      "name": "claimFunds",
      "outputs": [],
      "stateMutability": "nonpayable",
      "type": "function"
    },
    {
      "inputs": [
        {
          "internalType": "uint256",
          "name": "_campaignId",
          "type": "uint256"
        }
      ],
      "name": "contribute",
      "outputs": [],
      "stateMutability": "payable",
      "type": "function"
    },
    {
      "inputs": [
        {
          "internalType": "string",
          "name": "_title",
          "type": "string"
        },
        {
          "internalType": "string",
          "name": "_description",
          "type": "string"
        },
        {
          "internalType": "uint256",
          "name": "_goal",
          "type": "uint256"
        },
        {
          "internalType": "uint256",
          "name": "_durationInDays",
          "type": "uint256"
        }
      ],
      "name": "createCampaign",
      "outputs": [],
      "stateMutability": "nonpayable",
      "type": "function"
    },
    {
      "inputs": [
        {
          "internalType": "uint256",
          "name": "_campaignId",
          "type": "uint256"
        }
      ],
      "name": "getCampaignDetails",
      "outputs": [
        {
          "internalType": "address",
          "name": "creator",
          "type": "address"
        },
        {
          "internalType": "string",
          "name": "title",
          "type": "string"
        },
        {
          "internalType": "string",
          "name": "description",
          "type": "string"
        },
        {
          "internalType": "uint256",
          "name": "goal",
          "type": "uint256"
        },
        {
          "internalType": "uint256",
          "name": "deadline",
          "type": "uint256"
        },
        {
          "internalType": "uint256",
          "name": "amountRaised",
          "type": "uint256"
        },
        {
          "internalType": "bool",
          "name": "claimed",
          "type": "bool"
        }
      ],
      "stateMutability": "view",
      "type": "function"
    },
    {
      "inputs": [
        {
          "internalType": "uint256",
          "name": "_campaignId",
          "type": "uint256"
        },
        {
          "internalType": "address",
          "name": "_contributor",
          "type": "address"
        }
      ],
      "name": "getContribution",
      "outputs": [
        {
          "internalType": "uint256",
          "name": "",
          "type": "uint256"
        }
      ],
      "stateMutability": "view",
      "type": "function"
    },
    {
      "inputs": [
        {
          "internalType": "uint256",
          "name": "_campaignId",
          "type": "uint256"
        }
      ],
      "name": "refund",
      "outputs": [],
      "stateMutability": "nonpayable",
      "type": "function"
    }
  ],
  "bytecode": "0x608060405234801561001057600080fd5b506001600081905550611de1806100286000396000f3fe6080604052600436106100705760003560e01c8063a318f2691161004e578063a318f2691461010a578063c1cbbca714610133578063d993de621461014f578063e081dbf91461019257610070565b8063141961bc146100755780631b55e338146100b8578063278ecde1146100e1575b600080fd5b34801561008157600080fd5b5061009c60048036038101906100979190610e75565b6101cf565b6040516100af9796959493929190610f9d565b60405180910390f35b3480156100c457600080fd5b506100df60048036038101906100da9190610e75565b61034e565b005b3480156100ed57600080fd5b5061010860048036038101906101039190610e75565b610650565b005b34801561011657600080fd5b50610131600480360381019061012c919061114f565b6108e0565b005b61014d60048036038101906101489190610e75565b610a79565b005b34801561015b57600080fd5b5061017660048036038101906101719190610e75565b610bdb565b604051610189979695949392919061120f565b60405180910390f35b34801561019e57600080fd5b506101b960048036038101906101b491906112b8565b610d7d565b6040516101c691906112f8565b60405180910390f35b60026020528060005260406000206000915090508060000160009054906101000a900473ffffffffffffffffffffffffffffffffffffffff169080600101805461021890611342565b80601f016020809104026020016040519081016040528092919081815260200182805461024490611342565b80156102915780601f1061026657610100808354040283529160200191610291565b820191906000526020600020905b81548152906001019060200180831161027457829003601f168201915b5050505050908060020180546102a690611342565b80601f01602080910402602001604051908101604052809291908181526020018280546102d290611342565b801561031f5780601f106102f45761010080835404028352916020019161031f565b820191906000526020600020905b81548152906001019060200180831161030257829003601f168201915b5050505050908060030154908060040154908060050154908060060160009054906101000a900460ff16905087565b610356610ddb565b60006002600083815260200190815260200160002090508060000160009054906101000a900473ffffffffffffffffffffffffffffffffffffffff1673ffffffffffffffffffffffffffffffffffffffff163373ffffffffffffffffffffffffffffffffffffffff16146103ff576040517f08c379a00000000000000000000000000000000000000000000000000000000081526004016103f6906113bf565b60405180910390fd5b8060040154421015610446576040517f08c379a000000000000000000000000000000000000000000000000000000000815260040161043d9061142b565b60405180910390fd5b806003015481600501541015610491576040517f08c379a000000000000000000000000000000000000000000000000000000000815260040161048890611497565b60405180910390fd5b8060060160009054906101000a900460ff16156104e3576040517f08c379a00000000000000000000000000000000000000000000000000000000081526004016104da90611503565b60405180910390fd5b60018160060160006101000a81548160ff0219169083151502179055506000816005015490506000826005018190555060008260000160009054906101000a900473ffffffffffffffffffffffffffffffffffffffff1673ffffffffffffffffffffffffffffffffffffffff168260405161055d90611554565b60006040518083038185875af1925050503d806000811461059a576040519150601f19603f3d011682016040523d82523d6000602084013e61059f565b606091505b50509050806105e3576040517f08c379a00000000000000000000000000000000000000000000000000000000081526004016105da906115b5565b60405180910390fd5b7fa4eb50103b0591feb0bc913f479d92af5eb7ea33e8c397b49bab52ce6af26cb5848460000160009054906101000a900473ffffffffffffffffffffffffffffffffffffffff168460405161063a93929190611634565b60405180910390a150505061064d610e21565b50565b610658610ddb565b600060026000838152602001908152602001600020905080600401544210156106b6576040517f08c379a00000000000000000000000000000000000000000000000000000000081526004016106ad9061142b565b60405180910390fd5b8060030154816005015410610700576040517f08c379a00000000000000000000000000000000000000000000000000000000081526004016106f7906116b7565b60405180910390fd5b60008160070160003373ffffffffffffffffffffffffffffffffffffffff1673ffffffffffffffffffffffffffffffffffffffff16815260200190815260200160002054905060008111610789576040517f08c379a000000000000000000000000000000000000000000000000000000000815260040161078090611723565b60405180910390fd5b60008260070160003373ffffffffffffffffffffffffffffffffffffffff1673ffffffffffffffffffffffffffffffffffffffff16815260200190815260200160002081905550808260050160008282546107e49190611772565b9250508190555060003373ffffffffffffffffffffffffffffffffffffffff168260405161081190611554565b60006040518083038185875af1925050503d806000811461084e576040519150601f19603f3d011682016040523d82523d6000602084013e610853565b606091505b5050905080610897576040517f08c379a000000000000000000000000000000000000000000000000000000000815260040161088e906117f2565b60405180910390fd5b7f80b577b4fc190ab86d963549e29f496afd079c5d81a2480d61217d4b5060a28c8433846040516108ca93929190611812565b60405180910390a15050506108dd610e21565b50565b60008211610923576040517f08c379a000000000000000000000000000000000000000000000000000000000815260040161091a90611895565b60405180910390fd5b60008111610966576040517f08c379a000000000000000000000000000000000000000000000000000000000815260040161095d90611901565b60405180910390fd5b6001600081548092919061097990611921565b9190505550600060015490506000600260008381526020019081526020016000209050338160000160006101000a81548173ffffffffffffffffffffffffffffffffffffffff021916908373ffffffffffffffffffffffffffffffffffffffff160217905550858160010190816109f09190611b0b565b5084816002019081610a029190611b0b565b508381600301819055506201518083610a1b9190611bdd565b42610a269190611c1f565b81600401819055507fdc26653af5b99b2da33e2ad69ee6600d9aeccc82b034501db4338309615ca238823388878560040154604051610a69959493929190611c53565b60405180910390a1505050505050565b610a81610ddb565b600060026000838152602001908152602001600020905080600401544210610ade576040517f08c379a0000000000000000000000000000000000000000000000000000000008152600401610ad590611cf9565b60405180910390fd5b60003411610b21576040517f08c379a0000000000000000000000000000000000000000000000000000000008152600401610b1890611d8b565b60405180910390fd5b348160070160003373ffffffffffffffffffffffffffffffffffffffff1673ffffffffffffffffffffffffffffffffffffffff1681526020019081526020016000206000828254610b729190611c1f565b9250508190555034816005016000828254610b8d9190611c1f565b925050819055507f0a4a91237423e0a1766a761c7cb029311d8b95d6b1b81db1b949a70c98b4e08e823334604051610bc793929190611812565b60405180910390a150610bd8610e21565b50565b60006060806000806000806000600260008a815260200190815260200160002090508060000160009054906101000a900473ffffffffffffffffffffffffffffffffffffffff1681600101826002018360030154846004015485600501548660060160009054906101000a900460ff16858054610c5790611342565b80601f0160208091040260200160405190810160405280929190818152602001828054610c8390611342565b8015610cd05780601f10610ca557610100808354040283529160200191610cd0565b820191906000526020600020905b815481529060010190602001808311610cb357829003601f168201915b50505050509550848054610ce390611342565b80601f0160208091040260200160405190810160405280929190818152602001828054610d0f90611342565b8015610d5c5780601f10610d3157610100808354040283529160200191610d5c565b820191906000526020600020905b815481529060010190602001808311610d3f57829003601f168201915b50505050509450975097509750975097509750975050919395979092949650565b60006002600084815260200190815260200160002060070160008373ffffffffffffffffffffffffffffffffffffffff1673ffffffffffffffffffffffffffffffffffffffff16815260200190815260200160002054905092915050565b600260005403610e17576040517f3ee5aeb500000000000000000000000000000000000000000000000000000000815260040160405180910390fd5b6002600081905550565b6001600081905550565b6000604051905090565b600080fd5b600080fd5b6000819050919050565b610e5281610e3f565b8114610e5d57600080fd5b50565b600081359050610e6f81610e49565b92915050565b600060208284031215610e8b57610e8a610e35565b5b6000610e9984828501610e60565b91505092915050565b600073ffffffffffffffffffffffffffffffffffffffff82169050919050565b6000610ecd82610ea2565b9050919050565b610edd81610ec2565b82525050565b600081519050919050565b600082825260208201905092915050565b60005b83811015610f1d578082015181840152602081019050610f02565b60008484015250505050565b6000601f19601f8301169050919050565b6000610f4582610ee3565b610f4f8185610eee565b9350610f5f818560208601610eff565b610f6881610f29565b840191505092915050565b610f7c81610e3f565b82525050565b60008115159050919050565b610f9781610f82565b82525050565b600060e082019050610fb2600083018a610ed4565b8181036020830152610fc48189610f3a565b90508181036040830152610fd88188610f3a565b9050610fe76060830187610f73565b610ff46080830186610f73565b61100160a0830185610f73565b61100e60c0830184610f8e565b98975050505050505050565b600080fd5b600080fd5b7f4e487b7100000000000000000000000000000000000000000000000000000000600052604160045260246000fd5b61105c82610f29565b810181811067ffffffffffffffff8211171561107b5761107a611024565b5b80604052505050565b600061108e610e2b565b905061109a8282611053565b919050565b600067ffffffffffffffff8211156110ba576110b9611024565b5b6110c382610f29565b9050602081019050919050565b82818337600083830152505050565b60006110f26110ed8461109f565b611084565b90508281526020810184848401111561110e5761110d61101f565b5b6111198482856110d0565b509392505050565b600082601f8301126111365761113561101a565b5b81356111468482602086016110df565b91505092915050565b6000806000806080858703121561116957611168610e35565b5b600085013567ffffffffffffffff81111561118757611186610e3a565b5b61119387828801611121565b945050602085013567ffffffffffffffff8111156111b4576111b3610e3a565b5b6111c087828801611121565b93505060406111d187828801610e60565b92505060606111e287828801610e60565b91505092959194509250565b60006111f982610ea2565b9050919050565b611209816111ee565b82525050565b600060e082019050611224600083018a611200565b81810360208301526112368189610f3a565b9050818103604083015261124a8188610f3a565b90506112596060830187610f73565b6112666080830186610f73565b61127360a0830185610f73565b61128060c0830184610f8e565b98975050505050505050565b611295816111ee565b81146112a057600080fd5b50565b6000813590506112b28161128c565b92915050565b600080604083850312156112cf576112ce610e35565b5b60006112dd85828601610e60565b92505060206112ee858286016112a3565b9150509250929050565b600060208201905061130d6000830184610f73565b92915050565b7f4e487b7100000000000000000000000000000000000000000000000000000000600052602260045260246000fd5b6000600282049050600182168061135a57607f821691505b60208210810361136d5761136c611313565b5b50919050565b7f4f6e6c79207468652063726561746f722063616e20636c61696d2066756e6473600082015250565b60006113a9602083610eee565b91506113b482611373565b602082019050919050565b600060208201905081810360008301526113d88161139c565b9050919050565b7f43616d706169676e20686173206e6f7420656e64656420796574000000000000600082015250565b6000611415601a83610eee565b9150611420826113df565b602082019050919050565b6000602082019050818103600083015261144481611408565b9050919050565b7f46756e64696e6720676f616c206e6f7420726561636865640000000000000000600082015250565b6000611481601883610eee565b915061148c8261144b565b602082019050919050565b600060208201905081810360008301526114b081611474565b9050919050565b7f46756e6473206861766520616c7265616479206265656e20636c61696d656400600082015250565b60006114ed601f83610eee565b91506114f8826114b7565b602082019050919050565b6000602082019050818103600083015261151c816114e0565b9050919050565b600081905092915050565b50565b600061153e600083611523565b91506115498261152e565b600082019050919050565b600061155f82611531565b9150819050919050565b7f4661696c656420746f2073656e642066756e647320746f2063726561746f7200600082015250565b600061159f601f83610eee565b91506115aa82611569565b602082019050919050565b600060208201905081810360008301526115ce81611592565b9050919050565b6000819050919050565b60006115fa6115f56115f084610ea2565b6115d5565b610ea2565b9050919050565b600061160c826115df565b9050919050565b600061161e82611601565b9050919050565b61162e81611613565b82525050565b60006060820190506116496000830186610f73565b6116566020830185611625565b6116636040830184610f73565b949350505050565b7f46756e64696e6720676f616c2077617320726561636865640000000000000000600082015250565b60006116a1601883610eee565b91506116ac8261166b565b602082019050919050565b600060208201905081810360008301526116d081611694565b9050919050565b7f4e6f20636f6e747269627574696f6e20666f756e640000000000000000000000600082015250565b600061170d601583610eee565b9150611718826116d7565b602082019050919050565b6000602082019050818103600083015261173c81611700565b9050919050565b7f4e487b7100000000000000000000000000000000000000000000000000000000600052601160045260246000fd5b600061177d82610e3f565b915061178883610e3f565b92508282039050818111156117a05761179f611743565b5b92915050565b7f4661696c656420746f2073656e6420726566756e640000000000000000000000600082015250565b60006117dc601583610eee565b91506117e7826117a6565b602082019050919050565b6000602082019050818103600083015261180b816117cf565b9050919050565b60006060820190506118276000830186610f73565b6118346020830185611200565b6118416040830184610f73565b949350505050565b7f476f616c206d7573742062652067726561746572207468616e20300000000000600082015250565b600061187f601b83610eee565b915061188a82611849565b602082019050919050565b600060208201905081810360008301526118ae81611872565b9050919050565b7f4475726174696f6e206d7573742062652067726561746572207468616e203000600082015250565b60006118eb601f83610eee565b91506118f6826118b5565b602082019050919050565b6000602082019050818103600083015261191a816118de565b9050919050565b600061192c82610e3f565b91507fffffffffffffffffffffffffffffffffffffffffffffffffffffffffffffffff820361195e5761195d611743565b5b600182019050919050565b60008190508160005260206000209050919050565b60006020601f8301049050919050565b600082821b905092915050565b6000600883026119cb7fffffffffffffffffffffffffffffffffffffffffffffffffffffffffffffffff8261198e565b6119d5868361198e565b95508019841693508086168417925050509392505050565b6000611a08611a036119fe84610e3f565b6115d5565b610e3f565b9050919050565b6000819050919050565b611a22836119ed565b611a36611a2e82611a0f565b84845461199b565b825550505050565b600090565b611a4b611a3e565b611a56818484611a19565b505050565b5b81811015611a7a57611a6f600082611a43565b600181019050611a5c565b5050565b601f821115611abf57611a9081611969565b611a998461197e565b81016020851015611aa8578190505b611abc611ab48561197e565b830182611a5b565b50505b505050565b600082821c905092915050565b6000611ae260001984600802611ac4565b1980831691505092915050565b6000611afb8383611ad1565b9150826002028217905092915050565b611b1482610ee3565b67ffffffffffffffff811115611b2d57611b2c611024565b5b611b378254611342565b611b42828285611a7e565b600060209050601f831160018114611b755760008415611b63578287015190505b611b6d8582611aef565b865550611bd5565b601f198416611b8386611969565b60005b82811015611bab57848901518255600182019150602085019450602081019050611b86565b86831015611bc85784890151611bc4601f891682611ad1565b8355505b6001600288020188555050505b505050505050565b6000611be882610e3f565b9150611bf383610e3f565b9250828202611c0181610e3f565b91508282048414831517611c1857611c17611743565b5b5092915050565b6000611c2a82610e3f565b9150611c3583610e3f565b9250828201905080821115611c4d57611c4c611743565b5b92915050565b600060a082019050611c686000830188610f73565b611c756020830187611200565b8181036040830152611c878186610f3a565b9050611c966060830185610f73565b611ca36080830184610f73565b9695505050505050565b7f43616d706169676e2068617320656e6465640000000000000000000000000000600082015250565b6000611ce3601283610eee565b9150611cee82611cad565b602082019050919050565b60006020820190508181036000830152611d1281611cd6565b9050919050565b7f436f6e747269627574696f6e206d75737420626520677265617465722074686160008201527f6e20300000000000000000000000000000000000000000000000000000000000602082015250565b6000611d75602383610eee565b9150611d8082611d19565b604082019050919050565b60006020820190508181036000830152611da481611d68565b905091905056fea264697066735822122070ed42fdeb8a52478eaa1c7c1567979c7aaf91595d59ea8099f2c547fa381c9164736f6c63430008180033",
  "linkReferences": {},
  "deployedLinkReferences": {}
}